:0400000064EF00F0B9
:100018001B80D8CF01F0E8CF02F0E0CF03F0FACF91
:1000280004F0FBCF05F0E9CF06F0EACF07F0E1CF07
:1000380008F0E2CF09F0D9CF0AF0DACF0BF0F3CF0E
:100048000CF0F4CF0DF0F6CF0EF0F7CF0FF0F8CF9D
:1000580010F0F5CF11F01BC012F01CC013F01DC03A
:1000680014F01EC015F0F29415C01EF014C01DF057
:1000780013C01CF012C01BF011C0F5FF10C0F8FF30
:100088000FC0F7FF0EC0F6FF0DC0F4FF0CC0F3FF62
:100098000BC0DAFF0AC0D9FF09C0E2FF08C0E1FFC0
:1000A80007C0EAFF06C0E9FF05C0FBFF04C0FAFF6E
:1000B80003C0E0FF02C0E8FF01C0D8FF1B9010009A
:1000C800ABEF00F0000ED16E8EEC00F0250E176E2F
:1000D800800E166E80EC00F0939000F000F081A086
:1000E80002D0010E01D0000EFF0A1A6E81501A18B4
:1000F800FE0B1A18816EF3D7948E948C000E196E2D
:100108000C0E186E1950B06E18C0AFFFAB8EAC8ACB
:10011800AB881200D388D38AD38C030ED3129AECFF
:1001280000F0A3EC00F0B0EC00F01200C180C18236
:10013800C184C1867F0E926E030E946E1200D59E06
:10014800D59AD59CD596F28AF294F19412001B9018
:0E0158001B92000166EF00F0F28EF28C120096
:020000040020DA
:08000000FFFFFFFFFFFFFFFF00
:020000040030CA
:0E0000000008111EFF8185FF0FC00FE00F40AA
:00000001FF
