:040000006FEF08F0A6
:100D00000052656164792E0A003A00000AC00EF0B4
:100D10000BC00FF00EC001F00FC002F00CC003F0CA
:100D20000DC004F0CEEC07F001C00EF002C00FF0D1
:100D3000084A092A0E500F10D8A4ECD708C0D9FFD2
:100D400009C0DAFF000EDF6E0806D8A009060AC047
:100D500001F00BC002F00CC003F00DC004F018EC61
:100D600008F00150106E0AC001F00BC002F00CC078
:100D700003F00DC004F0CEEC07F001C00AF002C091
:100D80000BF0090E106402D0070E1026300E10264C
:100D900008C0D9FF09C0DAFF10C0DFFF0806D8A0DD
:100DA00009060A500B10D8A4D2D7084A092A120003
:100DB000000E0A6E000E096E000E0D6E030E0D641D
:100DC00001D033D00DC007F0010E086E072A02D003
:100DD000D8900836072EFCD70850836E00F000F03C
:100DE00000F083CF07F0073A0F0E071607500B6E7F
:100DF0000C6A0BC001F00CC002F01AEC07F00150B5
:100E00000210D8B410D00D50040D0BC001F00CC06E
:100E100002F01AEC07F0F3500126F45002220150C0
:100E2000092602500A220D2AC9D709C005F00AC0B6
:100E300006F0120019D0000E026E010E016E1200B3
:100E4000000E026E020E016E1200000E026E030E04
:100E5000016E1200000E026E040E016E1200000EF2
:100E6000026E000E016E120001C003F002C004F019
:100E70000450000AD8A4F3D70350010AD8B4DBD732
:100E8000030AD8B4DDD7060AD8B4DFD70C0AD8B421
:100E9000E1D7E5D75BEC08F0250E026E800E016EFF
:100EA0004EEC08F06AEC08F0010E076E0D0E086EAD
:100EB00077EC07F0D8EC06F005C035F006C036F048
:100EC000090E076E0D0E086E77EC07F035C019F0AD
:100ED00036C01AF0000E1C6E0A0E1B6E39EC08F0BC
:100EE000070E076E0D0E086E77EC07F0E3D7000EC5
:100EF0000C6E000E0B6E1BD00B500724096E0C50AD
:100F000008200A6E09C0F6FF0AC0F7FF000EF86E4F
:100F10000C0EF76403D00800F55005D0F6CFE9FFBA
:100F2000F7CFEAFFEF5064EC08F00B4A0C2A07C039
:100F300001F008C002F0A4EC07F001500B5C025075
:100F40000C58D8B01200D8D701C005F002C006F086
:100F500002D0054A062A05C0F6FF06C0F7FF000EBC
:100F6000F86E0C0EF76403D00800F55005D0F6CFEC
:100F7000E9FFF7CFEAFFEF500009D8A4EAD701C094
:100F800003F002C004F0031E041E034A042A0550A5
:100F90000324016E06500420026E1200000E066E3D
:100FA000000E056E03500410D8B41CD0010E076E5D
:100FB00004D0D89003360436072A04AEFAD7D89066
:100FC000053606360350015C04500258D8A005D0FF
:100FD0000350015E0450025A0580D8900432033257
:100FE000072EEDD705C001F006C002F0120011C0B7
:100FF00017F012C018F014AE0CD011C0D9FF12C0F7
:10100000DAFF2D0EDF6E114A122A136C141ED8B0AF
:10101000142A11C008F012C009F013C00AF014C05D
:101020000BF015C00CF016C00DF086EC06F01200A7
:1010300003500410D8B418D0010E056E04D0D89017
:1010400003360436052A04AEFAD70350015C045077
:101050000258D8A004D00350015E0450025AD89020
:1010600004320332052EF1D701C001F002C002F0B4
:1010700012001D0E116E000E126E19C013F01AC070
:1010800014F01BC015F01CC016F0F7EC07F01D0E95
:10109000076E000E086E77EC07F01200AB8E948E90
:1010A000949CAC84B896330EAF6EAC989D98AC8A85
:1010B000AB88AB8E1200D388D38AD38C9B8CD3821F
:1010C0008090929080801200016E01C0ADFFACB2A2
:1010D0001200FDD7000E836EF00E956E1200000117
:0410E0004AEF07F0DC
:020000040020DA
:08000000FFFFFFFFFFFFFFFF00
:020000040030CA
:0E000000FF091C1EFF8085FF3FC03FE03F4010
:00000001FF
