:020000040000fa
:080000000002040000000000f2
:020000040000fa
:0400080002030000ef
:020000040000fa
:04000c0014030000d9
:020000040000fa
:040010002c030000bd
:020000040000fa
:040014000a030000db
:020000040000fa
:040018001c030000c5
:020000040000fa
:04001c0024030000b9
:020000040000fa
:0400200034030000a5
:020000040000fa
:040024004c03000089
:020000040000fa
:040028004c03000085
:020000040000fa
:04002c004c03000081
:020000040000fa
:040030004c0300007d
:020000040000fa
:040034004c03000079
:020000040000fa
:040038004c03000075
:020000040000fa
:04003c004c03000071
:020000040000fa
:040040004c0300006d
:020000040000fa
:040044004c03000069
:020000040000fa
:040048004c03000065
:020000040000fa
:04004c004c03000061
:020000040000fa
:040050004c0300005d
:020000040000fa
:040054004c03000059
:020000040000fa
:040058004c03000055
:020000040000fa
:04005c004c03000051
:020000040000fa
:040060004c0300004d
:020000040000fa
:040064004c03000049
:020000040000fa
:040068004c03000045
:020000040000fa
:04006c004c03000041
:020000040000fa
:040070004c0300003d
:020000040000fa
:040074004c03000039
:020000040000fa
:040078004c03000035
:020000040000fa
:04007c004c03000031
:020000040000fa
:040080004c0300002d
:020000040000fa
:040084004c03000029
:020000040000fa
:040088004c03000025
:020000040000fa
:04008c004c03000021
:020000040000fa
:040090004c0300001d
:020000040000fa
:040094004c03000019
:020000040000fa
:040098004c03000015
:020000040000fa
:04009c004c03000011
:020000040000fa
:0400a0004c0300000d
:020000040000fa
:0400a4004c03000009
:020000040000fa
:0400a8004c03000005
:020000040000fa
:0400ac004c03000001
:020000040000fa
:0400b0004c030000fd
:020000040000fa
:0400b4004c030000f9
:020000040000fa
:0400b8004c030000f5
:020000040000fa
:0400bc004c030000f1
:020000040000fa
:0400c0004c030000ed
:020000040000fa
:0400c4004c030000e9
:020000040000fa
:0400c8004c030000e5
:020000040000fa
:0400cc004c030000e1
:020000040000fa
:0400d0004c030000dd
:020000040000fa
:0400d4004c030000d9
:020000040000fa
:0400d8004c030000d5
:020000040000fa
:0400dc004c030000d1
:020000040000fa
:0400e0004c030000cd
:020000040000fa
:0400e4004c030000c9
:020000040000fa
:0400e8004c030000c5
:020000040000fa
:0400ec004c030000c1
:020000040000fa
:0400f0004c030000bd
:020000040000fa
:0400f4004c030000b9
:020000040000fa
:0400f8004c030000b5
:020000040000fa
:0400fc004c030000b1
:020000040000fa
:040100004c030000ac
:020000040000fa
:040104004c030000a8
:020000040000fa
:040108004c030000a4
:020000040000fa
:04010c004c030000a0
:020000040000fa
:040110004c0300009c
:020000040000fa
:040114004c03000098
:020000040000fa
:040118004c03000094
:020000040000fa
:04011c004c03000090
:020000040000fa
:040120004c0300008c
:020000040000fa
:040124004c03000088
:020000040000fa
:040128004c03000084
:020000040000fa
:04012c004c03000080
:020000040000fa
:040130004c0300007c
:020000040000fa
:040134004c03000078
:020000040000fa
:040138004c03000074
:020000040000fa
:04013c004c03000070
:020000040000fa
:040140004c0300006c
:020000040000fa
:040144004c03000068
:020000040000fa
:040148004c03000064
:020000040000fa
:04014c004c03000060
:020000040000fa
:040150004c0300005c
:020000040000fa
:040154004c03000058
:020000040000fa
:040158004c03000054
:020000040000fa
:04015c004c03000050
:020000040000fa
:040160004c0300004c
:020000040000fa
:040164004c03000048
:020000040000fa
:040168004c03000044
:020000040000fa
:04016c004c03000040
:020000040000fa
:040170004c0300003c
:020000040000fa
:040174004c03000038
:020000040000fa
:040178004c03000034
:020000040000fa
:04017c004c03000030
:020000040000fa
:040180004c0300002c
:020000040000fa
:040184004c03000028
:020000040000fa
:040188004c03000024
:020000040000fa
:04018c004c03000020
:020000040000fa
:040190004c0300001c
:020000040000fa
:040194004c03000018
:020000040000fa
:040198004c03000014
:020000040000fa
:04019c004c03000010
:020000040000fa
:0401a0004c0300000c
:020000040000fa
:0401a4004c03000008
:020000040000fa
:0401a8004c03000004
:020000040000fa
:0401ac004c03000000
:020000040000fa
:0401b0004c030000fc
:020000040000fa
:0401b4004c030000f8
:020000040000fa
:0401b8004c030000f4
:020000040000fa
:0401bc004c030000f0
:020000040000fa
:0401c0004c030000ec
:020000040000fa
:0401c4004c030000e8
:020000040000fa
:0401c8004c030000e4
:020000040000fa
:0401cc004c030000e0
:020000040000fa
:0401d0004c030000dc
:020000040000fa
:0401d4004c030000d8
:020000040000fa
:0401d8004c030000d4
:020000040000fa
:0401dc004c030000d0
:020000040000fa
:0401e0004c030000cc
:020000040000fa
:0401e4004c030000c8
:020000040000fa
:0401e8004c030000c4
:020000040000fa
:0401ec004c030000c0
:020000040000fa
:0401f0004c030000bc
:020000040000fa
:0401f4004c030000b8
:020000040000fa
:0401f8004c030000b4
:020000040000fa
:0401fc004c030000b0
:020000040000fa
:040200004c030000ab
:020000040000fa
:040204004c030000a7
:020000040000fa
:040208004c030000a3
:020000040000fa
:04020c004c0300009f
:020000040000fa
:040210004c0300009b
:020000040000fa
:040214004c03000097
:020000040000fa
:040218004c03000093
:020000040000fa
:04021c004c0300008f
:020000040000fa
:040220004c0300008b
:020000040000fa
:040224004c03000087
:020000040000fa
:040228004c03000083
:020000040000fa
:04022c004c0300007f
:020000040000fa
:040230004c0300007b
:020000040000fa
:040234004c03000077
:020000040000fa
:040238004c03000073
:020000040000fa
:04023c004c0300006f
:020000040000fa
:040240004c0300006b
:020000040000fa
:040244004c03000067
:020000040000fa
:040248004c03000063
:020000040000fa
:04024c004c0300005f
:020000040000fa
:040250004c0300005b
:020000040000fa
:040254004c03000057
:020000040000fa
:040258004c03000053
:020000040000fa
:04025c004c0300004f
:020000040000fa
:040260004c0300004b
:020000040000fa
:040264004c03000047
:020000040000fa
:040268004c03000043
:020000040000fa
:04026c004c0300003f
:020000040000fa
:040270004c0300003b
:020000040000fa
:040274004c03000037
:020000040000fa
:040278004c03000033
:020000040000fa
:04027c004c0300002f
:020000040000fa
:040280004c0300002b
:020000040000fa
:10040000cf0d23000eff27000e0188000000000022
:10041000000020000000e000020032000001200087
:100420002002880014000700f60007000000e0002a
:1004300003003a0000fc2000010020000200370009
:100440000000200001002000810f70000100320038
:100450000f000700000020000000e0000200320052
:1004600000000200000000006e1102000000000009
:100470000040da000000fe00a00a20000000e000ba
:1004800002003200002020009001880000000600d9
:10049000a1028800800478000000eb001f003700f4
:1004a000e284440054a0b4009905ba00e2844400f8
:1004b00054a0b4009906ba00e284440054a0b400e9
:1004c0000006eb00476fde00fd07b200ae018800ba
:1004d000636ce10003003a000ad801000000eb0061
:1004e0000e003700606ce10008003a00004deb00a0
:1004f0000a05e800020039003420ec000af0a000f0
:100500008b05e900f9ff3e00040037006168e10057
:10051000010032000086eb000b00070019c7ba008b
:100520000e04e0001905ba0003003a000a00e000da
:10053000dbff3a0000000600fe07b200ae028800b2
:100540008a047800f5ff37000cd0a300e20f4d00bd
:100550001c00390089027800354dba000a05e80010
:10056000020039003420ec000af0a0008b05e900fd
:100570000f003200254dba000a05e80002003900dc
:100580003420ec000af0a0008b05e90008003200de
:100590000c00e0000600320015cdba000a05e800a4
:1005a000020039003420ec000af0a0008b05e900bd
:1005b0008984e80054a0b4000b00e000e2ff3a0098
:1005c000000006009902ba00055d78008b05e9007d
:1005d000f7ff3200c82ade00055d78008b05e900d0
:1005e000f3ff32000c00e000f1ff320019ddba0029
:1005f000eeff3700900d040000000000a40d040081
:10060000000000003600f800c028a9000000eb0040
:100610001f0707003600f80018070700c048a900a8
:10062000100020001a0707003600f800c068a90073
:1006300020002000160707003600f800c088a90037
:1006400030002000120707003600f800c0a8a900fb
:10065000400020000e0707003600f800c608a90079
:10066000700020000a0707003600f800c4a8ab009d
:1006700003003200c4a8a90090002000040707006e
:10068000c488ab0003003200c488a900a000200089
:10069000ff060700ffff37000040da000000fe0001
:1006a0000100e00001003a0011002000010878007c
:1006b0007c00400030077800b0077800b01f780059
:1006c000a01f780064005000c00678004006780043
:1006d000c005780040057800c00478004004780028
:1006e000c003780040037800c00278004002780020
:1006f000c001780040017800c00078004000780018
:10070000000006000098be000298be000498be00db
:100710000698be000898be000a98be000c98be005d
:100720000e18780064985700efb897000118780009
:10073000ffb897000118780000000500889fbe00f0
:1007400080047800d08680000000e00004003a00b9
:100750000e0007000084eb000000e00008003500f8
:10076000d88680000900e00005003200090044003e
:10077000060007000000e00001003d000084eb00df
:10078000080078004f04be000000060080007800da
:100790000100e00003003a00c00d2100d08688006f
:1007a000000005000080eb00c20d2300828f500086
:1007b00002003e00d18688000000eb000000060029
:1007c000041020001011800080016200fdff320043
:1007d000020078000000e00009003200800278008a
:1007e000041020001211800082016200fdff32001f
:1007f000b101fb00231188008502e900f9ff3a00ee
:1008000000000600000005000000fa0068815700a3
:10081000cfb8970060062100ce0007000080fa00e4
:1008200000000600889fbe008a9fbe008c9fbe000d
:10083000410c2100228680000200e0000b003a00fb
:10084000648140002286880072868800a10098009a
:1008500061868800214190000204a000a240980017
:10086000614190000204a000e2409800670440004b
:100870004244de004244dd0064868000c10d210058
:10088000c90d2300818454002d00200011000900af
:100890008d04d800800678000886e8000c06460023
:1008a0008001eb0002003700130020000b027800eb
:1008b000a44090000108a300020032000a003700a3
:1008c000120a780014017800a24090000108a300e9
:1008d000fbff320088004200810f51000200390006
:1008e0000800e00041003d00940578000b00a100e5
:1008f000848f5500edff3e00e18f5100eaff3a0082
:100900008d0f540002003600890f54001300390087
:100910006141b8006148b900b4ff2f000500200014
:100920000000520081805a00800f5100818f5900d1
:10093000020035006405440009003700c00d2100a5
:10094000fa0d2300000555000805450011000900b7
:100950000985d8008985b900010037000c057800a9
:100960000a00780075ff0700e10f400005003a001b
:10097000640544000a00780070ff0700e10f4000a2
:100980002c0032007186800080087800718680001b
:10099000e481400021419000830f500002003200aa
:1009a0000204a000010037000204a100a240980048
:1009b000640555000a0540000a0878007a86880018
:1009c000410c2100010d780072868000a240900049
:1009d0000104a00021419800a04090000104a10062
:1009e000214098008001eb00b0ff3700618688004d
:1009f000810f51000800360011017800910190002c
:100a00008286880093868800940878000041eb0075
:100a100061868000a240980063868000030a780007
:100a2000a44090000104a00021429800640042000c
:100a3000010037000000eb004f06be004f05be006e
:100a40004f04be00000006000000e0000800320075
:100a50006400500061868000810f50000100310069
:100a600060868800a04090000104a1002140980009
:100a700000000600881f78000102b8006123b8005a
:100a80000001eb00860f5200878f5a000d003a00dc
:100a9000808cb9000800780062ff07000001eb00bd
:100aa0000000e000070032008000780002003700fc
:100ab0008058eb000804e9000800e000fcff3a0061
:100ac00000017800020078004f0478000000060062
:100ad000889fbe000004be00050037000000fb0038
:100ae00089007800c3020700e10f400004003200d3
:100af000384078000004e000f8ff3a000000eb0006
:100b00004f04be0000000600881f78006106210027
:100b1000efff07000004780061062100a00020001c
:100b2000b4020700080078004f04780000000600b7
:100b3000d0019000028151004240a900030034001e
:100b400010017800014978000208e80001007800ef
:100b500000000600f6874700889fbe008a9fbe00ff
:100b60008c9fbe008e1f780000057800a1b79f0003
:100b7000020778008004eb0092023700afb09700c4
:100b80008100e800a1b79f0051c2b300814f50001f
:100b900003003a00afb097000004eb0011003700eb
:100ba000ba0090000000fb000168a30007003200bb
:100bb00009017800800078000a007800dcff070057
:100bc0000000e00005003a007e0237008a0078004d
:100bd00088020700e10f40007a0232008904e80031
:100be000780237000100780031417800d3c2b300a9
:100bf000834f51000c00320007003c00edc1510052
:100c0000834f51000a003200ebc14100834f510075
:100c10000d003a000800370003c3b300834f5100b2
:100c200009003a00060037000830a000edff370049
:100c30000800a000ebff37000810a000e9ff370014
:100c40000820a000e7ff37000818a30001003200c9
:100c50000800a1000838a300010032000820a1000c
:100c60008200fb000103b100e98f50000c003e0040
:100c7000000178008000eb00ea08b900b200fb0038
:100c80000103b10080804000020078009201fb0067
:100c90000303b100e98f5100f7ff3600060037006b
:100ca0008000eb00a3c2b300834f510002003a0062
:100cb000ce0078000000e8008005eb00e2c2b3003f
:100cc000904f110008003a0008e0a0006441510074
:100cd000d04f1100020032000001780006003700fa
:100ce000ce0578000000e800000178000800370019
:100cf000ea58b9008085410002007800b201fb008b
:100d00000303b100e98f5100f9ff3600f6ff370009
:100d100032407800a2b79f00c3c6b300834f500093
:100d2000250032000f003c0032c6b300824f500055
:100d30008800320004003c000004e000260232007b
:100d40006b4151000f00370042c6b300824f500084
:100d50001700320065414100824f500094003a0074
:100d60001300370032c7b300824f50001b0032001f
:100d700007003c0064415100824f500010003200d7
:100d80000241e800824f500089003a000f0037000e
:100d900052c7b300824f50008a00320063414100c5
:100da000824f500082003a00e0df9f0009003700c8
:100db000e0df9f00850037000840a000d4ff370027
:100dc000e0df9f000860a00080003700e0df9f00a8
:100dd0000850a0000870a0007c003700e0df9f00f2
:100de0004e007800000678000000e00001003a00a4
:100df000ac0221000c0178000000eb00010037007c
:100e00000000e800800141001304e000fcff3a000c
:100e1000800678000b00e000030032008d8f550043
:100e2000010031008b0678008005eb008d8f5000ab
:100e3000010036008d855000680464002a003a00e5
:100e4000110037003a0090000068a300070032004c
:100e500009017800010220000a00780034ff070031
:100e60000000e00006003a00060037008a00780023
:100e700000022000df010700e10f40000100320006
:100e80008904e8008b05e9000b00e000edff3a0063
:100e90008085eb00140037003a0090000068a30042
:100ea000090032000c007800b000fb00000678005a
:100eb000090178000a0078001dff07000000e0002b
:100ec00008003a00080037008c0078003100fb0071
:100ed000010678008a007800c6010700e10f400093
:100ee000010032008904e8000d0078008006e90066
:100ef0000000e000e8ff3a000800e000b101320025
:100f0000110037003a0090000068a300070032008b
:100f100009017800010220000a00780004ff0700a0
:100f20000000e00006003a00060037008a00780062
:100f300000022000af010700e10f40000100320075
:100f40008904e8008b05e9000b00e000edff3a00a2
:100f50009c0137004e017800cf91de00c81ade00f8
:100f60004818dd004812de0004027000e4df9f0034
:100f70000848a300080032000404e0000600320024
:100f8000e14f420004003200f4df9f0082e79f003f
:100f90002d00200002003700f2df9f001d0020001e
:100fa000e2fd2f000f0141000206e80099ff370023
:100fb000e0df9f00ecfd2f000f0646001d00200023
:100fc00094ff3700e0df9f00080cb30008017800b1
:100fd000020cb200700064000200e0000f003a0052
:100fe0000000e00004003200640757001e0678008d
:100ff0009e069000020037004e067800cfe6de0025
:10100000e00f5600e08f5e000c003d003800b3009a
:1010100060061600e0861e00080037000000e000b1
:1010200004003200640757001e0678009e069000f8
:10103000020037004e0678008006eb000b00e0004f
:1010400005003a008c8576000bf0a7008b05ea00be
:101050008b05e900cf5dde0088017800030cb2004b
:10106000e3b79f0000042000808f5100230032006e
:1010700003003c000300e000080032002d003700b0
:10108000000820006fb29700800f52000d00320060
:10109000000c2000800f520026003a00220321009d
:1010a00010c0b30064014100b20f5600a28f5e0071
:1010b0001f0039000040e800ea4f5000f9ff3a00f5
:1010c0001b00370010c0b300020120000300200005
:1010d000820f5600838f5e0015003900441add0030
:1010e000cc11de00830172004411dd000040e800f5
:1010f000e84f5000f6ff3a000d00370010c0b30073
:101100008200200003002000820f5600838f5e00c3
:1011100007003900431add00cd11de0083017200a3
:101120004311dd000040e800eb4f5000f6ff3a00ad
:10113000e0df9f006fd997000200fb008b0f50008b
:1011400002003d00ebdf9f0003003700808f550059
:1011500001003d00800578000100e000030032003e
:1011600063006400010032008100e90008e8a30088
:10117000050032008b8f5000020034008b8050003d
:10118000010037008000eb00efd997000300fb005f
:101190000002eb00d4b79f00808f500002003400a3
:1011a00000805000d0b79f000828a3004000320004
:1011b000610164000818a3000f0032003a0090009b
:1011c0000068a30006003200b10220000200e00027
:1011d000010032008180e800090178000d0037002d
:1011e000b00220000200e000010032000080e800b0
:1011f0008a0078000e0037000200e0001000320084
:101200003a0090000068a30007003200090178004e
:10121000010220000a00780045fe07000000e000ff
:1012200006003a00060037008a007800000220001d
:10123000f0000700e10f4000010032008904e800df
:101240005fb097000000e0005a003200bcb79f007a
:10125000cdb79f00800678003a0090000068a30098
:101260000700320009017800010320000a0078001d
:101270002ffe07000000e00006003a0006003700dd
:101280008a00780000032000da000700e10f400028
:10129000010032008904e8008d06e900eeff3a0003
:1012a000ddb79f003fb69700cfb6970041003700eb
:1012b000dfb197000300e0001a0032000838a300f5
:1012c00018003a00bcb79f00cdb79f008306780096
:1012d0003a0090000068a30007003200090178007e
:1012e000010220000a00780011fe07000000e00063
:1012f00006003a00060037008a007800000220004d
:10130000bc000700e10f4000010032008904e80042
:101310008d06e900eeff3a00ddb79f003fb697006b
:10132000cfb69700610164000818a3000f003200d7
:101330003a0090000068a30006003200b1022000cd
:101340000200e000010032008180e800090178001d
:101350000d003700b00220000200e0000100320062
:101360000080e8008a0078000e0037000200e000ec
:10137000100032003a0090000068a300070032001d
:1013800009017800010220000a007800e8fd07004a
:101390000000e00006003a00060037008a007800ee
:1013a0000002200093000700e10f4000010032001e
:1013b0008904e8000b03e900e331b900b2b79f00ec
:1013c0004233dd0020032100000343008e0178003a
:1013d00093b79f0008077800060478005d00370087
:1013e0008b05e900000420006fb29700800f5200c7
:1013f0003900320003003c000400e0000800320025
:101400003f00370000082000efb09700808f5000a9
:1014100021003200000c2000808f500038003a007c
:101420000e48a300110032001802780098029000c4
:101430000401be000c00be00f4b79f0085bf9f00f2
:10144000ee000700e0df9f000000fb00cf80de0021
:101450007fb297008fba97000401be00f700070023
:101460000006560081865e000700370018017800ec
:10147000110009000286d800a20020001100090016
:101480000280d800e1df9f006fd997000243b000cf
:10149000e2df9f001a003700900121000e58a300e0
:1014a000010032008000210021032100810054004e
:1014b0000c01be008100e900030033008301d1006c
:1014c0000281d300fbff3700ef0061000100400004
:1014d00010407800090037000c00be003fb29700b2
:1014e0000402e900030033008100d1000080d30032
:1014f000fbff3700674060000043b000e0df9f0063
:10150000ba0090006fd997000200fb000168a300a9
:101510000700320009017800800078000a00780096
:1015200083fd07000000e00005003a0005003700d9
:101530008a0078002f000700e10f40000100320010
:101540008904e8003fb2970063025200b4b79f00dd
:10155000640454000b00e000a1ff3a000e04780080
:101560001fb797000838a300160032005fb097003d
:101570000000e00013003400000478003a009000fe
:101580000068a30007003200090178000102200072
:101590000a00780066fd07000000e00006003a003f
:1015a000060037008a0078000002200011000700c2
:1015b000e10f4000010032008904e8000804e9005e
:1015c000eeff3a00afb0970011407800e0df9f00d7
:1015d0000004e00069fd3a00090078004f07780038
:1015e0004f06be004f05be004f04be006f01b100a4
:1015f00000000600889fbe0001047800b80090003b
:101600008084eb000118a3003a003200180190001a
:101610000198a30002003a000200e00035003a0001
:101620000190a0003104980080047800f90fb20006
:101630000200e00002003a0028009000000c780050
:10164000ea8f540005003a000178a30003003a0035
:1016500088007800d0002000e6ff07001800900006
:10166000d8009000810f50000b0032000000e8000d
:10167000100498001800780009487800000ce80071
:1016800011c0b300400d210001487800ea8f5400da
:1016900018003a00050037008800780009407800fb
:1016a000170007008004780012003700380090000f
:1016b0000088a3000f00320018019000a8009000dd
:1016c000480090003efc070098009000810f5000f9
:1016d00004003200380090000003b300300498008a
:1016e0008084eb000000eb001004980028009000bc
:1016f000000c7800090078004f04be0000000600ce
:101700000200fa00889fbe00a0ff9f00010478003d
:10171000380090000068a30033003a00e200600047
:1017200005003a000003b30030049800110498004b
:101730000080eb002e003700d80490000900e00084
:1017400006003a0012002000e68057004800900092
:101750001bfc07001904980023003700a800900024
:101760000100e00008003a00710d210021049800fa
:10177000010c780021002000510498001104980009
:101780000030a0003004980018019000a8009000dc
:10179000480090000afc0700280090008080eb00c1
:1017a00011049800aff8970001487800000ce80099
:1017b0002ff89700ea4f50000b003a0038009000d5
:1017c0000088a3000800320018019000a8009000d3
:1017d00048009000fafb07000000eb00100498009e
:1017e000a8009000010c7800aff897000100fb0002
:1017f0004f04be000080fa00000006006022b8001e
:10180000060220000000d0008180d2000482d200b5
:101810008582d2000000a0000202520083825a009a
:10182000030031000202420083824a000000a1004e
:101830000603e900f3ff3a0000000600020ab900bf
:10184000001bb9000200b800810042008100430083
:04185000000006008e
:020000040000fa
:1018540057410000524e0000494e0000473a000034
:1018640020740000617300006b20000025640000f8
:1018740020650000786900007465000064200000a1
:101884007769000074680000206300006f64000042
:1018940065200000256400000a0000004552000095
:1018a400524f0000523a000020740000696d00009d
:1018b40065720000206e00006f7400002066000056
:1018c4006f7500006e6400002100000045520000a6
:1018d400524f0000523a0000206800006561000089
:1018e400702000006e6f000074200000636f000021
:1018f4006e66000069670000757200006564000090
:101904002e00000045520000524f0000523a0000e1
:1019140020630000616e00006e6f00007420000000
:10192400637200006561000074650000206e0000b1
:10193400756c00006c20000074610000736b000083
:101944002100000054720000617000002065000056
:101954006e6300006f7500006e7400006572000015
:1019640065640000202d00002065000072720000f4
:101974006f720000206300006f64000065200000a7
:101984002564000000000000537900007374000017
:10199400656d00002072000065610000647900003c
:0419a4002e00000011
:020000040000fa
:1019a8001080800030009000108088000000060041
:1019b8000008210051fb0700e10f50000800320029
:1019c800801f78001080800010009000801f780031
:1019d800a0c22800801f780089fb0700e68757000f
:1019e800efff07001180800041009000910078000f
:1019f800010001000000060000017800108080004e
:101a08009001900004003700300090009000900092
:101a1800838f50000400320090009000828f5000a5
:101a2800f9ff3a00010037000000eb000000060053
:101a380010002000f0ff07000000e00004003a005a
:101a480000c528002efc07000080eb0002003700cc
:101a5800400090001000780000000600889fbe003b
:101a68008a1f78000004be0002057800a00020004c
:101a78006afb07000000e0000c003200080878004c
:101a8800018080003100980011808000b00098002b
:101a98002900980021808000110178001200980028
:101aa8008208e8004a009800108088004f057800f6
:101ab8004f04be0000000600210020001000200096
:101ac800eafb0700000178008000eb0000d9200045
:101ad800e2ff070000000600e10f500001003a0095
:101ae800f5ff07000000eb00000006000101780088
:101af80011002000d9ff0700000006003001900007
:101b0800b2009800cefb07000000060080007800b5
:101b180000082100e0fa07009000780002f02f008a
:101b2800828f5000020036000008eb0001003700e9
:101b38000108e8000000eb00f4ff070000000600c1
:101b48000000eb00f1ff070000000600881f780086
:101b5800000478002100200010002000c3fb0700cb
:101b6800208088000000e00004003a0080c62800b9
:101b7800e3fb07000080eb001a003700a0002000fc
:101b880026fb07000000e00006003a0040c82800d5
:101b9800801f78001afb07008f87e900e0ff2f00fd
:101ba8001000370041da2000010878003000980062
:101bb8008000eb00210098002280800092017800cc
:101bc800130098000309e80041009800108088007d
:101bd8000080880008007800bfff070074ff070036
:101be8000000eb004f04780000000600b01320004e
:101bf800101388001000200020138800c00028005f
:101c080000138800000006006022ab00feff3a00c7
:101c18006342ab00030032001000780040138800d4
:101c2800020037001080fb004013880002022000e9
:101c38000313800003006100fdff3a006342ab001c
:101c4800030032004013800080087800020037004b
:101c58004013800080487800000006000400fa0065
:101c6800889fbe008a1f78008001eb00b3bf9f00e9
:101c7800c3bf9f00064020001313800003036300c6
:101c88000603ea004f33de0018002000880f5300d7
:101c980002003a008100d100280020000000e00086
:101ca80003003a00e88257008004eb000200370086
:101cb80088047800800278000200e00002003a0000
:101cc8006a8157000004eb006022ab00feff3a0077
:101cd8000000eb008001eb000100e0002900320069
:101ce80007022000e78f51000a003e00e10f530071
:101cf80003003a00150278004413880002003700f8
:101d08001582fb0044138800898242000000e80025
:101d18008301e8000a1380000a82630009003a0080
:101d2800e10f530003003a004413800004097800cf
:101d3800020037004413800004497800080141007c
:101d48008301e900808f5000e6ff3e000d00370058
:101d58000513800085006200fdff3a00e10f530083
:101d680003003a004a1380000a097800020037008d
:101d78004113800001497800080141008301e9000e
:101d880001003700040220000300e00004003200d4
:101d98000513800085006200edff3a00efff370071
:101da8004f0578004f04be000080fa0000000600ce
:101db8000400fa00e0ff9f00e48057000f80e9006c
:101dc80091ff07004ff897000080fa000000060016
:101dd800a2ff0700000006000013800000000600b4
:101de800210f200022028000828060008080700025
:101df8002102880000000600710520000001eb00a8
:101e0800600420002374200080497800814978000c
:101e180082497800200c2300203a88004827ef00e8
:101e28004e27ef0090082000303a88004420a9008f
:101e380044c0a90044e0a9004480a90000000600ad
:101e480093000700ecff07002801070067ff070061
:101e5800f000070013010700c60007000002200079
:101e6800dfff070000000600003a800000000600bf
:101e78004f00de00000006000100240001006000a1
:101e88000000ea004f00de00000006004900de0006
:101e980061006000000006004700de00610060008d
:101ea800000006004600de00610060000000060039
:101eb8004400de0061006000000006000080ea00c7
:101ec8004007b600003a880000000600881f780026
:101ed800e5ff07000004780008007800e4ff070029
:101ee8000004e0000200320000002800f3ff0700b1
:101ef80008007800e0ff07000004e000020032005c
:101f080000002400edff070008007800dfff07004d
:101f18000004e0000200320000202000e7ff070074
:101f280008007800dcff07000004e000020032002f
:101f380000082000e1ff070008007800d9ff07002b
:101f48000004e0000200320000042000dbff07006c
:101f580008007800d6ff07000004e0000200320005
:101f680000012000d5ff07004f047800000006009c
:081f78004027ef000000060005
:020000040000fa
:101f8000a4100000200000008000000006100000e7
:101f90000200000082000000ffff0000801000002f
:101fa0002400000080000000001000000600000077
:101fb00080000000c410000010000000800000003d
:101fc0005a1000002600000082000000d51000001a
:101fd00000d510000900000000020000d71000002a
:101fe00000d710000e0201000000000000000000f9
:101ff0000000000006020200000000005a1000006d
:10200000d41000000600000080000000081000004e
:1020100052000000820000003031320033343500bd
:10202000363738003941420043444500460030000d
:10203000313233003435360037383900616263009d
:102040006465660000286e00756c6c002900000055
:1020500001000000000a0000000064000000000011
:10206000e8030000001027000000a0008601000027
:1020700040420f000080960098000000e1f5050046
:1020800000ca9a003b000000da10000002000000c5
:082090008000000000000000c8
:020000040000fa
:10209800042eef00004e2300a0708800f0002000fe
:1020a80000708800f0212f00807088000c2eef004f
:1020b8001c2eef000a2eef001a2eef00062eef005e
:1020c800162eef003000200070708800c00020003d
:1020d800f0708800f20b2000103a800000016100c7
:1020e80060042000710520002374200080497800d6
:1020f800814978008249780002f82f006436800010
:1021080084016100c302b3006336880003fc2f001a
:1021180005348000858161000300a0000334880035
:10212800f30f2c00253480000582610004b0a00064
:1021380024348800443480008481610004902000a5
:1021480003027200443488002536800005016100ce
:102158004202b30022368800123a80000260a000d2
:1021680023742000804978008149780082497800ea
:10217800000006000a21ef000e21ef000621ef0003
:1021880000a22700600888008003280080088800d3
:10219800000006000108ab00010032000108a90098
:1021a800000006006008880071088800000006002a
:1021b80070088000620880008000eb00c000dd002d
:1021c800000020008001eb00020070008380700096
:1021d800000006004108880030088800000006005a
:1021e80032088000400880008000eb00c000dd005d
:1021f800000020008001eb00020070008380700066
:102208000000060011e1a8000000060011e1a90085
:102218000000060080002000001188002222ef0044
:102228007a0040004011880021e2a8002342a8005b
:10223800000006002202ab00feff32002222ab00a3
:10224800010032002222a90030118000000006009f
:10225800022020001311800083006100fdff3a0076
:102268000080fb002011880000000600101180008b
:1022780000000600400a210080077800780040002e
:10228800000188000000060030808800801f780068
:1022980040ca2800801f780059f90700e4875700d2
:1022a800ffff370000002800001988002223ef00f4
:1022b80010002000201988002823ef002e23ef00ab
:1022c8003023ef002623ef000000060001a8a90034
:1022d80000000600dafe070060cc280008fa0700b4
:1022e8000140fe000080eb00000006000000060030
:020000040000fa
:02000004000af0
:04afe000cdff0000a1
:020000040000fa
:02000004000af0
:04afe400cfff00009b
:020000040000fa
:02000004000af0
:04afe8007fff0000e7
:020000040000fa
:02000004000af0
:04afec009bff0000c7
:020000040000fa
:02000004000af0
:04aff000f9ff000065
:020000040000fa
:02000004000af0
:04aff400ffff00005b
:00000001FF
