:020000040000fa
:080000000002040000000000f2
:020000040000fa
:0400080002030000ef
:020000040000fa
:04000c0014030000d9
:020000040000fa
:040010002c030000bd
:020000040000fa
:040014000a030000db
:020000040000fa
:040018001c030000c5
:020000040000fa
:04001c0024030000b9
:020000040000fa
:0400200034030000a5
:020000040000fa
:040024004c03000089
:020000040000fa
:040028004c03000085
:020000040000fa
:04002c004c03000081
:020000040000fa
:040030004c0300007d
:020000040000fa
:040034004c03000079
:020000040000fa
:040038004c03000075
:020000040000fa
:04003c004c03000071
:020000040000fa
:040040004c0300006d
:020000040000fa
:040044004c03000069
:020000040000fa
:040048004c03000065
:020000040000fa
:04004c004c03000061
:020000040000fa
:040050004c0300005d
:020000040000fa
:040054004c03000059
:020000040000fa
:040058004c03000055
:020000040000fa
:04005c004c03000051
:020000040000fa
:040060004c0300004d
:020000040000fa
:040064004c03000049
:020000040000fa
:040068004c03000045
:020000040000fa
:04006c004c03000041
:020000040000fa
:040070004c0300003d
:020000040000fa
:040074004c03000039
:020000040000fa
:040078004c03000035
:020000040000fa
:04007c004c03000031
:020000040000fa
:040080004c0300002d
:020000040000fa
:040084004c03000029
:020000040000fa
:040088004c03000025
:020000040000fa
:04008c004c03000021
:020000040000fa
:040090004c0300001d
:020000040000fa
:040094004c03000019
:020000040000fa
:040098004c03000015
:020000040000fa
:04009c004c03000011
:020000040000fa
:0400a0004c0300000d
:020000040000fa
:0400a4004c03000009
:020000040000fa
:0400a8004c03000005
:020000040000fa
:0400ac004c03000001
:020000040000fa
:0400b0004c030000fd
:020000040000fa
:0400b4004c030000f9
:020000040000fa
:0400b8004c030000f5
:020000040000fa
:0400bc004c030000f1
:020000040000fa
:0400c0004c030000ed
:020000040000fa
:0400c4004c030000e9
:020000040000fa
:0400c8004c030000e5
:020000040000fa
:0400cc004c030000e1
:020000040000fa
:0400d0004c030000dd
:020000040000fa
:0400d4004c030000d9
:020000040000fa
:0400d8004c030000d5
:020000040000fa
:0400dc004c030000d1
:020000040000fa
:0400e0004c030000cd
:020000040000fa
:0400e4004c030000c9
:020000040000fa
:0400e8004c030000c5
:020000040000fa
:0400ec004c030000c1
:020000040000fa
:0400f0004c030000bd
:020000040000fa
:0400f4004c030000b9
:020000040000fa
:0400f8004c030000b5
:020000040000fa
:0400fc004c030000b1
:020000040000fa
:040100004c030000ac
:020000040000fa
:040104004c030000a8
:020000040000fa
:040108004c030000a4
:020000040000fa
:04010c004c030000a0
:020000040000fa
:040110004c0300009c
:020000040000fa
:040114004c03000098
:020000040000fa
:040118004c03000094
:020000040000fa
:04011c004c03000090
:020000040000fa
:040120004c0300008c
:020000040000fa
:040124004c03000088
:020000040000fa
:040128004c03000084
:020000040000fa
:04012c004c03000080
:020000040000fa
:040130004c0300007c
:020000040000fa
:040134004c03000078
:020000040000fa
:040138004c03000074
:020000040000fa
:04013c004c03000070
:020000040000fa
:040140004c0300006c
:020000040000fa
:040144004c03000068
:020000040000fa
:040148004c03000064
:020000040000fa
:04014c004c03000060
:020000040000fa
:040150004c0300005c
:020000040000fa
:040154004c03000058
:020000040000fa
:040158004c03000054
:020000040000fa
:04015c004c03000050
:020000040000fa
:040160004c0300004c
:020000040000fa
:040164004c03000048
:020000040000fa
:040168004c03000044
:020000040000fa
:04016c004c03000040
:020000040000fa
:040170004c0300003c
:020000040000fa
:040174004c03000038
:020000040000fa
:040178004c03000034
:020000040000fa
:04017c004c03000030
:020000040000fa
:040180004c0300002c
:020000040000fa
:040184004c03000028
:020000040000fa
:040188004c03000024
:020000040000fa
:04018c004c03000020
:020000040000fa
:040190004c0300001c
:020000040000fa
:040194004c03000018
:020000040000fa
:040198004c03000014
:020000040000fa
:04019c004c03000010
:020000040000fa
:0401a0004c0300000c
:020000040000fa
:0401a4004c03000008
:020000040000fa
:0401a8004c03000004
:020000040000fa
:0401ac004c03000000
:020000040000fa
:0401b0004c030000fc
:020000040000fa
:0401b4004c030000f8
:020000040000fa
:0401b8004c030000f4
:020000040000fa
:0401bc004c030000f0
:020000040000fa
:0401c0004c030000ec
:020000040000fa
:0401c4004c030000e8
:020000040000fa
:0401c8004c030000e4
:020000040000fa
:0401cc004c030000e0
:020000040000fa
:0401d0004c030000dc
:020000040000fa
:0401d4004c030000d8
:020000040000fa
:0401d8004c030000d4
:020000040000fa
:0401dc004c030000d0
:020000040000fa
:0401e0004c030000cc
:020000040000fa
:0401e4004c030000c8
:020000040000fa
:0401e8004c030000c4
:020000040000fa
:0401ec004c030000c0
:020000040000fa
:0401f0004c030000bc
:020000040000fa
:0401f4004c030000b8
:020000040000fa
:0401f8004c030000b4
:020000040000fa
:0401fc004c030000b0
:020000040000fa
:040200004c030000ab
:020000040000fa
:040204004c030000a7
:020000040000fa
:040208004c030000a3
:020000040000fa
:04020c004c0300009f
:020000040000fa
:040210004c0300009b
:020000040000fa
:040214004c03000097
:020000040000fa
:040218004c03000093
:020000040000fa
:04021c004c0300008f
:020000040000fa
:040220004c0300008b
:020000040000fa
:040224004c03000087
:020000040000fa
:040228004c03000083
:020000040000fa
:04022c004c0300007f
:020000040000fa
:040230004c0300007b
:020000040000fa
:040234004c03000077
:020000040000fa
:040238004c03000073
:020000040000fa
:04023c004c0300006f
:020000040000fa
:040240004c0300006b
:020000040000fa
:040244004c03000067
:020000040000fa
:040248004c03000063
:020000040000fa
:04024c004c0300005f
:020000040000fa
:040250004c0300005b
:020000040000fa
:040254004c03000057
:020000040000fa
:040258004c03000053
:020000040000fa
:04025c004c0300004f
:020000040000fa
:040260004c0300004b
:020000040000fa
:040264004c03000047
:020000040000fa
:040268004c03000043
:020000040000fa
:04026c004c0300003f
:020000040000fa
:040270004c0300003b
:020000040000fa
:040274004c03000037
:020000040000fa
:040278004c03000033
:020000040000fa
:04027c004c0300002f
:020000040000fa
:040280004c0300002b
:020000040000fa
:100400006f9123000eff27000e01880000000000fe
:10041000000020000000e000020032000001200087
:100420002002880014000700fc0007000000e00024
:1004300003003a000076210001002000020037008e
:100440000000200001002000810f70000100320038
:100450000f000700000020000000e0000200320052
:1004600000000200000000000c1902000000000063
:100470000040da000000fe00e00f20000000e00075
:1004800002003200002020009001880000000600d9
:10049000a1028800800478000000eb001f003700f4
:1004a000e284440054a0b4009905ba00e2844400f8
:1004b00054a0b4009906ba00e284440054a0b400e9
:1004c0000006eb00476fde00fd07b200ae018800ba
:1004d000636ce10003003a000ad801000000eb0061
:1004e0000e003700606ce10008003a00004deb00a0
:1004f0000a05e800020039003420ec000af0a000f0
:100500008b05e900f9ff3e00040037006168e10057
:10051000010032000086eb000b00070019c7ba008b
:100520000e04e0001905ba0003003a000a00e000da
:10053000dbff3a0000000600fe07b200ae028800b2
:100540008a047800f5ff37000cd0a300e20f4d00bd
:100550001c00390089027800354dba000a05e80010
:10056000020039003420ec000af0a0008b05e900fd
:100570000f003200254dba000a05e80002003900dc
:100580003420ec000af0a0008b05e90008003200de
:100590000c00e0000600320015cdba000a05e800a4
:1005a000020039003420ec000af0a0008b05e900bd
:1005b0008984e80054a0b4000b00e000e2ff3a0098
:1005c000000006009902ba00055d78008b05e9007d
:1005d000f7ff3200c82ade00055d78008b05e900d0
:1005e000f3ff32000c00e000f1ff320019ddba0029
:1005f000eeff370078130400000000008c130400a5
:10060000000000003600f800c028a9000000eb0040
:10061000160b07003600f8000f0b0700c048a900b2
:1006200010002000110b07003600f800c068a90078
:10063000200020000d0b07003600f800c088a9003c
:1006400030002000090b07003600f800c0a8a90000
:1006500040002000050b07003600f800c608a9007e
:1006600070002000010b07003600f800c4a8ab00a2
:1006700003003200c4a8a90090002000fb0a070074
:10068000c488ab0003003200c488a900a000200089
:10069000f60a0700ffff37000040da000000fe0006
:1006a0000002b10003003500e005b10001003c008c
:1006b00010000500000005000100e00001003a0004
:1006c00011002000010878007c004000300778000d
:1006d000b0077800b01f7800a01f780064005000b9
:1006e000c006780040067800c00578004005780014
:1006f000c004780040047800c0037800400378000c
:10070000c002780040027800c00178004001780003
:10071000c000780040007800000006000098be008d
:100720000298be000498be000698be000898be005d
:100730000a98be000c98be000e1878006498570006
:10074000efb8970001187800ffb8970001187800fb
:1007500000000500889fbe0080047800a0c88000cb
:100760000000e00004003a000e0007000084eb00e7
:100770000000e00008003500a8c880000900e00083
:100780000500320009004400060007000000e000f8
:1007900001003d000084eb00080078004f04be001b
:1007a00000000600800078000100e00003003a002d
:1007b00060912100a0c88800000005000080eb00c7
:1007c00062912300828f500002003e00a1c8880081
:1007d0000000eb0000000600041020001011800053
:1007e00080016200fdff3200020078000000e0009e
:1007f00009003200800278000410200012118000ed
:1008000082016200fdff3200b101fb00231188006c
:100810008502e900f9ff3a0000000600000005002b
:1008200003f0a200889fbe008a9fbe008c1f780044
:10083000fa000700010133006450e1004f0032006c
:100840006420e1005200320003826c0007003b008c
:100850000905d0000306d000820f54000c065d008d
:100860000200390002003200890178000306780096
:100870008582550004003d000003fd008103fd005a
:100880008502ea008b854200840f720002003b0063
:1008900060001000e08018006011b8000005eb0057
:1008a0007a28e1000a00390006007800c75ddd0003
:1008b000f707b200878075002d0037008281710034
:1008c0000a017800610560008180d1000080d300ba
:1008d0008502e900f9ff3b000604400087844800d8
:1008e00002003b0060041400e0841c000988a3009f
:1008f000070032008a817100828171006101640009
:100900008904d1000884d3008b05e8001700370064
:100910000978a30013003a000b00e0001300340034
:100920008b05e9000804440089844c000a447400e3
:100930000978a3000d003a000b00e0000700340026
:100940008b05e9000804440089844c0001003a004a
:100950000b0020000978a300f7ff32000001eb0034
:1009600002003700828171000a01780070000700e0
:100970000cf0a70001f0a000b90037006420e100ee
:1009800002003a00838f6c00b90033000801be00fa
:100990000200be00b2003700889fbe008a9fbe00e2
:1009a0008c1f78009d000700a400330003866c00b4
:1009b0006450e1002e0032006420e1003300320078
:1009c0006150e1002f0032006120e100310032006f
:1009d00085855500eb07b0000900200008042000c1
:1009e000050037000804440089844c000a003100e7
:1009f0000603430087834b000001530081815b00a5
:100a0000f8ff33000203be000800a0000804440001
:100a100089844c00f6ff3900c639dd00830173007c
:100a200001003200130020008904d1000884d300a3
:100a30000998a300050032000800a7000300a000e9
:100a40008904d1000884d3008b05e8008904d10013
:100a50000884d3000001eb000281d20034000700bb
:100a600001f0a1000cf0a70001f0a0007c0037000d
:100a70006420e1007e0032000801be000200be00da
:100a8000f7ff37006120e100790032006000b80014
:100a9000f3ff37000000200001f82700f0ff3700c7
:100aa0000001be00480007000470a70003f0a10089
:100ab0006509b100160032000d0035006828e1001c
:100ac00006003500f0ff2f00f1ff27000300e000d3
:100ad00013003b000100280000000500000040005a
:100ae000818048008502e900fcff3a0008003700d9
:100af000f88f420002003c008000eb00000005007f
:100b00008100d1000080d3008502e800fcff3a009c
:100b10000300e00002003b0060001000e0801800cd
:100b2000000006004f89de00820178008700370050
:100b300081002000618055000b003d000b0020006b
:100b400061fe2f000100e1001d0034008281710070
:100b5000610164008904d1000884d3000000e8002a
:100b6000faff3a0071002000610064000300700089
:100b7000020060000900320061044400e0844c007f
:100b80000988a500050032008b05e8006808e1002f
:100b900002003a008904d1000884d300f20f20003b
:100ba0000258e10005003d00c75ddd00f907b20015
:100bb0008980750008007800000006000bf8270007
:100bc0008b00780000000500c70ade00f107b200c4
:100bd000f50fb20008003200e1cf420002003200ff
:100be0000170a00024000500810f70000100320098
:100bf0000408050044000500810f700002003a005f
:100c0000140005008502e9000000400081c0480092
:100c1000fcff3b000170a000240005000004be00a2
:100c2000e9ff07000003be000405be000200be008d
:100c3000e5ff0700844f7500000006000200be00bb
:100c40006450e100050036006420e1000200360037
:100c50000968a30001003a000800be000160a0007e
:100c60004f0678004f05be004f04be00000006008e
:100c7000f0ff2f00f1ff2700f9ff3700889fbe002b
:100c80008a9fbe008c1f7800e4ff0700ebff330053
:100c900003866c006450e100240032006420e1000f
:100ca000270032006150e100220032006120e100a3
:100cb000210032008b854200eb07b1000134b800ff
:100cc000003ab8000804420089844a00013ab8009a
:100cd0000030b8008880400009014a000400330059
:100ce0000000400081804800020149008b05e900b6
:100cf000c909dd00830170000100320013002000eb
:100d0000c814de004814dd004709de001200b200fe
:100d1000c808de000884700085ff070001f0a1000c
:100d20000cf0a70001f0a000cdff37006120e1002a
:100d3000cfff32000801be000200be00f7ff3700ff
:100d40006150e100fcff3a00c9ff3700881f7800be
:100d5000030478000300e00007003d00600010007d
:100d6000e080180060011900e081190002003b00da
:100d700001f02d00030037000400070008f0a70071
:100d800001f0a0004f04780000000600889fbe001c
:100d90008a9fbe000082700004027100048271000c
:100da000260032000004be000200be006011b80040
:100db0006b092000950220000182cf000a00390053
:100dc0000541b1000082cf00070039000541b100a4
:100dd0000982cf00040039000541b1000882cf002c
:100de000010039000541b1000542520012003200f5
:100df0000a003b0082817100610164008100d10022
:100e00000080d3008984d3000884d3008b05e800d8
:100e10000442e800f7ff3a000700370008044400e6
:100e200089844c0000004800818048008b05e9005f
:100e30000442e900f9ff3a003dff07004f05be00fc
:100e40004f04be00000006000000fa006881570051
:100e5000cfb89700008a2100d00007000080fa0078
:100e600000000600889fbe008a9fbe008c9fbe00c7
:100e7000e18f2100f2c780000200e0000b003a0081
:100e800064814000f2c7880042c88800a100980031
:100e900031c88800214190000204a000a2409800bf
:100ea000614190000204a000e24098006704400005
:100eb0004244de004244dd0034c8800061912100dc
:100ec00069912300818454002d0020001100090045
:100ed0008d04d800800678000886e8000c064600dd
:100ee0008001eb0002003700130020000b027800a5
:100ef000a44090000108a300020032000a0037005d
:100f0000120a780014017800a24090000108a300a2
:100f1000fbff320088004200810f510002003900bf
:100f20000800e00041003d00940578000b00a1009e
:100f3000848f5500edff3e00e18f5100eaff3a003b
:100f40008d0f540002003600890f54001300390041
:100f50006141b8006148b900b4ff2f0005002000ce
:100f60000000520081805a00800f5100818f59008b
:100f7000020035006405440009003700609121003b
:100f80009a9123000005550008054500110009004d
:100f90000985d8008985b900010037000c05780063
:100fa0000a007800ebfd0700e10f400005003a0061
:100fb000640544000a007800e6fd0700e10f4000e8
:100fc0002c00320041c880008008780041c88000b1
:100fd000e481400021419000830f50000200320064
:100fe0000204a000010037000204a100a240980002
:100ff000640555000a0540000a0878004ac88800c0
:10100000e18f2100010d780042c88000a2409000cd
:101010000104a00021419800a04090000104a1001b
:10102000214098008001eb00b0ff370031c88800f4
:10103000810f5100080036001101780091019000e5
:1010400052c8880063c88800940878000041eb000b
:1010500031c88000a240980033c88000030a78009d
:10106000a44090000104a0002142980064004200c6
:10107000010037000000eb004f06be004f05be0028
:101080004f04be00000006000000e000080032002f
:101090006400500031c88000810f50000100310011
:1010a00030c88800a04090000104a10021409800b1
:1010b00000000600881f78000102b8006123b80014
:1010c0000001eb00860f5200878f5a000d003a0096
:1010d000808cb9000800780062ff07000001eb0077
:1010e0000000e000070032008000780002003700b6
:1010f0008058eb000804e9000800e000fcff3a001b
:1011000000017800020078004f047800000006001b
:10111000889fbe000004be00050037000000fb00f1
:1011200089007800c5020700e10f4000040032008a
:10113000384078000004e000f8ff3a000000eb00bf
:101140004f04be0000000600881f7800018a2100bd
:10115000efff070000047800018a2100a0002000b2
:10116000b6020700080078004f047800000006006f
:10117000018a2100b1023700d001900002815100a4
:101180004240a900030034001001780001497800b2
:101190000208e8000100780000000600f68747001a
:1011a000889fbe008a9fbe008c9fbe008e1f780065
:1011b00000057800a1b79f00020778008004eb00cb
:1011c00092023700afb097008100e800a1b79f00fe
:1011d00051c2b300814f500003003a00afb09700f6
:1011e0000004eb0011003700ba0090000000fb0083
:1011f0000168a30007003200090178008000780030
:101200000a007800dcff07000000e00005003a005b
:101210007e0237008a00780088020700e10f400054
:101220007a0232008904e800780237000100780071
:1012300031417800d3c2b300834f51000c0032001b
:1012400007003c00edc15100834f51000a003200fd
:10125000ebc14100834f51000d003a0008003700f8
:1012600003c3b300834f510009003a000600370062
:101270000830a000edff37000800a000ebff3700aa
:101280000810a000e9ff37000820a000e7ff3700a2
:101290000818a300010032000800a1000838a300cc
:1012a000010032000820a1008200fb000103b10010
:1012b000e98f50000c003e00000178008000eb0038
:1012c000ea08b900b200fb000103b10080804000d1
:1012d000020078009201fb000303b100e98f510086
:1012e000f7ff3600060037008000eb00a3c2b30012
:1012f000834f510002003a00ce0078000000e80061
:101300008005eb00e2c2b300904f110008003a00e4
:1013100008e0a00064415100d04f110002003200eb
:101320000001780006003700ce0578000000e800d4
:101330000001780008003700ea58b90080854100b4
:1013400002007800b201fb000303b100e98f5100f5
:10135000f9ff3600f6ff370032407800a2b79f0051
:10136000c3c6b300834f5000250032000f003c007d
:1013700032c6b300824f50008800320004003c00a7
:101380000004e000260232006b4151000f003700dc
:1013900042c6b300824f5000170032006541410041
:1013a000824f500094003a001300370032c7b30058
:1013b000824f50001b00320007003c006441510086
:1013c000824f5000100032000241e800824f50006e
:1013d00089003a000f00370052c7b300824f500017
:1013e0008a00320063414100824f500082003a007f
:1013f000e0df9f0009003700e0df9f008500370035
:101400000840a000d4ff3700e0df9f000860a00084
:1014100080003700e0df9f000850a0000870a000a7
:101420007c003700e0df9f004e0078000006780067
:101430000000e00001003a00ac8321000c017800bc
:101440000000eb00010037000000e80080014100cf
:101450001304e000fcff3a00800678000b00e00077
:10146000030032008d8f5500010031008b0678009b
:101470008005eb008d8f5000010036008d855000f7
:10148000680464002a003a00110037003a00900016
:101490000068a30007003200090178000102200063
:1014a0000a00780034ff07000000e00006003a0060
:1014b000060037008a00780000022000df010700e4
:1014c000e10f4000010032008904e8008b05e900cb
:1014d0000b00e000edff3a008085eb0014003700c0
:1014e0003a0090000068a300090032000c00780068
:1014f000b000fb0000067800090178000a007800bf
:101500001dff07000000e00008003a000800370057
:101510008c0078003100fb00010678008a0078001a
:10152000c6010700e10f4000010032008904e80015
:101530000d0078008006e9000000e000e8ff3a00b6
:101540000800e000b1013200110037003a009000bd
:101550000068a300070032000901780001022000a2
:101560000a00780004ff07000000e00006003a00cf
:10157000060037008a00780000022000af01070053
:10158000e10f4000010032008904e8008b05e9000a
:101590000b00e000edff3a009c0137004e0178009f
:1015a000cf91de00c81ade004818dd004812de00c8
:1015b00004027000e4df9f000848a3000800320026
:1015c0000404e00006003200e14f42000400320053
:1015d000f4df9f0082e79f002d002000020037000b
:1015e000f2df9f001d002000e2fd2f000f014100ef
:1015f0000206e80099ff3700e0df9f00ecfd2f00b6
:101600000f0646001d00200094ff3700e0df9f001a
:10161000080cb30008017800020cb20070006400ee
:101620000200e0000f003a000000e0000400320079
:10163000640757001e0678009e06900002003700df
:101640004e067800cfe6de00e00f5600e08f5e0029
:101650000c003d003800b30060061600e0861e0056
:10166000080037000000e000040032006407570063
:101670001e0678009e069000020037004e06780095
:101680008006eb000b00e00005003a008c85760038
:101690000bf0a7008b05ea008b05e900cf5dde00ab
:1016a00088017800030cb200e3b79f00000420001b
:1016b000808f51002300320003003c000300e00053
:1016c000080032002d003700000820006fb297009c
:1016d000800f52000d003200000c2000800f5200dd
:1016e00026003a002284210010c0b30064014100aa
:1016f000b20f5600a28f5e001f0039000040e800c4
:10170000ea4f5000f9ff3a001b00370010c0b30049
:101710000201200003002000820f5600838f5e002c
:1017200015003900441add00cc11de00830172007f
:101730004411dd000040e800e84f5000f6ff3a0099
:101740000d00370010c0b30082002000030020000d
:10175000820f5600838f5e0007003900431add00b8
:10176000cd11de00830172004311dd000040e8006e
:10177000eb4f5000f6ff3a00e0df9f006fd9970073
:101780000200fb008b0f500002003d00ebdf9f00ca
:1017900003003700808f550001003d008005780070
:1017a0000100e00003003200630064000100320029
:1017b0008100e90008e8a300050032008b8f50008b
:1017c000020034008b805000010037008000eb00e5
:1017d000efd997000300fb000002eb00d4b79f0095
:1017e000808f50000200340000805000d0b79f006e
:1017f0000828a30040003200610164000818a3001b
:101800000f0032003a0090000068a300060032008a
:10181000b10220000200e000010032008180e800f7
:10182000090178000d003700b00220000200e0003e
:10183000010032000080e8008a0078000e003700c6
:101840000200e000100032003a0090000068a3009f
:101850000700320009017800010220000a00780028
:1018600045fe07000000e00006003a0006003700d1
:101870008a00780000022000f0000700e10f40001d
:10188000010032008904e8005fb097000000e0002a
:101890005a003200bcb79f00cdb79f008006780089
:1018a0003a0090000068a3000700320009017800a8
:1018b000010320000a0078002ffe07000000e0006e
:1018c00006003a00060037008a0078000003200076
:1018d000da000700e10f4000010032008904e8004f
:1018e0008d06e900eeff3a00ddb79f003fb6970096
:1018f000cfb6970041003700dfb197000300e0004a
:101900001a0032000838a30018003a00bcb79f0044
:10191000cdb79f00830678003a0090000068a300ce
:101920000700320009017800010220000a00780057
:1019300011fe07000000e00006003a000600370034
:101940008a00780000022000bc000700e10f400080
:10195000010032008904e8008d06e900eeff3a003c
:10196000ddb79f003fb69700cfb6970061016400d6
:101970000818a3000f0032003a0090000068a3008e
:1019800006003200b10220000200e0000100320037
:101990008180e800090178000d003700b0022000c6
:1019a0000200e000010032000080e8008a007800b8
:1019b0000e0037000200e000100032003a009000f4
:1019c0000068a3000700320009017800010220002e
:1019d0000a007800e8fd07000000e00006003a0079
:1019e000060037008a0078000002200093000700fc
:1019f000e10f4000010032008904e8000b03e90018
:101a0000e331b900b2b79f004233dd0020842100ea
:101a1000000343008e01780093b79f000807780009
:101a2000060478005d0037008b05e9000004200003
:101a30006fb29700800f52003900320003003c0063
:101a40000400e000080032003f00370000082000da
:101a5000efb09700808f500021003200000c200072
:101a6000808f500038003a000e48a3001100320069
:101a700018027800980290000401be000c00be001d
:101a8000f4b79f0085bf9f00ee000700e0df9f00d6
:101a90000000fb00cf80de007fb297008fba970076
:101aa0000401be00f70007000006560081865e00b4
:101ab0000700370018017800110009000286d800dd
:101ac000a2002000110009000280d800e1df9f0081
:101ad0006fd997000243b000e2df9f001a00370081
:101ae000908221000e58a300010032008081210065
:101af00021842100810054000c01be008100e90016
:101b0000030033008301d1000281d300fbff3700c3
:101b1000ef0061000100400010407800090037002c
:101b20000c00be003fb297000402e900030033003e
:101b30008100d1000080d300fbff370067406000c8
:101b40000043b000e0df9f00ba0090006fd997001b
:101b50000200fb000168a3000700320009017800c1
:101b6000800078000a00780083fd07000000e00094
:101b700005003a00050037008a0078002f000700b2
:101b8000e10f4000010032008904e8003fb29700f5
:101b900063025200b4b79f00640454000b00e000dd
:101ba000a1ff3a000e0478001fb797000838a30081
:101bb000160032005fb097000000e0001300340010
:101bc000000478003a0090000068a300070032008b
:101bd00009017800010220000a00780066fd070074
:101be0000000e00006003a00060037008a00780096
:101bf0000002200011000700e10f40000100320048
:101c00008904e8000804e900eeff3a00afb097004d
:101c100011407800e0df9f000004e00069fd3a0019
:101c2000090078004f0778004f06be004f05be0040
:101c30004f04be006f01b10000000600889fbe0087
:101c400001047800b80090008084eb000118a30024
:101c50003a003200180190000198a30002003a00f7
:101c60000200e00035003a000190a0003104980025
:101c700080047800f90fb2000200e00002003a0090
:101c800028009000000c7800ea8f540005003a000c
:101c90000178a30003003a0088007800d0002000fb
:101ca000e6ff070018009000d8009000810f500058
:101cb0000b0032000000e8001004980018007800c3
:101cc00009487800000ce80011c0b300e090210042
:101cd00001487800ea8f540018003a0005003700e8
:101ce0008800780009407800170007008004780019
:101cf00012003700380090000088a3000f00320067
:101d000018019000a800900048009000b2fa070067
:101d100098009000810f50000400320038009000bd
:101d20000003b300300498008084eb000000eb0057
:101d30001004980028009000000c7800090078003a
:101d40004f04be00000006000200fa00889fbe009b
:101d5000a0ff9f0001047800380090000068a300f5
:101d600033003a00e200600005003a000003b300cf
:101d700030049800110498000080eb002e0037001a
:101d8000d80490000900e00006003a00120020008c
:101d9000e6805700480090008ffa07001904980069
:101da00023003700a80090000100e00008003a007e
:101db0001191210021049800010c780021002000dd
:101dc00051049800110498000030a00030049800dd
:101dd00018019000a8009000480090007efa0700cb
:101de000280090008080eb0011049800aff8970065
:101df00001487800000ce8002ff89700ea4f5000e7
:101e00000b003a00380090000088a3000800320060
:101e100018019000a8009000480090006efa07009a
:101e20000000eb0010049800a8009000010c78005e
:101e3000aff897000100fb004f04be000080fa00dd
:101e4000000006006022b800060220000000d0005a
:101e50008180d2000482d2008582d2000000a000de
:101e60000202520083825a00030031000202420043
:101e700083824a000000a1000603e900f3ff3a0054
:101e800000000600020ab900001bb9000200b800f9
:0c1e9000810042008100430000000600b9
:020000040000fa
:101e9c0057410000524e0000494e0000473a0000e6
:101eac0020740000617300006b20000025640000aa
:101ebc002065000078690000746500006420000053
:101ecc007769000074680000206300006f640000f4
:101edc0065200000256400000a0000004552000047
:101eec00524f0000523a000020740000696d00004f
:101efc0065720000206e00006f7400002066000008
:101f0c006f7500006e640000210000004552000057
:101f1c00524f0000523a000020680000656100003a
:101f2c00702000006e6f000074200000636f0000d2
:101f3c006e66000069670000757200006564000041
:101f4c002e00000045520000524f0000523a000093
:101f5c0020630000616e00006e6f000074200000b2
:101f6c00637200006561000074650000206e000063
:101f7c00756c00006c20000074610000736b000035
:101f8c00210000005379000073740000656d00009f
:101f9c002072000065610000647900002e000000d2
:101fac0045520000524f0000523a000020460000fb
:101fbc004154000033320000206900006e690000bb
:101fcc007420000066610000696c0000656400000c
:101fdc002100000054450000535400002e54000012
:101fec0058540000000000005472000061700000a2
:101ffc00206500006e6300006f7500006e740000b9
:10200c006572000065640000202d00002065000052
:10201c00727200006f720000206300006f64000099
:10202c006520000025640000000000002020000056
:10203c002020000020200000202000002020000094
:10204c00002500007820000000250000782000000a
:10205c00200000000a000000307800002578000005
:10206c000030000025780000200000000a0000006d
:10207c00676f0000742000006e6100006d65000049
:0c208c0020250000730a00000000000086
:020000040000fa
:1020980080007800100020000100e00008003200f5
:1020a8000000eb000100e00001003d00ef8040006f
:1020b800c488de000000e8000100e000f9ff3a00f3
:1020c80000000600889fbe008a1f7800000578007f
:1020d800150ea9001a407800a70207008a047800a4
:1020e8000004eb0059407800a30207000804e80048
:1020f800e40f5400fbff3a005a4090009e0207008c
:102108000004eb0009c8b3005a06200000c0eb0029
:1021180099020700894f5000040036000804e800bf
:102128008a0f5400f9ff3a0008003700150ea8007e
:1021380031062000810f54000100340000c0eb007c
:102148004f0578004f04be0000000600150ea800d9
:10215800faff3700e8874700889fbe008a9fbe00c5
:102168008e1f78008005780001057800150ea900fb
:102178001a407800800207008a0478000004eb0007
:10218800594078007c0207000804e800e40f540076
:10219800fbff3a005a409000770207000004eb006a
:1021a80009c8b3005a06200000c0eb0072020700fd
:1021b800894f5000040036000804e8008a0f5400d4
:1021c800f9ff3a000300370031062000810f540060
:1021d8000300340000c0eb0080f79f0009003700bf
:1021e80080f79f00708757006c84570080c4eb000d
:1021f8000940780060020700006f7800880f5700d8
:10220800fbff3a00150ea800708057000400090073
:10221800b05d78005b00b1000b0078004f077800d4
:102228004f05be004f04be008f00b100000006003d
:10223800e6874700889fbe008a1f78008e1f7800b7
:102248006c845700009cbe0082047800150ea9001b
:10225800e088210010407800470207006c8757008b
:1022680048407800440207008e0f5400fcff3a00f3
:1022780030892100104078003f02070000c4eb00bd
:10228800084078003c0207000004e000fcff35002d
:1022980000c4eb000840780037020700e24f400016
:1022a800fcff3a00090478000007eb0080c4eb004b
:1022b8000a202000094078002f020700005c7800ff
:1022c8000e07e8008a0f5700faff3a00150ea8001b
:1022d8004f0778004f0578004f04be006f00b1002b
:1022e800000006000600fa00889fbe008a1f7800da
:1022f800c0ff2f006222b600a800200080c4eb00b7
:10230800094078001c0207000804e900fcff3a00b5
:10231800a08621006bff070080407800e0cfb30063
:10232800e1cf400024003200d08621008b02070054
:10233800618721006c80570086ff0700e0cfb3005b
:10234800cff09700e1cf40001b003200c987210081
:102358005ac6b300090078005aff070020882100f8
:1023680058ff07000004e000050032000844e800b8
:102378008a4f5400f7ff3a00e0cfb3000e00370051
:10238800e0cfb30031c6b300814f54000a003e00cd
:10239800818821006c8057006eff0700e0cfb300f2
:1023a800cff09700e1cf400003003200300020005a
:1023b8006222b7000040eb004f0578004f04be00d2
:1023c8000080fa0000000600e6874700889fbe00ec
:1023d8008a9fbe008c9fbe008e1f7800f0b79f00ba
:1023e800c0012900801f780095fa07008f87e9004f
:1023f8000004eb00b90229007a02290008007800dd
:1024080023ff0700e20f500005003a00881f7800fc
:102418008a1f78008afa0700e4875700040037000b
:10242800881f7800891f780085fa0700e48757001d
:102438000804e80000022000800f5400efff3a0073
:10244800000329003efb07000080eb0080bf9f00cf
:102458000b0220007d032900ee0220008fb89700b0
:102468008104e800891f780020032900801f780074
:1024780073fa0700e48757000004eb0003003700f5
:102488000b00780038fb07000804e8000900780012
:10249800fffe070068001000800f5400f8ff3500a9
:1024a800ffb097000fb89700008640000c05780031
:1024b8000004eb00da84fb0009007800f4fe070052
:1024c800e20f500006003a00891f780071022900c7
:1024d800811f78005afa0700e48757000400370084
:1024e800891f78008d1f780055fa0700e487570088
:1024f8000804e8008b0f5400eeff3a00900020001b
:1025080019fb07008004eb005c84fb0008007800de
:1025180061f807000000e00001003a000e047800ae
:102528000800780010fb07008904e8008b8f54002e
:10253800f5ff3a00a00020000bfb07000fb897003a
:102548000002b00080bf9f00f01f20008fb89700e6
:10255800808f5000c1ff3a004f0778004f06be0039
:102568004f05be004f04be006f00b100000006001a
:102578009080800030009000908088000000060065
:10258800a08b210063f80700e10f5000080032001b
:10259800801f78009080800010009000801f7800d5
:1025a800e0f42800801f780025fa0700e687570026
:1025b800efff0700918080004100900091007800b3
:1025c80001000100000006000001780090808000f2
:1025d80090019000040037003000900090009000b7
:1025e800838f50000400320090009000828f5000ca
:1025f800f9ff3a00010037000000eb000000060078
:1026080010002000f0ff07000000e00004003a007e
:1026180040f72800cafa07000080eb0002003700e4
:10262800400090001000780000000600889fbe005f
:102638008a1f78000004be0002057800a000200070
:1026480006fa07000000e0000c00320008087800d5
:10265800818080003100980091808000b00098004f
:1026680029009800a18080001101780012009800cc
:102678008208e8004a009800908088004f0578009a
:102688004f04be00000006002100200010002000ba
:1026980086fa0700000178008000eb0080372100ef
:1026a800e2ff070000000600e10f500001003a00b9
:1026b800f5ff07000000eb000000060001017800ac
:1026c80011002000d9ff070000000600300190002b
:1026d800b20098006afa070000000600800078003f
:1026e800a08b2100f2f707009000780002f02f007d
:1026f800828f5000020036000008eb00010037000e
:102708000108e8000000eb00f4ff070000000600e5
:102718000000eb00f1ff070000000600881f7800aa
:102728000004780021002000100020005ffa070054
:10273800a08088000000e00004003a00c0f82800eb
:102748007ffa07000080eb001a003700a000200085
:10275800c2f907000000e00006003a0080fa2800ed
:10276800801f7800b6f907008f87e900e0ff2f0087
:1027780010003700c13821000108780030009800a7
:102788008000eb0021009800a28080009201780070
:10279800130098000309e800410098009080880021
:1027a8008080880008007800bfff070074ff0700da
:1027b8000000eb004f04780000000600c9fe070087
:1027c800804078000080eb00e2cf400050003200eb
:1027d8000030ef000230ef00822121006000b800d5
:1027e80093fe0700e03d21001041780041002100e0
:1027f800824878000000e800104278005300210069
:10280800844978000000e8009040780065002100c5
:10281800814a78000000e8009041780072002100a9
:1028280003497800824121002080800031808000a7
:102838007ffe07006042210090427800840021005a
:10284800054a78000000e800104178009100210056
:10285800824878000a70ef000b70ef00208080003b
:102868003180800044808000558080000402400050
:102878008582480044808800558088008261210054
:102888000400be006afe0700c043210090407800a3
:10289800c5002100814a78000000e80090417800d6
:1028a800d2002100034978000000e8009042780037
:1028b800e4002100054a78000000e8001041780093
:1028c800f1002100824878006080800071808000db
:1028d80000004000818048004280800053808000d2
:1028e8000002410081824900648088007580880068
:1028f8000400be00820121004dfe0700c00329002c
:102908000ffa070080012100affe07000000eb006e
:10291800000006000c00fa00889fbe008a9fbe00d7
:102928008801210009202000888444000045eb002c
:10293800eb03290051ceb30098cf10000c003200f1
:10294800b84890000158a300090032000a000900a5
:10295800385f7800be00b100b800b1003a4f980067
:102968008e1f78008b1f780035f90700e487570021
:102978000802b000890f5400eeff3a000080eb0017
:102988004f05be004f04be000080fa00000006009c
:10299800000006000080eb00000006000080eb004d
:1029a800000006000080eb00000006000080eb003d
:1029b80000000600b013200010138800100020004b
:1029c80020138800c00028000013880000000600bb
:1029d8006022ab00feff3a006342ab000300320006
:1029e8001000780040138800020037001080fb00b8
:1029f80040138800020220000313800003006100d6
:102a0800fdff3a006342ab00030032004013800030
:102a18008008780002003700401380008048780062
:102a2800000006000400fa00889fbe008a1f780094
:102a38008001eb00b3bf9f00c3bf9f00064020008a
:102a480013138000030363000603ea004f33de001c
:102a580018002000880f530002003a008100d100be
:102a6800280020000000e00003003a00e882570038
:102a78008004eb00020037008804780080027800a8
:102a88000200e00002003a006a8157000004eb00ef
:102a98006022ab00feff3a000000eb008001eb0073
:102aa8000100e0002900320007022000e78f5100f2
:102ab8000a003e00e10f530003003a0015027800b7
:102ac80044138800020037001582fb004413880075
:102ad800898242000000e8008301e8000a138000b0
:102ae8000a82630009003a00e10f530003003a002c
:102af8004413800004097800020037004413800062
:102b080004497800080141008301e900808f5000e2
:102b1800e6ff3e000d0037000513800085006200c7
:102b2800fdff3a00e10f530003003a004a1380000a
:102b38000a09780002003700411380000149780033
:102b4800080141008301e900010037000402200068
:102b58000300e000040032000513800085006200d5
:102b6800edff3a00efff37004f0578004f04be0035
:102b78000080fa00000006000400fa00e0ff9f0051
:102b8800e48057000f80e90091ff07004ff8970095
:102b98000080fa0000000600a2ff070000000600ff
:102ba8000013800000000600210f20002202800090
:102bb800828060008080700021028800000006008a
:102bc800710520000001eb00600420002374200040
:102bd800804978008149780082497800200c2300d8
:102be800203a88004827ef004e27ef009008200081
:102bf800303a88004420a90044c0a90044e0a90054
:102c08004480a9000000060008010700ecff070047
:102c1800a701070067ff0700650107009801070083
:102c28003b01070000022000dfff0700000006004c
:102c3800003a8000000006004f00de000000060099
:102c480001002400010060000000ea004f00de00df
:102c5800000006004900de00610060000000060078
:102c68004700de0061006000000006004600de004c
:102c780061006000000006004400de0061006000a2
:102c8800000006000080ea004007b600003a88000d
:102c980000000600881f7800e5ff070000047800a0
:102ca80008007800e4ff07000004e000020032009a
:102cb80000002800f3ff070008007800e0ff070085
:102cc8000004e0000200320000002400edff0700cd
:102cd80008007800dfff07000004e000020032006f
:102ce80000202000e7ff070008007800dcff07004d
:102cf8000004e0000200320000082000e1ff0700a5
:102d080008007800d9ff07000004e0000200320044
:102d180000042000dbff070008007800d6ff07004a
:102d28000004e0000200320000012000d5ff070087
:102d38004f047800000006004027ef00000006005e
:102d48007f00600001fe2f00421980008280600031
:102d580081007000411988000000060060088800a2
:102d68000e21ef0011e1a8000110200002408000b0
:102d780002806000fdff32000108a9000000060083
:102d8800889fbe008a9fbe008005780001057800f4
:102d98000004eb000a00e000080034008b0478000f
:102da8000b010700805c78000804e800880f5500d4
:102db80002003400ea4f5000f9ff3a000884450049
:102dc8000804e800004ceb004f05be004f04be00ad
:102dd800000006000004e000030032000000eb00e1
:102de800d7ff07000200370010002000d4ff0700bb
:102df8002023a800803e20000000e900feff3a00e2
:102e08002023a9002003ab00feff32000018800039
:102e180000000600e4874700889fbe008a9fbe0026
:102e28008c9fbe008e1f780000057800010778008f
:102e380082bf9f0003047800840478006140b900d1
:102e480036f707000006be000e005500cf80de00f2
:102e580032f707000005be0008805400cf80de006e
:102e68002ef707000004be008fb897000e805000b0
:102e7800cf80de0029f707000001be000800be0071
:102e8800c3f607000001be000a00be0079f707007c
:102e98000001be000c00be0060f60700fef6070049
:102ea8004f0778004f06be004f05be004f04be0016
:082eb8004f00b100000006000c
:020000040000fa
:102ec000de18000020000000800000001610000046
:102ed0000200000082000000ffff0000ba1800009e
:102ee0002400000080000000101000000600000018
:102ef00080000000181000000008000080000000a2
:102f00000010000010000000800000006a1800009f
:102f10002a00000082000000400000000000950030
:102f200041000000000000004800000001aa8700e6
:102f30007700000000000000694000000000000071
:102f40007a000000000000005100000000000000b6
:102f5000fe1800001000000080000000941800001f
:102f600026000000820000000f190000000f190069
:102f700009000000000200001119000000111900f2
:102f80000e02010000000000000000000000000030
:102f90000602020000000000941800000e19000054
:102fa0000600000080000000181800005200000019
:102fb00082000000303132003334350036373800bb
:102fc000394142004344450046003000313233006d
:102fd0003435360037383900616263006465660055
:102fe00000286e00756c6c002900000001000000d4
:102ff000000a00000000640000000000e803000078
:10300000001027000000a0008601000040420f00d1
:103010000080960098000000e1f5050000ca9a00c3
:103020003b000000141900000200000080000000b6
:04303000000000009c
:020000040000fa
:10303400042eef00004e2300a0708800f000200052
:1030440000708800f0212f00807088000c2eef00a3
:103054001c2eef000a2eef001a2eef00062eef00b2
:10306400162eef003000200070708800c000200091
:10307400f0708800f20b2000103a8000000161001b
:10308400600420007105200023742000804978002a
:10309400814978008249780002f82f006436800064
:1030a40084016100c302b3006336880003fc2f006f
:1030b40005348000858161000300a000033488008a
:1030c400f30f2c00253480000582610004b0a000b9
:1030d40024348800443480008481610004902000fa
:1030e4000302720044348800253680000501610023
:1030f4004202b30022368800123a80000260a00027
:10310400237420008049780081497800824978003e
:10311400000006000a21ef000e21ef000621ef0057
:1031240000a2270060088800800328008008880027
:10313400000006000108ab00010032000108a900ec
:10314400000006006008880071088800000006007e
:1031540070088000620880008000eb00c000dd0081
:10316400000020008001eb000200700083807000ea
:1031740000000600410888003008880000000600ae
:1031840032088000400880008000eb00c000dd00b1
:10319400000020008001eb000200700083807000ba
:1031a4000000060011e1a8000000060011e1a900da
:1031b4000000060080002000001188002222ef0099
:1031c4007a0040004011880021e2a8002342a800b0
:1031d400000006002202ab00feff32002222ab00f8
:1031e400010032002222a9003011800000000600f4
:1031f400022020001311800083006100fdff3a00cb
:103204000080fb00201188000000060010118000df
:10321400000006007dfe070080fc2800c9f70700b7
:1032240067fd07000000e0000500320060fd280093
:10323400801f780003f707000140fe008f87e90034
:1032440000ff2800b4fd07000140fe000080eb00f1
:1032540000000600e08d210080077800780040001f
:103264000001880000000600b0808800801f7800fc
:10327400a0ff2800801f7800f2f60700e4875700bb
:10328400ffff370000002800001988002223ef0008
:1032940010002000201988002823ef002e23ef00bf
:1032a4003023ef002623ef000000060001a8a90048
:0832b400000006000000060006
:020000040000fa
:02000004000af0
:04afe000cdff0000a1
:020000040000fa
:02000004000af0
:04afe400cfff00009b
:020000040000fa
:02000004000af0
:04afe8007fff0000e7
:020000040000fa
:02000004000af0
:04afec009bff0000c7
:020000040000fa
:02000004000af0
:04aff000f9ff000065
:020000040000fa
:02000004000af0
:04aff400ffff00005b
:00000001FF
