:020000040000fa
:080000000002040000000000f2
:020000040000fa
:04000800fa020000f8
:020000040000fa
:04000c000c030000e1
:020000040000fa
:0400100024030000c5
:020000040000fa
:0400140002030000e3
:020000040000fa
:0400180014030000cd
:020000040000fa
:04001c001c030000c1
:020000040000fa
:040020002c030000ad
:020000040000fa
:040024004403000091
:020000040000fa
:04002800440300008d
:020000040000fa
:04002c004403000089
:020000040000fa
:040030004403000085
:020000040000fa
:040034004403000081
:020000040000fa
:04003800440300007d
:020000040000fa
:04003c004403000079
:020000040000fa
:040040004403000075
:020000040000fa
:040044004403000071
:020000040000fa
:04004800440300006d
:020000040000fa
:04004c004403000069
:020000040000fa
:040050004403000065
:020000040000fa
:040054004403000061
:020000040000fa
:04005800440300005d
:020000040000fa
:04005c004403000059
:020000040000fa
:040060004403000055
:020000040000fa
:040064004403000051
:020000040000fa
:04006800440300004d
:020000040000fa
:04006c004403000049
:020000040000fa
:040070004403000045
:020000040000fa
:040074004403000041
:020000040000fa
:04007800440300003d
:020000040000fa
:04007c004403000039
:020000040000fa
:040080004403000035
:020000040000fa
:040084004403000031
:020000040000fa
:04008800440300002d
:020000040000fa
:04008c004403000029
:020000040000fa
:040090004403000025
:020000040000fa
:040094004403000021
:020000040000fa
:04009800440300001d
:020000040000fa
:04009c004403000019
:020000040000fa
:0400a0004403000015
:020000040000fa
:0400a4004403000011
:020000040000fa
:0400a800440300000d
:020000040000fa
:0400ac004403000009
:020000040000fa
:0400b0004403000005
:020000040000fa
:0400b4004403000001
:020000040000fa
:0400b80044030000fd
:020000040000fa
:0400bc0044030000f9
:020000040000fa
:0400c00044030000f5
:020000040000fa
:0400c40044030000f1
:020000040000fa
:0400c80044030000ed
:020000040000fa
:0400cc0044030000e9
:020000040000fa
:0400d00044030000e5
:020000040000fa
:0400d40044030000e1
:020000040000fa
:0400d80044030000dd
:020000040000fa
:0400dc0044030000d9
:020000040000fa
:0400e00044030000d5
:020000040000fa
:0400e40044030000d1
:020000040000fa
:0400e80044030000cd
:020000040000fa
:0400ec0044030000c9
:020000040000fa
:0400f00044030000c5
:020000040000fa
:0400f40044030000c1
:020000040000fa
:0400f80044030000bd
:020000040000fa
:0400fc0044030000b9
:020000040000fa
:0401000044030000b4
:020000040000fa
:0401040044030000b0
:020000040000fa
:0401080044030000ac
:020000040000fa
:04010c0044030000a8
:020000040000fa
:0401100044030000a4
:020000040000fa
:0401140044030000a0
:020000040000fa
:04011800440300009c
:020000040000fa
:04011c004403000098
:020000040000fa
:040120004403000094
:020000040000fa
:040124004403000090
:020000040000fa
:04012800440300008c
:020000040000fa
:04012c004403000088
:020000040000fa
:040130004403000084
:020000040000fa
:040134004403000080
:020000040000fa
:04013800440300007c
:020000040000fa
:04013c004403000078
:020000040000fa
:040140004403000074
:020000040000fa
:040144004403000070
:020000040000fa
:04014800440300006c
:020000040000fa
:04014c004403000068
:020000040000fa
:040150004403000064
:020000040000fa
:040154004403000060
:020000040000fa
:04015800440300005c
:020000040000fa
:04015c004403000058
:020000040000fa
:040160004403000054
:020000040000fa
:040164004403000050
:020000040000fa
:04016800440300004c
:020000040000fa
:04016c004403000048
:020000040000fa
:040170004403000044
:020000040000fa
:040174004403000040
:020000040000fa
:04017800440300003c
:020000040000fa
:04017c004403000038
:020000040000fa
:040180004403000034
:020000040000fa
:040184004403000030
:020000040000fa
:04018800440300002c
:020000040000fa
:04018c004403000028
:020000040000fa
:040190004403000024
:020000040000fa
:040194004403000020
:020000040000fa
:04019800440300001c
:020000040000fa
:04019c004403000018
:020000040000fa
:0401a0004403000014
:020000040000fa
:0401a4004403000010
:020000040000fa
:0401a800440300000c
:020000040000fa
:0401ac004403000008
:020000040000fa
:0401b0004403000004
:020000040000fa
:0401b4004403000000
:020000040000fa
:0401b80044030000fc
:020000040000fa
:0401bc0044030000f8
:020000040000fa
:0401c00044030000f4
:020000040000fa
:0401c40044030000f0
:020000040000fa
:0401c80044030000ec
:020000040000fa
:0401cc0044030000e8
:020000040000fa
:0401d00044030000e4
:020000040000fa
:0401d40044030000e0
:020000040000fa
:0401d80044030000dc
:020000040000fa
:0401dc0044030000d8
:020000040000fa
:0401e00044030000d4
:020000040000fa
:0401e40044030000d0
:020000040000fa
:0401e80044030000cc
:020000040000fa
:0401ec0044030000c8
:020000040000fa
:0401f00044030000c4
:020000040000fa
:0401f40044030000c0
:020000040000fa
:0401f80044030000bc
:020000040000fa
:0401fc0044030000b8
:020000040000fa
:0402000044030000b3
:020000040000fa
:0402040044030000af
:020000040000fa
:0402080044030000ab
:020000040000fa
:04020c0044030000a7
:020000040000fa
:0402100044030000a3
:020000040000fa
:04021400440300009f
:020000040000fa
:04021800440300009b
:020000040000fa
:04021c004403000097
:020000040000fa
:040220004403000093
:020000040000fa
:04022400440300008f
:020000040000fa
:04022800440300008b
:020000040000fa
:04022c004403000087
:020000040000fa
:040230004403000083
:020000040000fa
:04023400440300007f
:020000040000fa
:04023800440300007b
:020000040000fa
:04023c004403000077
:020000040000fa
:040240004403000073
:020000040000fa
:04024400440300006f
:020000040000fa
:04024800440300006b
:020000040000fa
:04024c004403000067
:020000040000fa
:040250004403000063
:020000040000fa
:04025400440300005f
:020000040000fa
:04025800440300005b
:020000040000fa
:04025c004403000057
:020000040000fa
:040260004403000053
:020000040000fa
:04026400440300004f
:020000040000fa
:04026800440300004b
:020000040000fa
:04026c004403000047
:020000040000fa
:040270004403000043
:020000040000fa
:04027400440300003f
:020000040000fa
:04027800440300003b
:020000040000fa
:04027c004403000037
:020000040000fa
:040280004403000033
:020000040000fa
:100400006f0c21000eff27000e0188000000000085
:10041000000020000000e000020032000001200087
:100420002002880014000700aa0007000000e00076
:1004300003003a0040a42100010020000200370020
:100440000000200001002000810f70000100320038
:100450000f000700000020000000e0000200320052
:100460000000020000000000ac17020000000000c5
:100470000040da000000fe00405620000000e000ce
:1004800002003200002020009001880000000600d9
:10049000a1028800800478000000eb001f003700f4
:1004a000e284440054a0b4009905ba00e2844400f8
:1004b00054a0b4009906ba00e284440054a0b400e9
:1004c0000006eb00476fde00fd07b200ae018800ba
:1004d000636ce10003003a000ad801000000eb0061
:1004e0000e003700606ce10008003a00004deb00a0
:1004f0000a05e800020039003420ec000af0a000f0
:100500008b05e900f9ff3e00040037006168e10057
:10051000010032000086eb000b00070019c7ba008b
:100520000e04e0001905ba0003003a000a00e000da
:10053000dbff3a0000000600fe07b200ae028800b2
:100540008a047800f5ff37000cd0a300e20f4d00bd
:100550001c00390089027800354dba000a05e80010
:10056000020039003420ec000af0a0008b05e900fd
:100570000f003200254dba000a05e80002003900dc
:100580003420ec000af0a0008b05e90008003200de
:100590000c00e0000600320015cdba000a05e800a4
:1005a000020039003420ec000af0a0008b05e900bd
:1005b0008984e80054a0b4000b00e000e2ff3a0098
:1005c000000006009902ba00055d78008b05e9007d
:1005d000f7ff3200c82ade00055d78008b05e900d0
:1005e000f3ff32000c00e000f1ff320019ddba0029
:1005f000eeff37003600f800c028a9000000eb002d
:10060000970c07003600f800900c0700c048a900be
:1006100010002000920c07003600f800c068a90006
:10062000200020008e0c07003600f800c088a900ca
:10063000300020008a0c07003600f800c0a8a9008e
:1006400040002000860c07003600f800c608a9000c
:1006500070002000820c07003600f800c4a8ab0030
:1006600003003200c4a8a900900020007c0c070001
:10067000c488ab0003003200c488a900a000200099
:10068000770c0700ffff37000040da000000fe0093
:10069000041020001011800080016200fdff320074
:1006a000020078000000e0000900320080027800bb
:1006b000041020001211800082016200fdff320050
:1006c000b101fb00231188008502e900f9ff3a001f
:1006d000000006000000050003f0a200889fbe0095
:1006e0008a9fbe008c1f7800fa00070001013300ca
:1006f0006450e1004f0032006420e10052003200fb
:1007000003826c0007003b000905d0000306d000ff
:10071000820f54000c065d00020039000200320016
:1007200089017800030678008582550004003d00a9
:100730000003fd008103fd008502ea008b85420075
:10074000840f720002003b0060001000e08018007f
:100750006011b8000005eb007a28e1000a003900ba
:1007600006007800c75ddd00f707b20087807500de
:100770002d003700828171000a0178006105600058
:100780008180d1000080d3008502e900f9ff3b00a1
:10079000060440008784480002003b006004140007
:1007a000e0841c000988a300070032008a817100e0
:1007b00082817100610164008904d1000884d30042
:1007c0008b05e800170037000978a30013003a00f2
:1007d0000b00e000130034008b05e900080444001e
:1007e00089844c000a4474000978a3000d003a0083
:1007f0000b00e000070034008b05e900080444000a
:1008000089844c0001003a000b0020000978a30005
:10081000f7ff32000001eb00020037008281710017
:100820000a017800700007000cf0a70001f0a0009a
:10083000b90037006420e10002003a00838f6c00a9
:10084000b90033000801be000200be00b20037004c
:10085000889fbe008a9fbe008c1f78009d00070005
:10086000a400330003866c006450e1002e003200c7
:100870006420e100330032006150e1002f003200bb
:100880006120e1003100320085855500eb07b000a2
:100890000900200008042000050037000804440077
:1008a00089844c000a0031000603430087834b0013
:1008b0000001530081815b00f8ff33000203be009a
:1008c0000800a0000804440089844c00f6ff3900a9
:1008d000c639dd00830173000100320013002000df
:1008e0008904d1000884d3000998a30005003200d0
:1008f0000800a7000300a0008904d1000884d300e9
:100900008b05e8008904d1000884d3000001eb00c6
:100910000281d2003400070001f0a1000cf0a70012
:1009200001f0a0007c0037006420e1007e0032006e
:100930000801be000200be00f7ff37006120e100a1
:10094000790032006000b800f3ff3700000020009b
:1009500001f82700f0ff37000001be004800070043
:100960000470a70003f0a1006509b1001600320071
:100970000d0035006828e10006003500f0ff2f006b
:10098000f1ff27000300e00013003b0001002800f6
:100990000000050000004000818048008502e90059
:1009a000fcff3a0008003700f88f420002003c00cc
:1009b0008000eb00000005008100d1000080d30022
:1009c0008502e800fcff3a000300e00002003b0063
:1009d00060001000e0801800000006004f89de0073
:1009e0008201780087003700810020006180550077
:1009f0000b003d000b00200061fe2f000100e10014
:100a00001d00340082817100610164008904d100fd
:100a10000884d3000000e800faff3a0071002000cb
:100a200061006400030070000200600009003200f1
:100a300061044400e0844c000988a50005003200f0
:100a40008b05e8006808e10002003a008904d10043
:100a50000884d300f20f20000258e10005003d0099
:100a6000c75ddd00f907b2008980750008007800d5
:100a7000000006000bf827008b007800000005003e
:100a8000c70ade00f107b200f50fb200080032001d
:100a9000e1cf4200020032000170a00024000500f6
:100aa000810f7000010032000408050044000500b9
:100ab000810f700002003a00140005008502e90071
:100ac0000000400081c04800fcff3b000170a00016
:100ad000240005000004be00e9ff07000003be007b
:100ae0000405be000200be00e5ff0700844f75004c
:100af000000006000200be006450e1000500360060
:100b00006420e100020036000968a30001003a00f9
:100b10000800be000160a0004f0678004f05be002f
:100b20004f04be0000000600f0ff2f00f1ff270079
:100b3000f9ff3700889fbe008a9fbe008c1f780097
:100b4000e4ff0700ebff330003866c006450e10014
:100b5000240032006420e100270032006150e100ef
:100b6000220032006120e100210032008b8542002a
:100b7000eb07b1000134b800003ab80008044200a5
:100b800089844a00013ab8000030b80088804000eb
:100b900009014a0004003300000040008180480041
:100ba000020149008b05e900c909dd0083017000dd
:100bb0000100320013002000c814de004814dd00dc
:100bc0004709de001200b200c808de000884700089
:100bd00085ff070001f0a1000cf0a70001f0a000c4
:100be000cdff37006120e100cfff32000801be00d9
:100bf0000200be00f7ff37006150e100fcff3a0041
:100c0000c9ff3700881f7800030478000300e00064
:100c100007003d0060001000e0801800600119002e
:100c2000e081190002003b0001f02d0003003700b5
:100c30000400070008f0a70001f0a0004f047800ae
:100c400000000600889fbe008a9fbe0000827000e0
:100c50000402710004827100260032000004be000c
:100c60000200be006011b8006b0920009502200050
:100c70000182cf000a0039000541b1000082cf0097
:100c8000070039000541b1000982cf000400390096
:100c90000541b1000882cf00010039000541b100d3
:100ca00005425200120032000a003b0082817100ae
:100cb000610164008100d1000080d3008984d300e9
:100cc0000884d3008b05e8000442e800f7ff3a00ef
:100cd000070037000804440089844c0000004800e5
:100ce000818048008b05e9000442e900f9ff3a00e1
:100cf0003dff07004f05be004f04be000000060088
:100d00000000fa0068815700cfb897004006210024
:100d1000290007000080fa0000000600889fbe003e
:100d20000004be00050037000000fb0089007800c9
:100d3000c9020700e10f400004003200384078008b
:100d40000004e000f8ff3a000000eb004f04be0092
:100d500000000600881f780041062100efff070011
:100d60000004780041062100a0002000ba0207001c
:100d7000080078004f04780000000600800078002a
:100d80003104e000feff3a000080ea0000804000ed
:100d900000000600d0019000028151004240a900ed
:100da0000300340010017800014978000208e800cf
:100db0000100780000000600f6874700889fbe000b
:100dc0008a9fbe008c9fbe008e1f780000057800b1
:100dd000a1b79f00020778008004eb009202370061
:100de000afb097008100e800a1b79f0051c2b300e7
:100df000814f500003003a00afb097000004eb00b1
:100e000011003700ba0090000000fb000168a30049
:100e10000700320009017800800078000a0078009d
:100e2000dcff07000000e00005003a007e0237000a
:100e30008a00780088020700e10f40007a02320041
:100e40008904e80078023700010078003141780019
:100e5000d3c2b300834f51000c00320007003c00a6
:100e6000edc15100834f51000a003200ebc1410037
:100e7000834f51000d003a000800370003c3b30050
:100e8000834f510009003a00060037000830a000e7
:100e9000edff37000800a000ebff37000810a000ae
:100ea000e9ff37000820a000e7ff37000818a3007b
:100eb000010032000800a1000838a3000100320040
:100ec0000820a1008200fb000103b100e98f50005f
:100ed0000c003e00000178008000eb00ea08b90039
:100ee000b200fb000103b1008080400002007800e6
:100ef0009201fb000303b100e98f5100f7ff3600b8
:100f0000060037008000eb00a3c2b300834f5100fe
:100f100002003a00ce0078000000e8008005eb00f7
:100f2000e2c2b300904f110008003a0008e0a000b0
:100f300064415100d04f11000200320000017800de
:100f400006003700ce0578000000e80000017800b8
:100f500008003700ea58b900808541000200780097
:100f6000b201fb000303b100e98f5100f9ff360025
:100f7000f6ff370032407800a2b79f00c3c6b30027
:100f8000834f5000250032000f003c0032c6b300f2
:100f9000824f50008800320004003c000004e00052
:100fa000260232006b4151000f00370042c6b300e9
:100fb000824f50001700320065414100824f5000bf
:100fc00094003a001300370032c7b300824f50003c
:100fd0001b00320007003c0064415100824f50006a
:100fe000100032000241e800824f500089003a00b0
:100ff0000f00370052c7b300824f50008a00320002
:1010000063414100824f500082003a00e0df9f00c0
:1010100009003700e0df9f00850037000840a0008e
:10102000d4ff3700e0df9f000860a0008000370099
:10103000e0df9f000850a0000870a0007c0037008f
:10104000e0df9f004e007800000678000000e0001e
:1010500001003a008c0221000c0178000000eb0036
:10106000010037000000e800800141001304e000a7
:10107000fcff3a00800678000b00e000030032001d
:101080008d8f5500010031008b0678008005eb0044
:101090008d8f5000010036008d855000680464007b
:1010a0002a003a00110037003a0090000068a300bf
:1010b0000700320009017800010220000a007800d0
:1010c00034ff07000000e00006003a000600370089
:1010d0008a00780000022000df010700e10f4000d5
:1010e000010032008904e8008b05e9000b00e000f4
:1010f000edff3a008085eb00140037003a009000c5
:101100000068a300090032000c007800b000fb006a
:1011100000067800090178000a0078001dff07002a
:101120000000e00008003a00080037008c0078005a
:101130003100fb00010678008a007800c601070034
:10114000e10f4000010032008904e8000d00780042
:101150008006e9000000e000e8ff3a000800e00037
:10116000b1013200110037003a0090000068a3007e
:101170000700320009017800010220000a0078000f
:1011800004ff07000000e00006003a0006003700f8
:101190008a00780000022000af010700e10f400044
:1011a000010032008904e8008b05e9000b00e00033
:1011b000edff3a009c0137004e017800cf91de0030
:1011c000c81ade004818dd004812de000402700074
:1011d000e4df9f000848a300080032000404e00098
:1011e00006003200e14f420004003200f4df9f00ad
:1011f00082e79f002d00200002003700f2df9f00f1
:101200001d002000e2fd2f000f0141000206e80052
:1012100099ff3700e0df9f00ecfd2f000f0646002e
:101220001d00200094ff3700e0df9f00080cb30092
:1012300008017800020cb200700064000200e000b7
:101240000f003a000000e00004003200640757007d
:101250001e0678009e069000020037004e067800b9
:10126000cfe6de00e00f5600e08f5e000c003d0090
:101270003800b30060061600e0861e000800370044
:101280000000e00004003200640757001e067800ea
:101290009e069000020037004e0678008006eb00a4
:1012a0000b00e00005003a008c8576000bf0a700eb
:1012b0008b05ea008b05e900cf5dde008801780030
:1012c000030cb200e3b79f0000042000808f5100a0
:1012d0002300320003003c000300e000080032005d
:1012e0002d003700000820006fb29700800f5200d9
:1012f0000d003200000c2000800f520026003a0042
:101300000203210010c0b30064014100b20f560077
:10131000a28f5e001f0039000040e800ea4f500035
:10132000f9ff3a001b00370010c0b3000201200093
:1013300003002000820f5600838f5e0015003900e5
:10134000441add00cc11de00830172004411dd007f
:101350000040e800e84f5000f6ff3a000d0037006b
:1013600010c0b3008200200003002000820f56004e
:10137000838f5e0007003900431add00cd11de00c7
:10138000830172004311dd000040e800eb4f500084
:10139000f6ff3a00e0df9f006fd997000200fb00e4
:1013a0008b0f500002003d00ebdf9f000300370071
:1013b000808f550001003d00800578000100e000ad
:1013c0000300320063006400010032008100e90084
:1013d00008e8a300050032008b8f500002003400a3
:1013e0008b805000010037008000eb00efd99700a0
:1013f0000300fb000002eb00d4b79f00808f500079
:101400000200340000805000d0b79f000828a300dd
:1014100040003200610164000818a3000f00320090
:101420003a0090000068a30006003200b1022000dc
:101430000200e000010032008180e800090178002c
:101440000d003700b00220000200e0000100320071
:101450000080e8008a0078000e0037000200e000fb
:10146000100032003a0090000068a300070032002c
:1014700009017800010220000a00780045fe0700fb
:101480000000e00006003a00060037008a007800fd
:1014900000022000f0000700e10f400001003200d0
:1014a0008904e8005fb097000000e0005a003200b5
:1014b000bcb79f00cdb79f00800678003a0090002f
:1014c0000068a30007003200090178000103200032
:1014d0000a0078002ffe07000000e00006003a0036
:1014e000060037008a00780000032000da000700b9
:1014f000e10f4000010032008904e8008d06e90098
:10150000eeff3a00ddb79f003fb69700cfb69700d9
:1015100041003700dfb197000300e0001a003200fd
:101520000838a30018003a00bcb79f00cdb79f0051
:10153000830678003a0090000068a300070032009c
:1015400009017800010220000a00780011fe07005e
:101550000000e00006003a00060037008a0078002c
:1015600000022000bc000700e10f40000100320033
:101570008904e8008d06e900eeff3a00ddb79f0020
:101580003fb69700cfb69700610164000818a3002a
:101590000f0032003a0090000068a30006003200fd
:1015a000b10220000200e000010032008180e8006a
:1015b000090178000d003700b00220000200e000b1
:1015c000010032000080e8008a0078000e00370039
:1015d0000200e000100032003a0090000068a30012
:1015e0000700320009017800010220000a0078009b
:1015f000e8fd07000000e00006003a0006003700a2
:101600008a0078000002200093000700e10f4000ec
:10161000010032008904e8000b03e900e331b9005e
:10162000b2b79f004233dd000003210000034300f6
:101630008e01780093b79f000807780006047800b1
:101640005d0037008b05e900000420006fb29700b1
:10165000800f52003900320003003c000400e0001b
:10166000080032003f00370000082000efb097006c
:10167000808f500021003200000c2000808f50002d
:1016800038003a000e48a30011003200180278001a
:10169000980290000401be000c00be00f4b79f0049
:1016a00085bf9f00ee000700e0df9f000000fb0009
:1016b000cf80de007fb297008fba97000401be0092
:1016c000f70007000006560081865e00070037001d
:1016d00018017800110009000286d800a20020003d
:1016e000110009000280d800e1df9f006fd9970048
:1016f0000243b000e2df9f001a00370070012100b2
:101700000e58a300010032006000210001032100f7
:10171000810054000c01be008100e9000300330089
:101720008301d1000281d300fbff3700ef0061008d
:101730000100400010407800090037000c00be0096
:101740003fb297000402e900030033008100d1009a
:101750000080d300fbff3700674060000043b0000b
:10176000e0df9f00ba0090006fd997000200fb00f5
:101770000168a300070032000901780080007800aa
:101780000a00780083fd07000000e00005003a0031
:10179000050037008a0078002f000700e10f4000a5
:1017a000010032008904e8003fb297006302520052
:1017b000b4b79f00640454000b00e000a1ff3a009e
:1017c0000e0478001fb797000838a30016003200f7
:1017d0005fb097000000e0001300340000047800c0
:1017e0003a0090000068a300070032000901780069
:1017f000010220000a00780066fd07000000e000fa
:1018000006003a00060037008a0078000002200037
:1018100011000700e10f4000010032008904e800d8
:101820000804e900eeff3a00afb0970011407800dd
:10183000e0df9f000004e00069fd3a000900780045
:101840004f0778004f06be004f05be004f04be0094
:101850006f01b10000000600889fbe0001047800ff
:10186000b80090008084eb000118a3003a00320019
:10187000180190000198a30002003a000200e00065
:1018800035003a000190a0003104980080047800ef
:10189000f90fb2000200e00002003a0028009000b8
:1018a000000c7800ea8f540005003a000178a3008c
:1018b00003003a0088007800d0002000e6ff07000f
:1018c00018009000d8009000810f50000b003200eb
:1018d0000000e8001004980018007800094878001b
:1018e000000ce80011c0b300e00b210001487800b3
:1018f000ea8f540018003a0005003700880078008d
:1019000009407800170007008004780012003700b3
:10191000380090000088a3000f00320018019000ea
:10192000a80090004800900059fb07009800900024
:10193000810f500004003200380090000003b30013
:10194000300498008084eb000000eb001004980045
:1019500028009000000c7800090078004f04be00b9
:10196000000006000200fa00889fbe00a0ff9f0052
:1019700001047800380090000068a30033003a00aa
:10198000e200600005003a000003b3003004980054
:10199000110498000080eb002e003700d80490005e
:1019a0000900e00006003a0012002000e68057001f
:1019b0004800900036fb0700190498002300370008
:1019c000a80090000100e00008003a00110c21007e
:1019d00021049800010c7800210020005104980097
:1019e000110498000030a000300498001801900005
:1019f000a80090004800900025fb070028009000f8
:101a00008080eb0011049800aff89700014878003f
:101a1000000ce8002ff89700ea4f50000b003a0046
:101a2000380090000088a3000800320018019000e0
:101a3000a80090004800900015fb07000000eb0094
:101a400010049800a8009000010c7800aff89700ef
:101a50000100fb004f04be000080fa0000000600f9
:101a60006022b800060220000000d0008180d20071
:101a70000482d2008582d2000000a000020252003f
:101a800083825a00030031000202420083824a002e
:101a90000000a1000603e900f3ff3a000000060081
:101aa000020ab900001bb9000200b8008100420020
:081ab000810043000000060064
:020000040000fa
:101ab8000000000000000000003e00005b4f000036
:101ac8005b3e00003e6b00004f6b00003e1c0000b8
:101ad8003e7c00003e1c0000183c00007e3c0000dc
:101ae800181c0000577d0000571c00001c5e0000f9
:101af8007f5e00001c000000183c00001800000079
:101b0800ffe70000c3e70000ff0000001824000002
:101b180018000000ffe70000dbe70000ff300000ce
:101b2800483a0000060e0000262900007929000026
:101b3800264000007f05000005070000407f0000e8
:101b4800052500003f5a00003ce700003c5a000011
:101b58007f3e00001c1c0000080800001c1c000040
:101b68003e7f0000142200007f220000145f000066
:101b78005f0000005f5f0000060900007f010000b1
:101b88007f00000066890000956a00006060000020
:101b98006060000060940000a2ff0000a2940000b2
:101ba800080400007e04000008100000207e0000e9
:101bb80020100000080800002a1c00000808000087
:101bc8001c2a0000080800001e1000001010000069
:101bd800100c00001e0c00001e0c00003038000025
:101be8003e380000300600000e3e00000e060000e1
:101bf800000000000000000000000000005f00007e
:101c080000000000000700000007000000140000aa
:101c18007f1400007f140000242a00007f2a00009f
:101c28001223000013080000646200003649000017
:101c380056200000500000000807000003000000c4
:101c4800001c0000224100000000000041220000aa
:101c58001c0000002a1c00007f1c00002a0800004d
:101c6800083e0000080800000080000070300000f6
:101c78000008000008080000080800000000000034
:101c8800606000000020000010080000040200004e
:101c98003e510000494500003e000000427f000020
:101ca8004000000072490000494900004621000038
:101cb800414900004d33000018140000127f000055
:101cc8001027000045450000453900003c4a000047
:101cd80049490000314100002111000009070000b6
:101ce80036490000494900003646000049490000cd
:101cf800291e000000000000140000000000000081
:101d08004034000000000000000800001422000019
:101d180041140000141400001414000000410000d5
:101d28002214000008020000015900000906000002
:101d38003e4100005d5900004e7c00001211000079
:101d4800127c00007f49000049490000363e00002f
:101d580041410000412200007f4100004141000054
:101d68003e7f000049490000494100007f0900000a
:101d780009090000013e00004141000051730000c4
:101d88007f080000080800007f000000417f000075
:101d98004100000020400000413f0000017f00009a
:101da80008140000224100007f400000404000006d
:101db800407f0000021c0000027f00007f0400003a
:101dc800081000007f3e000041410000413e000035
:101dd8007f09000009090000063e0000415100008b
:101de800215e00007f090000192900004626000036
:101df8004949000049320000030100007f0100004a
:101e0800033f000040400000403f00001f2000004a
:101e1800402000001f3f000040380000403f000005
:101e28006314000008140000630300000478000035
:101e38000403000061590000494d00004300000000
:101e48007f4100004141000002040000081000002a
:101e58002000000041410000417f00000402000012
:101e68000102000004400000404000004040000023
:101e78000003000007080000002000005454000080
:101e8800784000007f2800004444000038380000f3
:101e9800444400004428000038440000442800005e
:101ea8007f38000054540000541800000008000057
:101eb8007e09000002180000a4a400009c7800001d
:101ec8007f0800000404000078000000447d000042
:101ed8004000000020400000403d0000007f00005e
:101ee8001028000044000000004100007f4000006e
:101ef800007c000004780000047800007c080000e2
:101f0800040400007838000044440000443800000d
:101f1800fc180000242400001818000024240000e5
:101f280018fc00007c0800000404000008480000b9
:101f38005454000054240000040400003f440000ee
:101f4800243c000040400000207c00001c200000d1
:101f5800402000001c3c000040300000403c0000d5
:101f68004428000010280000444c00009090000015
:101f7800907c000044640000544c000044000000c1
:101f88000836000041000000000000007700000053
:101f980000000000413600000800000002010000b7
:101fa80002040000023c000026230000263c00003a
:101fb8001ea10000a1610000123a0000404000008c
:101fc800207a0000385400005455000059210000c0
:101fd8005555000079410000215400005478000054
:101fe80041210000555400007840000020540000b2
:101ff80055790000400c00001e52000072120000cb
:102008003955000055550000593900005454000056
:10201800545900003955000054540000580000007d
:10202800004500007c41000000020000457d0000e2
:1020380042000000014500007c400000f02900003b
:1020480024290000f0f000002825000028f00000f6
:102058007c54000055450000002000005454000046
:102068007c5400007c0a0000097f0000493200000f
:102078004949000049320000324800004848000041
:10208800323200004a480000483000003a4100005f
:10209800412100007a3a0000424000002078000008
:1020a800009d0000a0a000007d390000444400000d
:1020b800443900003d400000404000003d3c000025
:1020c80024ff000024240000487e0000494300004b
:1020d800662b00002ffc00002f2b0000ff090000da
:1020e80029f6000020c00000887e000009030000d7
:1020f8002054000054790000410000000044000012
:102108007d41000030480000484a00003238000095
:1021180040400000227a0000007a00000a0a00000d
:10212800727d00000d190000317d00002629000095
:10213800292f000028260000292900002926000050
:10214800304800004d40000020380000080800001a
:10215800080800000808000008080000382f0000e0
:1021680010c80000acba00002f100000283400008e
:10217800fa000000007b00000000000008140000c6
:102188002a14000022220000142a0000140800006b
:10219800aa00000055000000aaaa000055aa0000e5
:1021a80055aa00000000000000ff00000010000019
:1021b80010100000ff0000001414000014ff0000bd
:1021c8000010000010ff000000ff000010100000c9
:1021d800f0100000f014000014140000fc000000cf
:1021e80014140000f7000000ff00000000ff0000ca
:1021f80000ff000014140000f4040000fc140000a8
:1022080014170000101f0000101000001f1000001d
:102218001f140000141400001f000000101000001c
:1022280010f0000000000000000000001f10000077
:1022380010100000101f0000101000001010000007
:10224800f01000000000000000ff00001010000067
:1022580010100000101000001010000010ff000007
:102268001000000000000000ff1400000000000043
:10227800ff000000ff000000001f00001017000012
:1022880000000000fc040000f41400001417000013
:102298001017000014140000f4040000f4000000fb
:1022a80000ff000000f700001414000014140000e0
:1022b8001414000014f7000000f7000014140000c4
:1022c8001417000014100000101f0000101f000059
:1022d8001414000014f400001410000010f00000a2
:1022e80010f00000000000001f1000001f00000098
:1022f800000000001f1400000000000000fc0000a7
:102308001400000000f0000010f0000010100000a1
:10231800ff100000ff14000014140000ff14000058
:1023280010100000101f0000000000000000000056
:10233800f0100000ffff0000ffff0000fff00000aa
:10234800f0f00000f0f00000ffff0000ff000000c8
:102358000000000000000000ffff00000f0f000059
:102368000f0f00000f3800004444000038440000fc
:102378007c2a00002a3e0000147e000002020000b1
:1023880006060000027e0000027e000002630000d4
:10239800554900004163000038440000443c0000f7
:1023a800044000007e2000001e20000006020000fd
:1023b8007e02000002990000a5e70000a599000030
:1023c8001c2a0000492a00001c4c00007201000071
:1023d800724c0000304a00004d4d000030300000c3
:1023e8004878000048300000bc6200005a460000ef
:1023f8003d3e000049490000490000007e01000000
:10240800010100007e2a00002a2a00002a2a000072
:10241800444400005f44000044400000514a00006a
:1024280044400000404400004a51000040000000c1
:1024380000ff000001030000e0800000ff00000032
:1024480000080000086b00006b080000361200004e
:1024580036240000360600000f0900000f060000b1
:102468000000000018180000000000000010000024
:102478001000000030400000ff01000001000000d3
:102488001f010000011e0000001900001d170000b8
:10249800120000003c3c00003c3c00000000000032
:1024a800000000000000000045520000524f0000ec
:1024b800523a0000204300004d4400003020000044
:1024c80046410000494c0000454400000057000008
:1024d800415200004e4900004e4700003a200000db
:1024e800434d0000443500003820000052450000ec
:1024f80054550000524e000045440000205500008d
:102508004e4b00004e4f0000574e00002056000072
:10251800414c00005545000000250000782c0000c3
:102528002052000065610000647900002e0a000056
:102538000000000054720000617000002065000077
:102548006e6300006f7500006e7400006572000015
:1025580065640000202d00002065000072720000f4
:102568006f720000206300006f64000065200000a7
:082578002564000000000000d2
:020000040000fa
:1025800014aea80014cea900ef02070014cea800d4
:102590000000060014aea90014cea900ea0207004c
:1025a00014cea80000000600881f78000004780000
:1025b0004840de00f2ff070008407800f0ff070007
:1025c0004f0478000000060010c0b300f1ff0700c0
:1025d00010d5210055030700f0ceb300edff070032
:1025e00030c0b300e6ff070000c8b300e4ff0700f7
:1025f00020c0b300e2ff0700f0ccb300e5ff070006
:102600000040eb00deff070010ccb300dcff07004a
:1026100000c3b300daff0700d0ceb300ddff070030
:1026200040c6b300d6ff070030c0b300d4ff070098
:1026300020c1b300d2ff070010c8b300d0ff0700cd
:1026400080ceb300d3ff070050c8b300ccff070013
:102650000040eb00caff070080c7b300c8ff0700b7
:10266000b0ccb300cbff070090c3b300c4ff07009a
:10267000c0c2b300c2ff07000040eb00c0ff07006c
:1026800040c3b300beff070020c0b300bcff07007b
:1026900070cfb300bfff070000c2b300b8ff070050
:1026a000a0ceb300bbff07000040eb00b4ff070063
:1026b0000040eb00b2ff070000ccb300b5ff0700fd
:1026c00030c2b300aeff070010ccb300b1ff07006b
:1026d00000c1b300aaff070050ccb300adff070054
:1026e000e0c3b300a6ff070080c2b300a4ff070049
:1026f00070ccb300a7ff070060c8b300a0ff0700bd
:1027000060c3b300a3ff070080c0b3009cff0700b5
:10271000a0c3b3009fff070050c5b30098ff070098
:1027200010cbb3009bff07000040eb0094ff0700b5
:1027300080c1b30092ff070060cbb30095ff070094
:1027400080c0b3008eff070020c8b3008cff0700d5
:1027500070c2b3008aff070020cfb3008dff0700cf
:102760000040eb0086ff070060c2b30089ff07004e
:1027700010c0b30082ff070000ceb30085ff070042
:10278000f0c0b3007eff070010c3b3007cff07005a
:10279000b0c2b3007aff0700c0c0b30078ff0700e3
:1027a000e0c0b30076ff070080c0b30074ff0700ed
:1027b000e0c4b30072ff070010cfb30070ff070042
:1027c00070c3b3006eff070070c0b3006cff07005a
:1027d00000c1b3006aff070030c0b30068ff070004
:1027e000e0c0b30066ff070090c0b30064ff0700bd
:1027f0000040eb0062ff070010ceb30065ff07004a
:102800000040eb005eff0700e0c0b3005cff070084
:1028100040c1b3005aff070030c0b30058ff0700a3
:1028200010c1b30056ff070070c0b30054ff07008b
:1028300010c3b30052ff070010ccb30050ff0700d5
:1028400080c4b3004eff070080c0b3004cff0700f8
:10285000f0c0b3004aff0700c0c0b30048ff070044
:1028600010c3b30046ff070060c3b30044ff070076
:10287000f0c0b30042ff070010c1b30045ff0700de
:1028800010d52100a902070090c2b30041ff070044
:1028900000000600889fbe008a9fbe0000047800ea
:1028a000010578008204780083057800a0c2b30097
:1028b00038ff07004840de0031ff0700084078007d
:1028c0002fff07004848de002dff07000940780071
:1028d0002bff0700b0c2b3002eff07004850de00f8
:1028e00027ff07000a40780025ff07004858de0050
:1028f00023ff07000b40780021ff0700c0c2b30090
:1029000024ff07004f05be004f04be000000060074
:10291000889fbe008a9fbe000004be00820578002a
:10292000a0c2b3001bff07004840de0014ff0700f1
:10293000084578000840780011ff07000804e80007
:102940004840de000eff07000a40e8000cff0700c9
:10295000b0c2b3000fff07004848de0008ff0700c1
:10296000094478000940780005ff07008904e80061
:102970004848de0002ff07000840e80000ff0700ab
:10298000c0c2b30003ff07000b00780006ff07007a
:102990004f05be004f04be0000000600889fbe0029
:1029a0008a9fbe008c1f7800000678000314200068
:1029b000020f20006000b800b6ff07006055b800a5
:1029c00008c02200190020000c007800f6fe070065
:1029d00061054500e0854d00880f5500898f5d0039
:1029e000f9ff3a000040eb00eafe07004f067800ce
:1029f0004f05be004f04be0000000600ea874700f6
:102a0000889fbe008a9fbe008c9fbe008e1f7800ec
:102a1000800478000105780002067800d3b79f0093
:102a2000840678000900560000f0a7000000ea00c4
:102a300080bf9f000080eb00f0b79f00890f560019
:102a40000200360011002000f1b79f005fb0970030
:102a50008a0550000bf0a7008b05ea008080eb0090
:102a6000e1b79f008a0f50000200360010002000de
:102a7000e0b79f008fb897008b8f500005003c0097
:102a80000b00ea00cf00de00008040000084d1008f
:102a9000070037000fb897004f04de000004440021
:102aa0000884d100020037000004780002003700db
:102ab0008fb897000107ea000d0178008a007800be
:102ac0000900780092ff07008c8f540003003a0041
:102ad0005fb09700800f55000e0032008e0f54003b
:102ae000040034000b005400ffb0970081844400c0
:102af00001003700080078008b0f5400eaff3d000a
:102b00008fb89700010440006fb0970000054500a2
:102b1000e9ff37004f0778004f06be004f05be00a3
:102b20004f04be00af00b10000000600889fbe0049
:102b30008a9fbe008c9fbe0002447800670140005f
:102b4000e581400053ff07000804fb00e546b9009b
:102b50000804e800e544b900880578008b0f5600aa
:102b6000100035001500370008c8de000008a3007b
:102b700003003200208080008bfe07000200370037
:102b80000a00780088fe07000804e800e80f5400f7
:102b9000f5ff3a000c06e8008b0f560003003500e5
:102ba000060037000005eb00cdd528000a047800a8
:102bb0000d0046009084fb00ebff37004f06be007f
:102bc0004f05be004f04be0000000600889fbe00f7
:102bd0008a9fbe008c1f7800000678008104780070
:102be000820578000b0578000004eb000600370032
:102bf0003a417800890078000c007800cbff07008c
:102c00000804e800e58444000b0078005bf8070046
:102c1000880f5000f6ff3e004f0678004f05be00bb
:102c20004f04be0000000600889fbe008a9fbe00c1
:102c30008c1f7800800578008104780002057800f8
:102c40000a00e0000a0034000004eb000046eb003c
:102c50000c417800890078000b007800b3ff070072
:102c60000804e800e5844400880f5500f8ff3c00a4
:102c70004f0678004f05be004f04be00000006005e
:102c8000889fbe008a9fbe008c9fbe008e1f78006a
:102c900004077800850678000002e900020142007e
:102ca00081814100fbfe07008004eb006055b80005
:102cb0000086eb000d00e00011003a001300370021
:102cc0001980fb000880de000008a300030032002a
:102cd0000c00780034fe0700020037000a0078007c
:102ce00031fe07000804e800e80f5400f4ff3a0042
:102cf0008b05e8008b0478008b8f560003003600ac
:102d00000a04780089044700edff37004f07780078
:102d10004f06be004f05be004f04be000000060077
:102d20000800fa00889fbe00a0bf9f00b1bf9f00af
:102d3000c2bf9f00d3bf9f0014cea9004ff09700e1
:102d4000010107005ff09700ff0007006ff0970098
:102d5000fd0007007ff09700fb0007000ff89700c9
:102d6000f90007002ff89700f700070000c4eb00f8
:102d700009c8b30008407800f3000700894f5000ed
:102d8000fcff3e0014cea8004f04be000080fa00f5
:102d9000000006000800fa00889fbe008a1f780025
:102da0000005780091bf9f00a2bf9f00b3bf9f00a6
:102db000c4bf9f0014cea9002ff09700e2000700c7
:102dc0003ff09700e00007004ff09700de0007009b
:102dd0005ff09700dc0007006ff09700da00070053
:102de0000ff89700d800070000c4eb0009c8b30033
:102df00008407800d4000700894f5000fcff3e00d7
:102e0000004d780000c0eb00cf000700104598008f
:102e100000c0eb00cc0007002045980000c0eb008c
:102e2000c90007003045980000c0eb00c60007004d
:102e30004045980014cea8000a0078004f0578009d
:102e40004f04be000080fa00000006000600fa00f1
:102e5000889fbe00c0ff2f006222b6000004eb0076
:102e600080c4eb0009407800b70007000804e800c0
:102e7000ea0f5400fbff3a00e00921009080fb00bc
:102e80000000e8001080fb004800dd0000807000ba
:102e9000010a21001181fb008100e8009180fb0004
:102ea000c808dd0081007100220a21009281fb0028
:102eb0000201e8001281fb004811dd00028171006f
:102ec000430a21009381fb0095ff0700e14f50006a
:102ed00004003200802529009ef7070010c0b300cf
:102ee0001a003700308580004185800052858000bf
:102ef000638580008aff0700d08621000b01070050
:102f0000708580008185800092858000a385800087
:102f100083ff0700b1858000c2858000d3858000d3
:102f2000e48580006a8057009aff07006ff09700e1
:102f3000e14f500002003200b026290085f707005b
:102f4000300020006222b7000040eb004f04be00ba
:102f50000080fa00000006009f0007009afd0700ad
:102f60000000eb008dfe07004007f8001029290043
:102f7000801f780062f707004027ef00e4875700c2
:102f8000ffff3700b013200010138800100020004e
:102f900020138800c00028000013880000000600ed
:102fa0006022ab00feff3a006342ab000300320038
:102fb0001000780040138800020037001080fb00ea
:102fc0004013880002022000031380000300610008
:102fd000fdff3a006342ab00030032004013800063
:102fe0008008780002003700401380008048780095
:102ff000000006000400fa00889fbe008a1f7800c7
:103000008001eb00b3bf9f00c3bf9f0006402000bc
:1030100013138000030363000603ea004f33de004e
:1030200018002000880f530002003a008100d100f0
:10303000280020000000e00003003a00e88257006a
:103040008004eb00020037008804780080027800da
:103050000200e00002003a006a8157000004eb0021
:103060006022ab00feff3a000000eb008001eb00a5
:103070000100e0002900320007022000e78f510024
:103080000a003e00e10f530003003a0015027800e9
:1030900044138800020037001582fb0044138800a7
:1030a000898242000000e8008301e8000a138000e2
:1030b0000a82630009003a00e10f530003003a005e
:1030c0004413800004097800020037004413800094
:1030d00004497800080141008301e900808f500015
:1030e000e6ff3e000d0037000513800085006200fa
:1030f000fdff3a00e10f530003003a004a1380003d
:103100000a09780002003700411380000149780065
:10311000080141008301e90001003700040220009a
:103120000300e00004003200051380008500620007
:10313000edff3a00efff37004f0578004f04be0067
:103140000080fa00000006000400fa00e0ff9f0083
:10315000e48057000f80e90091ff07004ff89700c7
:103160000080fa0000000600a2ff07000000060031
:103170000013800000000600210f200022028000c2
:1031800082806000808070002102880000000600bc
:10319000710520000001eb00600420002374200072
:1031a000804978008149780082497800200c23000a
:1031b000203a88004827ef004e27ef0090082000b3
:1031c000303a88004420a90044c0a90044e0a90086
:1031d0004480a900000006003b010700ecff070047
:1031e000a601070067ff07007001070087010700bd
:1031f000f700070000022000dfff070000000600c4
:10320000003a8000000006004f00de0000000600cb
:1032100001002400010060000000ea004f00de0011
:10322000000006004900de006100600000000600aa
:103230004700de0061006000000006004600de007e
:1032400061006000000006004400de0061006000d4
:10325000000006000080ea004007b600003a88003f
:1032600000000600881f7800e5ff070000047800d2
:1032700008007800e4ff07000004e00002003200cc
:1032800000002800f3ff070008007800e0ff0700b7
:103290000004e0000200320000002400edff0700ff
:1032a00008007800dfff07000004e00002003200a1
:1032b00000202000e7ff070008007800dcff07007f
:1032c0000004e0000200320000082000e1ff0700d7
:1032d00008007800d9ff07000004e0000200320077
:1032e00000042000dbff070008007800d6ff07007d
:1032f0000004e0000200320000012000d5ff0700ba
:103300004f047800000006004027ef000000060090
:103310007f00600001fe2f00421980008280600063
:1033200081007000411988000000060060088800d4
:103330000e21ef0011e1a8000110200002408000e2
:1033400002806000fdff32000108a90000000600b5
:10335000889fbe008a9fbe00800578000105780026
:103360000004eb000a00e000080034008b04780041
:1033700016010700805c78000804e800880f5500fb
:1033800002003400ea4f5000f9ff3a00088445007b
:103390000804e800004ceb004f05be004f04be00df
:1033a000000006000004e000030032000000eb0013
:1033b000d7ff07000200370010002000d4ff0700ed
:1033c0002023a800803e20000000e900feff3a0014
:1033d0002023a9002003ab00feff3200001880006c
:1033e00000000600e4874700889fbe008a9fbe0059
:1033f0008c9fbe008e1f78000005780001077800c2
:1034000082bf9f0003047800840478006140b90003
:1034100072f507000006be000e005500cf80de00ea
:103420006ef507000005be0008805400cf80de0066
:103430006af507000004be008fb897000e805000a8
:10344000cf80de0065f507000001be000800be0069
:10345000fff407000001be000a00be00b5f507003a
:103460000001be000c00be009cf407003af5070006
:103470004f0778004f06be004f05be004f04be0048
:083480004f00b100000006003e
:020000040000fa
:103488007e100000200000008000000000100000f6
:103498000200000082000000ffff0000c4100000ce
:1034a800020000008000000002100000020000007e
:1034b800800000009e100000200000008200000034
:1034c80040000000000000009500410000000000de
:1034d80000000000004800000001aa00009b000056
:1034e8007a000000000000003a000000041000000c
:1034f8000200000082000000e007000058100000f1
:103508002600000082000000bf10000000bf10006d
:103518000900000000020000c110000000c11000f6
:103528000e02010000000000000000000000000082
:10353800060202000000000058100000be10000043
:103548000600000080000000061000005200000085
:10355800820000003031320033343500363738000d
:1035680039414200434445004600300031323300bf
:1035780034353600373839006162630064656600a7
:1035880000286e00756c6c00290000000100000026
:10359800000a00000000640000000000e8030000ca
:1035a800001027000000a0008601000040420f0024
:1035b8000080960098000000e1f5050000ca9a0016
:0835c8003b00000000000000c0
:020000040000fa
:1035d0000a21ef000e21ef000621ef0000a22700d4
:1035e000600888008003280080088800400c2100c3
:1035f0000048eb00000006000108ab0006003200a6
:10360000500c21001048e80011c0b3000000e90090
:10361000014878000108a900000006006008880041
:1036200071088800000006007008800062088000b1
:103630008000eb00c000dd00000020008001eb00f6
:1036400002007000838070000000060041088800be
:103650003008880000000600320880004008800022
:103660008000eb00c000dd00000020008001eb00c6
:10367000020070008380700000000600400c2100f2
:103680000048eb0011e1a8000000060011e1a900cc
:1036900000000600400c2100104078000004e0000b
:1036a00002003200410c21008048eb0000000600bf
:1036b000500c21001080fb0000000600500c21007f
:1036c0000048eb0000000600042eef00004e23002f
:1036d000a0708800f000200000708800f0312f00fa
:1036e000807088000c2eef001c2eef000a2eef00d9
:1036f0001a2eef00062eef00162eef0030012000ec
:1037000070708800c0102000f0708800f20b20005c
:10371000103a800000016100600420007105200063
:10372000237420008049780081497800824978001c
:1037300002f82f006436800084016100c302b300e8
:103740006336880003fc2f0005348000858161000a
:103750000300a00003348800f30f2c002534800000
:103760000582610004b0a000243488004434800045
:1037700084816100049020000302720044348800b8
:1037800025368000050161004202b3002236880020
:10379000123a80000260a000237420008049780063
:1037a00081497800824978000000060080002000ee
:1037b000001188002222ef00001a2000401188002a
:1037c00021e2a8002342a800000006002202ab006c
:1037d000feff32002222ab00010032002222a900ab
:1037e000301180000000060002202000131180002c
:1037f00083006100fdff3a000080fb00201188007b
:1038000000000600101180000000060000002800e3
:10381000001988002223ef001000200020198800e2
:103820002823ef002e23ef003023ef002623ef00a4
:10383000101980004200de007f40600002f0b700f7
:103840000000060001a8a90000000600e007210012
:103850008007780078004000000188000000060022
:1038600000808800801f7800e0292900801f7800f0
:1038700023f50700e4875700ffff3700000006002c
:020000040000fa
:02000004000af0
:04afe000cdff0000a1
:020000040000fa
:02000004000af0
:04afe400cfff00009b
:020000040000fa
:02000004000af0
:04afe8007fff0000e7
:020000040000fa
:02000004000af0
:04afec009bff0000c7
:020000040000fa
:02000004000af0
:04aff000f9ff000065
:020000040000fa
:02000004000af0
:04aff400ffff00005b
:00000001FF
