:020000040000fa
:080000000002040000000000f2
:020000040000fa
:04000800fa020000f8
:020000040000fa
:04000c000c030000e1
:020000040000fa
:0400100024030000c5
:020000040000fa
:0400140002030000e3
:020000040000fa
:0400180014030000cd
:020000040000fa
:04001c001c030000c1
:020000040000fa
:040020002c030000ad
:020000040000fa
:040024004403000091
:020000040000fa
:04002800440300008d
:020000040000fa
:04002c004403000089
:020000040000fa
:040030004403000085
:020000040000fa
:040034004403000081
:020000040000fa
:04003800440300007d
:020000040000fa
:04003c004403000079
:020000040000fa
:040040004403000075
:020000040000fa
:040044004403000071
:020000040000fa
:04004800440300006d
:020000040000fa
:04004c004403000069
:020000040000fa
:040050004403000065
:020000040000fa
:040054004403000061
:020000040000fa
:04005800440300005d
:020000040000fa
:04005c004403000059
:020000040000fa
:040060004403000055
:020000040000fa
:040064004403000051
:020000040000fa
:04006800440300004d
:020000040000fa
:04006c004403000049
:020000040000fa
:040070004403000045
:020000040000fa
:040074004403000041
:020000040000fa
:04007800440300003d
:020000040000fa
:04007c004403000039
:020000040000fa
:040080004403000035
:020000040000fa
:040084004403000031
:020000040000fa
:04008800440300002d
:020000040000fa
:04008c004403000029
:020000040000fa
:040090004403000025
:020000040000fa
:040094004403000021
:020000040000fa
:04009800440300001d
:020000040000fa
:04009c004403000019
:020000040000fa
:0400a0004403000015
:020000040000fa
:0400a4004403000011
:020000040000fa
:0400a800440300000d
:020000040000fa
:0400ac004403000009
:020000040000fa
:0400b0004403000005
:020000040000fa
:0400b4004403000001
:020000040000fa
:0400b80044030000fd
:020000040000fa
:0400bc0044030000f9
:020000040000fa
:0400c00044030000f5
:020000040000fa
:0400c40044030000f1
:020000040000fa
:0400c80044030000ed
:020000040000fa
:0400cc0044030000e9
:020000040000fa
:0400d00044030000e5
:020000040000fa
:0400d40044030000e1
:020000040000fa
:0400d80044030000dd
:020000040000fa
:0400dc0044030000d9
:020000040000fa
:0400e00044030000d5
:020000040000fa
:0400e40044030000d1
:020000040000fa
:0400e80044030000cd
:020000040000fa
:0400ec0044030000c9
:020000040000fa
:0400f00044030000c5
:020000040000fa
:0400f40044030000c1
:020000040000fa
:0400f80044030000bd
:020000040000fa
:0400fc0044030000b9
:020000040000fa
:0401000044030000b4
:020000040000fa
:0401040044030000b0
:020000040000fa
:0401080044030000ac
:020000040000fa
:04010c0044030000a8
:020000040000fa
:0401100044030000a4
:020000040000fa
:0401140044030000a0
:020000040000fa
:04011800440300009c
:020000040000fa
:04011c004403000098
:020000040000fa
:040120004403000094
:020000040000fa
:040124004403000090
:020000040000fa
:04012800440300008c
:020000040000fa
:04012c004403000088
:020000040000fa
:040130004403000084
:020000040000fa
:040134004403000080
:020000040000fa
:04013800440300007c
:020000040000fa
:04013c004403000078
:020000040000fa
:040140004403000074
:020000040000fa
:040144004403000070
:020000040000fa
:04014800440300006c
:020000040000fa
:04014c004403000068
:020000040000fa
:040150004403000064
:020000040000fa
:040154004403000060
:020000040000fa
:04015800440300005c
:020000040000fa
:04015c004403000058
:020000040000fa
:040160004403000054
:020000040000fa
:040164004403000050
:020000040000fa
:04016800440300004c
:020000040000fa
:04016c004403000048
:020000040000fa
:040170004403000044
:020000040000fa
:040174004403000040
:020000040000fa
:04017800440300003c
:020000040000fa
:04017c004403000038
:020000040000fa
:040180004403000034
:020000040000fa
:040184004403000030
:020000040000fa
:04018800440300002c
:020000040000fa
:04018c004403000028
:020000040000fa
:040190004403000024
:020000040000fa
:040194004403000020
:020000040000fa
:04019800440300001c
:020000040000fa
:04019c004403000018
:020000040000fa
:0401a0004403000014
:020000040000fa
:0401a4004403000010
:020000040000fa
:0401a800440300000c
:020000040000fa
:0401ac004403000008
:020000040000fa
:0401b0004403000004
:020000040000fa
:0401b4004403000000
:020000040000fa
:0401b80044030000fc
:020000040000fa
:0401bc0044030000f8
:020000040000fa
:0401c00044030000f4
:020000040000fa
:0401c40044030000f0
:020000040000fa
:0401c80044030000ec
:020000040000fa
:0401cc0044030000e8
:020000040000fa
:0401d00044030000e4
:020000040000fa
:0401d40044030000e0
:020000040000fa
:0401d80044030000dc
:020000040000fa
:0401dc0044030000d8
:020000040000fa
:0401e00044030000d4
:020000040000fa
:0401e40044030000d0
:020000040000fa
:0401e80044030000cc
:020000040000fa
:0401ec0044030000c8
:020000040000fa
:0401f00044030000c4
:020000040000fa
:0401f40044030000c0
:020000040000fa
:0401f80044030000bc
:020000040000fa
:0401fc0044030000b8
:020000040000fa
:0402000044030000b3
:020000040000fa
:0402040044030000af
:020000040000fa
:0402080044030000ab
:020000040000fa
:04020c0044030000a7
:020000040000fa
:0402100044030000a3
:020000040000fa
:04021400440300009f
:020000040000fa
:04021800440300009b
:020000040000fa
:04021c004403000097
:020000040000fa
:040220004403000093
:020000040000fa
:04022400440300008f
:020000040000fa
:04022800440300008b
:020000040000fa
:04022c004403000087
:020000040000fa
:040230004403000083
:020000040000fa
:04023400440300007f
:020000040000fa
:04023800440300007b
:020000040000fa
:04023c004403000077
:020000040000fa
:040240004403000073
:020000040000fa
:04024400440300006f
:020000040000fa
:04024800440300006b
:020000040000fa
:04024c004403000067
:020000040000fa
:040250004403000063
:020000040000fa
:04025400440300005f
:020000040000fa
:04025800440300005b
:020000040000fa
:04025c004403000057
:020000040000fa
:040260004403000053
:020000040000fa
:04026400440300004f
:020000040000fa
:04026800440300004b
:020000040000fa
:04026c004403000047
:020000040000fa
:040270004403000043
:020000040000fa
:04027400440300003f
:020000040000fa
:04027800440300003b
:020000040000fa
:04027c004403000037
:020000040000fa
:040280004403000033
:020000040000fa
:100400006f1821000eff27000e0188000000000079
:10041000000020000000e000020032000001200087
:100420002002880014000700aa0007000000e00076
:1004300003003a00e0d7220001002000020037004c
:100440000000200001002000810f70000100320038
:100450000f000700000020000000e0000200320052
:100460000000020000000000aa2c020000000000b2
:100470000040da000000fe00405820000000e000cc
:1004800002003200002020009001880000000600d9
:10049000a1028800800478000000eb001f003700f4
:1004a000e284440054a0b4009905ba00e2844400f8
:1004b00054a0b4009906ba00e284440054a0b400e9
:1004c0000006eb00476fde00fd07b200ae018800ba
:1004d000636ce10003003a000ad801000000eb0061
:1004e0000e003700606ce10008003a00004deb00a0
:1004f0000a05e800020039003420ec000af0a000f0
:100500008b05e900f9ff3e00040037006168e10057
:10051000010032000086eb000b00070019c7ba008b
:100520000e04e0001905ba0003003a000a00e000da
:10053000dbff3a0000000600fe07b200ae028800b2
:100540008a047800f5ff37000cd0a300e20f4d00bd
:100550001c00390089027800354dba000a05e80010
:10056000020039003420ec000af0a0008b05e900fd
:100570000f003200254dba000a05e80002003900dc
:100580003420ec000af0a0008b05e90008003200de
:100590000c00e0000600320015cdba000a05e800a4
:1005a000020039003420ec000af0a0008b05e900bd
:1005b0008984e80054a0b4000b00e000e2ff3a0098
:1005c000000006009902ba00055d78008b05e9007d
:1005d000f7ff3200c82ade00055d78008b05e900d0
:1005e000f3ff32000c00e000f1ff320019ddba0029
:1005f000eeff37003600f800c028a9000000eb002d
:10060000911707003600f8008a170700c048a900b4
:10061000100020008c1707003600f800c068a90001
:1006200020002000881707003600f800c088a900c5
:1006300030002000841707003600f800c0a8a90089
:1006400040002000801707003600f800c608a90007
:10065000700020007c1707003600f800c4a8ab002b
:1006600003003200c4a8a9009000200076170700fc
:10067000c488ab0003003200c488a900a000200099
:1006800071170700ffff37000040da000000fe008e
:10069000041020001011800080016200fdff320074
:1006a000020078000000e0000900320080027800bb
:1006b000041020001211800082016200fdff320050
:1006c000b101fb00231188008502e900f9ff3a001f
:1006d000000006000000050003f0a200889fbe0095
:1006e0008a9fbe008c1f7800fa00070001013300ca
:1006f0006450e1004f0032006420e10052003200fb
:1007000003826c0007003b000905d0000306d000ff
:10071000820f54000c065d00020039000200320016
:1007200089017800030678008582550004003d00a9
:100730000003fd008103fd008502ea008b85420075
:10074000840f720002003b0060001000e08018007f
:100750006011b8000005eb007a28e1000a003900ba
:1007600006007800c75ddd00f707b20087807500de
:100770002d003700828171000a0178006105600058
:100780008180d1000080d3008502e900f9ff3b00a1
:10079000060440008784480002003b006004140007
:1007a000e0841c000988a300070032008a817100e0
:1007b00082817100610164008904d1000884d30042
:1007c0008b05e800170037000978a30013003a00f2
:1007d0000b00e000130034008b05e900080444001e
:1007e00089844c000a4474000978a3000d003a0083
:1007f0000b00e000070034008b05e900080444000a
:1008000089844c0001003a000b0020000978a30005
:10081000f7ff32000001eb00020037008281710017
:100820000a017800700007000cf0a70001f0a0009a
:10083000b90037006420e10002003a00838f6c00a9
:10084000b90033000801be000200be00b20037004c
:10085000889fbe008a9fbe008c1f78009d00070005
:10086000a400330003866c006450e1002e003200c7
:100870006420e100330032006150e1002f003200bb
:100880006120e1003100320085855500eb07b000a2
:100890000900200008042000050037000804440077
:1008a00089844c000a0031000603430087834b0013
:1008b0000001530081815b00f8ff33000203be009a
:1008c0000800a0000804440089844c00f6ff3900a9
:1008d000c639dd00830173000100320013002000df
:1008e0008904d1000884d3000998a30005003200d0
:1008f0000800a7000300a0008904d1000884d300e9
:100900008b05e8008904d1000884d3000001eb00c6
:100910000281d2003400070001f0a1000cf0a70012
:1009200001f0a0007c0037006420e1007e0032006e
:100930000801be000200be00f7ff37006120e100a1
:10094000790032006000b800f3ff3700000020009b
:1009500001f82700f0ff37000001be004800070043
:100960000470a70003f0a1006509b1001600320071
:100970000d0035006828e10006003500f0ff2f006b
:10098000f1ff27000300e00013003b0001002800f6
:100990000000050000004000818048008502e90059
:1009a000fcff3a0008003700f88f420002003c00cc
:1009b0008000eb00000005008100d1000080d30022
:1009c0008502e800fcff3a000300e00002003b0063
:1009d00060001000e0801800000006004f89de0073
:1009e0008201780087003700810020006180550077
:1009f0000b003d000b00200061fe2f000100e10014
:100a00001d00340082817100610164008904d100fd
:100a10000884d3000000e800faff3a0071002000cb
:100a200061006400030070000200600009003200f1
:100a300061044400e0844c000988a50005003200f0
:100a40008b05e8006808e10002003a008904d10043
:100a50000884d300f20f20000258e10005003d0099
:100a6000c75ddd00f907b2008980750008007800d5
:100a7000000006000bf827008b007800000005003e
:100a8000c70ade00f107b200f50fb200080032001d
:100a9000e1cf4200020032000170a00024000500f6
:100aa000810f7000010032000408050044000500b9
:100ab000810f700002003a00140005008502e90071
:100ac0000000400081c04800fcff3b000170a00016
:100ad000240005000004be00e9ff07000003be007b
:100ae0000405be000200be00e5ff0700844f75004c
:100af000000006000200be006450e1000500360060
:100b00006420e100020036000968a30001003a00f9
:100b10000800be000160a0004f0678004f05be002f
:100b20004f04be0000000600f0ff2f00f1ff270079
:100b3000f9ff3700889fbe008a9fbe008c1f780097
:100b4000e4ff0700ebff330003866c006450e10014
:100b5000240032006420e100270032006150e100ef
:100b6000220032006120e100210032008b8542002a
:100b7000eb07b1000134b800003ab80008044200a5
:100b800089844a00013ab8000030b80088804000eb
:100b900009014a0004003300000040008180480041
:100ba000020149008b05e900c909dd0083017000dd
:100bb0000100320013002000c814de004814dd00dc
:100bc0004709de001200b200c808de000884700089
:100bd00085ff070001f0a1000cf0a70001f0a000c4
:100be000cdff37006120e100cfff32000801be00d9
:100bf0000200be00f7ff37006150e100fcff3a0041
:100c0000c9ff3700881f7800030478000300e00064
:100c100007003d0060001000e0801800600119002e
:100c2000e081190002003b0001f02d0003003700b5
:100c30000400070008f0a70001f0a0004f047800ae
:100c400000000600889fbe008a9fbe0000827000e0
:100c50000402710004827100260032000004be000c
:100c60000200be006011b8006b0920009502200050
:100c70000182cf000a0039000541b1000082cf0097
:100c8000070039000541b1000982cf000400390096
:100c90000541b1000882cf00010039000541b100d3
:100ca00005425200120032000a003b0082817100ae
:100cb000610164008100d1000080d3008984d300e9
:100cc0000884d3008b05e8000442e800f7ff3a00ef
:100cd000070037000804440089844c0000004800e5
:100ce000818048008b05e9000442e900f9ff3a00e1
:100cf0003dff07004f05be004f04be000000060088
:100d00000000fa0068815700cfb8970060142100f6
:100d1000300007000080fa00000006000000fa0022
:100d200068815700cfb89700601421007d03070049
:100d30000080fa0000000600889fbe000004be008c
:100d4000050037000000fb0089007800410c070017
:100d5000e10f400004003200384078000004e00059
:100d6000f8ff3a000000eb004f04be000000060050
:100d7000881f780061142100efff0700000478004d
:100d800061142100a0002000320c07000800780048
:100d90004f04780000000600800078003104e00075
:100da000feff3a000080ea000080400000000600dc
:100db000d0019000028151004240a900030034009c
:100dc00010017800014978000208e800010078006d
:100dd00000000600f6874700889fbe008a9fbe007d
:100de0008c9fbe008e1f780000057800a1b79f0081
:100df000020778008004eb0092023700afb0970042
:100e00008100e800a1b79f0051c2b300814f50009c
:100e100003003a00afb097000004eb001100370068
:100e2000ba0090000000fb000168a3000700320038
:100e300009017800800078000a007800dcff0700d4
:100e40000000e00005003a007e0237008a007800ca
:100e5000000c0700e10f40007a0232008904e8002c
:100e6000780237000100780031417800d3c2b30026
:100e7000834f51000c00320007003c00edc15100cf
:100e8000834f51000a003200ebc14100834f5100f3
:100e90000d003a000800370003c3b300834f510030
:100ea00009003a00060037000830a000edff3700c7
:100eb0000800a000ebff37000810a000e9ff370092
:100ec0000820a000e7ff37000818a3000100320047
:100ed0000800a1000838a300010032000820a1008a
:100ee0008200fb000103b100e98f50000c003e00be
:100ef000000178008000eb00ea08b900b200fb00b6
:100f00000103b10080804000020078009201fb00e4
:100f10000303b100e98f5100f7ff360006003700e8
:100f20008000eb00a3c2b300834f510002003a00df
:100f3000ce0078000000e8008005eb00e2c2b300bc
:100f4000904f110008003a0008e0a00064415100f1
:100f5000d04f110002003200000178000600370077
:100f6000ce0578000000e800000178000800370096
:100f7000ea58b9008085410002007800b201fb0008
:100f80000303b100e98f5100f9ff3600f6ff370087
:100f900032407800a2b79f00c3c6b300834f500011
:100fa000250032000f003c0032c6b300824f5000d3
:100fb0008800320004003c000004e00026023200f9
:100fc0006b4151000f00370042c6b300824f500002
:100fd0001700320065414100824f500094003a00f2
:100fe0001300370032c7b300824f50001b0032009d
:100ff00007003c0064415100824f50001000320055
:101000000241e800824f500089003a000f0037008b
:1010100052c7b300824f50008a0032006341410042
:10102000824f500082003a00e0df9f000900370045
:10103000e0df9f00850037000840a000d4ff3700a4
:10104000e0df9f000860a00080003700e0df9f0025
:101050000850a0000870a0007c003700e0df9f006f
:101060004e007800000678000000e00001003a0021
:10107000ec0821000c0178000000eb0001003700b3
:101080000000e800800141001304e000fcff3a008a
:10109000800678000b00e000030032008d8f5500c1
:1010a000010031008b0678008005eb008d8f500029
:1010b000010036008d855000680464002a003a0063
:1010c000110037003a0090000068a30007003200ca
:1010d00009017800010220000a00780034ff0700af
:1010e0000000e00006003a00060037008a007800a1
:1010f00000022000570b0700e10f40000100320002
:101100008904e8008b05e9000b00e000edff3a00e0
:101110008085eb00140037003a0090000068a300bf
:10112000090032000c007800b000fb0000067800d7
:10113000090178000a0078001dff07000000e000a8
:1011400008003a00080037008c0078003100fb00ee
:10115000010678008a0078003e0b0700e10f40008e
:10116000010032008904e8000d0078008006e900e3
:101170000000e000e8ff3a000800e000b1013200a2
:10118000110037003a0090000068a3000700320009
:1011900009017800010220000a00780004ff07001e
:1011a0000000e00006003a00060037008a007800e0
:1011b00000022000270b0700e10f40000100320071
:1011c0008904e8008b05e9000b00e000edff3a0020
:1011d0009c0137004e017800cf91de00c81ade0076
:1011e0004818dd004812de0004027000e4df9f00b2
:1011f0000848a300080032000404e00006003200a2
:10120000e14f420004003200f4df9f0082e79f00bc
:101210002d00200002003700f2df9f001d0020009b
:10122000e2fd2f000f0141000206e80099ff3700a0
:10123000e0df9f00ecfd2f000f0646001d002000a0
:1012400094ff3700e0df9f00080cb300080178002e
:10125000020cb200700064000200e0000f003a00cf
:101260000000e00004003200640757001e0678000a
:101270009e069000020037004e067800cfe6de00a2
:10128000e00f5600e08f5e000c003d003800b30018
:1012900060061600e0861e00080037000000e0002f
:1012a00004003200640757001e0678009e06900076
:1012b000020037004e0678008006eb000b00e000cd
:1012c00005003a008c8576000bf0a7008b05ea003c
:1012d0008b05e900cf5dde0088017800030cb200c9
:1012e000e3b79f0000042000808f510023003200ec
:1012f00003003c000300e000080032002d0037002e
:10130000000820006fb29700800f52000d003200dd
:10131000000c2000800f520026003a0062092100d4
:1013200010c0b30064014100b20f5600a28f5e00ee
:101330001f0039000040e800ea4f5000f9ff3a0072
:101340001b00370010c0b300020120000300200082
:10135000820f5600838f5e0015003900441add00ad
:10136000cc11de00830172004411dd000040e80072
:10137000e84f5000f6ff3a000d00370010c0b300f0
:101380008200200003002000820f5600838f5e0041
:1013900007003900431add00cd11de008301720021
:1013a0004311dd000040e800eb4f5000f6ff3a002b
:1013b000e0df9f006fd997000200fb008b0f500009
:1013c00002003d00ebdf9f0003003700808f5500d7
:1013d00001003d00800578000100e00003003200bc
:1013e00063006400010032008100e90008e8a30006
:1013f000050032008b8f5000020034008b805000bb
:10140000010037008000eb00efd997000300fb00dc
:101410000002eb00d4b79f00808f50000200340020
:1014200000805000d0b79f000828a3004000320081
:10143000610164000818a3000f0032003a00900018
:101440000068a30006003200b10220000200e000a4
:10145000010032008180e800090178000d003700aa
:10146000b00220000200e000010032000080e8002d
:101470008a0078000e0037000200e0001000320001
:101480003a0090000068a3000700320009017800cc
:10149000010220000a00780045fe07000000e0007d
:1014a00006003a00060037008a007800000220009b
:1014b000680a0700e10f4000010032008904e800db
:1014c0005fb097000000e0005a003200bcb79f00f8
:1014d000cdb79f00800678003a0090000068a30016
:1014e0000700320009017800010320000a0078009b
:1014f0002ffe07000000e00006003a00060037005b
:101500008a00780000032000520a0700e10f400023
:10151000010032008904e8008d06e900eeff3a0080
:10152000ddb79f003fb69700cfb697004100370068
:10153000dfb197000300e0001a0032000838a30072
:1015400018003a00bcb79f00cdb79f008306780013
:101550003a0090000068a3000700320009017800fb
:10156000010220000a00780011fe07000000e000e0
:1015700006003a00060037008a00780000022000ca
:10158000340a0700e10f4000010032008904e8003e
:101590008d06e900eeff3a00ddb79f003fb69700e9
:1015a000cfb69700610164000818a3000f00320055
:1015b0003a0090000068a30006003200b10220004b
:1015c0000200e000010032008180e800090178009b
:1015d0000d003700b00220000200e00001003200e0
:1015e0000080e8008a0078000e0037000200e0006a
:1015f000100032003a0090000068a300070032009b
:1016000009017800010220000a007800e8fd0700c7
:101610000000e00006003a00060037008a0078006b
:10162000000220000b0a0700e10f40000100320019
:101630008904e8000b03e900e331b900b2b79f0069
:101640004233dd0060092100000343008e01780071
:1016500093b79f0008077800060478005d00370004
:101660008b05e900000420006fb29700800f520044
:101670003900320003003c000400e00008003200a2
:101680003f00370000082000efb09700808f500027
:1016900021003200000c2000808f500038003a00fa
:1016a0000e48a30011003200180278009802900042
:1016b0000401be000c00be00f4b79f0085bf9f0070
:1016c000b70a0700e0df9f000000fb00cf80de00cc
:1016d0007fb297008fba97000401be00c30a0700cb
:1016e0000006560081865e0007003700180178006a
:1016f000110009000286d800a20020001100090094
:101700000280d800e1df9f006fd997000243b0004c
:10171000e2df9f001a003700d00721000e58a30017
:1017200001003200c006210061092100810054003f
:101730000c01be008100e900030033008301d100e9
:101740000281d300fbff3700ef0061000100400081
:1017500010407800090037000c00be003fb297002f
:101760000402e900030033008100d1000080d300af
:10177000fbff3700674060000043b000e0df9f00e0
:10178000ba0090006fd997000200fb000168a30027
:101790000700320009017800800078000a00780014
:1017a00083fd07000000e00005003a000500370057
:1017b0008a007800a7090700e10f4000010032000d
:1017c0008904e8003fb2970063025200b4b79f005b
:1017d000640454000b00e000a1ff3a000e047800fe
:1017e0001fb797000838a300160032005fb09700bb
:1017f0000000e00013003400000478003a0090007c
:101800000068a300070032000901780001022000ef
:101810000a00780066fd07000000e00006003a00bc
:10182000060037008a0078000002200089090700be
:10183000e10f4000010032008904e8000804e900db
:10184000eeff3a00afb0970011407800e0df9f0054
:101850000004e00069fd3a00090078004f077800b5
:101860004f06be004f05be004f04be006f01b10021
:1018700000000600889fbe008a9fbe000084fb0017
:10188000d1c6b300814f5000230036004b06200024
:10189000110009000b84d800810578007200400017
:1018a0004200dd008a032100000045000200200004
:1018b00003f0230090009000100078009dfc0700ca
:1018c0000002be00a9002000110009008985d8008f
:1018d00080057800e9854500c25ddd008b05450087
:1018e0001b0178009b0190000400be0091fc0700e2
:1018f0000002be00110009000984d800010478002c
:101900004244dd00080545001a0178009a01900064
:101910000400be001b003700ea4f500012003600e2
:10192000aa002000110009000a84d80001057800ef
:10193000690440004244dd0089032100088444001a
:101940000200200003f023001800780098009000a7
:1019500078fc07004255dd008a84440019017800b4
:1019600099019000070037004244dd008003210008
:10197000080440000200200003f023001800780053
:10198000980090006bfc07004f05be004f04be009e
:1019900000000600889fbe008a1f7800d1c6b300f1
:1019a0000004e00028003d000040ea000004fb00c5
:1019b000814f50000f003400420620001100090042
:1019c0000204d800a9002000110009008900d800f5
:1019d000e9004000c208dd008a03210081004500c3
:1019e00011017800910190002084800031848000f2
:1019f00026003700ea4f500010003400a2002000fb
:101a0000110009000204d8000101780069004000bb
:101a10004200dd0081032100008040004211dd0012
:101a200082804000110178009101900090009000a8
:101a3000100078003ffc07002e0037004244dd0014
:101a400080032100280037000004fb00814f500074
:101a50001900340042062000110009000204d800d9
:101a6000a9002000110009008900d800e900400009
:101a7000c208dd004a002100810045001101780004
:101a800091019000808280009182800029fc0700f3
:101a90000002be00110009000904d800010478000a
:101aa0004244dd00080545001a0178009a019000c3
:101ab0000400be00dfff3700ea4f5000080034008a
:101ac000a2002000110009000204d80001017800e2
:101ad000690040004200dd0041002100ceff3700d8
:101ae0004244dd0040002100080440001800780056
:101af000980090004f0578004f04be0000000600db
:101b0000d0019000028151004240a900030034003e
:101b100010017800014978000208e800010078000f
:101b200000000600af02b000889fbe008a9fbe0082
:101b30008c9fbe008e1f780000077800a1af9f0029
:101b4000f2af9f006055b8000000eb00c0b79f00e7
:101b5000b4083700afa897008100e800a1af9f004c
:101b600051c2b300814f500003003a00afa9970063
:101b70000000eb0013003700be0090000000fb00e7
:101b80000168a300070032004fb197008000780081
:101b90000e007800daff07000000e00005003a00c0
:101ba000a00837008e007800aa080700e10f400067
:101bb0009c0832004fb197000201e800c2b79f00b5
:101bc000980837008300780033417800b4c2b3002e
:101bd000844f51001300320007003c006b4252005a
:101be000844f51000d00320063424200844f510087
:101bf00012003a000d003700d4c2b300844f5100e8
:101c00000400320063424200844f51000b003a004e
:101c1000080037000030a000eaff37000000a000f5
:101c2000e8ff37000010a000e6ff370000b0a0007a
:101c3000e4ff37000020a000e2ff37000018a300f7
:101c4000010032000000a1000038a30001003200b2
:101c50000020a1008201fb000303b100e98f5100c5
:101c60000e003e00010178008001eb0093b79f0059
:101c7000ea1ab900b201fb000303b10084814100fc
:101c8000820078001202fb000403b100e90f520049
:101c9000f7ff360093b79f000a0037000002eb0001
:101ca00094b79f00a3c2b300834f510005003a00d0
:101cb000ffaa970045017800f5af9f0092b79f00fb
:101cc0008100e800e2c2b300914f110019003a0010
:101cd00000e0a000a0b79f00a0c2b300d14f100049
:101ce00004003200010078008001eb0083b79f0000
:101cf000090037007faa9700c4027800f4af9f0064
:101d000085b79f008100e800afb197000e00370053
:101d1000ea1ab90084014100800078003001fb001c
:101d20000203b100e90f5100f9ff360083b79f00ad
:101d3000f5ff370000c0a000a0b79f000000eb0037
:101d400080b79f00f0ff370031407800a1af9f00bf
:101d500072c6b300824f50003500320018003c00bc
:101d6000a3b79f0031c6b300814f5000d0003200ae
:101d70000e003c00fcc05000814f50004200320079
:101d800006003c000004e0002b08320081c0e9009e
:101d9000814f5000e0003a003300370081c5b300a6
:101da000814f5000dc003a004400370051c6b300b8
:101db000814f50002100320026003c0021003700f6
:101dc00002c7b300824f50003b0032000b003c00c2
:101dd00064415100824f50001c003200a3b79f00a5
:101de000f1c6b300814f50002e003200e6c0500013
:101df000814f5000c8003a0012003700a3b79f007f
:101e000051c7b300814f5000c8003200e3c040000a
:101e1000814f500004003200e5c05000814f500057
:101e2000bd003a002d003700a0cf9f0027003700eb
:101e3000a3b79f00a0cf9f0017003700a0cf9f003f
:101e40000d003700a0cf9f00bc0037000340a0006a
:101e5000bdff3700a0cf9f00afb1970003a0a00047
:101e6000a3b79f00b5003700a0cf9f002fb2970007
:101e70000450a000a4b79f00afb297000580a00057
:101e8000a5b79f00ad003700a0cf9f002fb09700ef
:101e90000050a000a0b79f00afb097000190a00035
:101ea000a5003700a0cf9f002fb197000260a000cf
:101eb000a2b79f00a1003700a3b79f00a0cf9f004b
:101ec000afb197000350a000a3b79f002fb29700b7
:101ed0000470a000a4b79f0098003700a0cf9f0017
:101ee000ffaa970045007800f5af9f000006780034
:101ef0000000e00001003a000c0e21008c00780088
:101f00000000eb00010037000000e8000081400005
:101f10001204e000fcff3a00800678000fb0970042
:101f20000000e000030032008d0f5000010031007e
:101f3000800678000004eb009fb097008d8f500062
:101f4000010036000d8450002fb19700e8046100b5
:101f500035003a00acb79f00bdb79f000a06be002f
:101f6000cfb59700110037003e0090000068a30035
:101f7000070032000b017800010220000e007800fb
:101f8000dffe07000000e00006003a000600370010
:101f90008e00780000022000ae070700e10f40002d
:101fa000010032008b05e8000804e9000800e000a9
:101fb000edff3a00cbb79f000c05be002fb697008f
:101fc000bfb697000084eb00aab79f00bbb79f0085
:101fd000170037003e0090000068a300090032009f
:101fe0000c007800b000fb00000678000b017800c0
:101ff0000e007800c2fe07000000e00008003a0072
:102000000c0037008c0078003100fb0001067800de
:102010008e0078008f070700e10f400005003200b6
:102020008b05e80003003700aab79f00bbb79f00ed
:10203000cfb597000d0078008006e9000000e000b1
:10204000e4ff3a00cbb79f002fb59700bfb59700cc
:102050000900e00073073200cfb497001100370089
:102060003e0090000068a3000700320009017800dc
:10207000010220000e007800a1fe07000000e00031
:1020800006003a00060037008e00780000022000ab
:1020900070070700e10f4000010032008904e800ea
:1020a0000804e9000800e000edff3a005c07370093
:1020b000ffa9970043007800f3af9f00cf80de00b8
:1020c000c809de00480add004801de000201720096
:1020d000a2cf9f00afb297000548a30008003200ce
:1020e0000204e00006003200e14f4100040032002b
:1020f000b2cf9f00c0cf9f002d002000020037000c
:10210000b0cf9f001d002000a0fc2f000f0040005a
:102110000006e80081ff3700a0cf9f00acfc2f0035
:102120000f0646001d0020007cff3700a0cf9f0057
:10213000afb09700010cb300a1b79f000170200061
:102140002fb1970081006100700061000100e00084
:10215000ee04320002c8a300020032006300200037
:1021600083b79f000000e0000a0032007faa9700ba
:10217000680252001400780094009000240190003e
:10218000b4019000f4af9f00da0707000004be001e
:1021900005003700ffaa9700e4825200150478007a
:1021a00095049000f5af9f006011b8000800be00d4
:1021b000aa0707000000e00004003d0009f0a200ab
:1021c0002fb097003000b300a0b79f000000eb00d5
:1021d000f0a79f006011b8000800be00c00707000c
:1021e0000000e00024003200e2fc2f000f0141005b
:1021f0000800be00bc0707007fa097000000e900b0
:10220000e300b900a2002000110009000200d8007c
:10221000f0a79f000000e00002003d000000e90080
:10222000f0a79f007fa697000c40ea00d9fd0700a9
:102230000801be003ffa07000005be0002002000b2
:1022400003f82300850707000000e00002003d00be
:102250000c06e900070037000200200003122400ea
:102260000a00be007f0707000000e0000200350002
:102270000c06e800fca79f007fa69700afb0970070
:102280000188a30007003a000198a300b2023200bf
:10229000e40f4600030035000fb19700820f56008f
:1022a000690235008fb197000300e000050032009d
:1022b0002fb297000498a300020032008301e900c6
:1022c00083b79f008fb2970080c0b300e88f5200a1
:1022d00001003e000fe09700a0cf9f006011b80002
:1022e0000800be007e0707000000e0003300320057
:1022f000afce97000d405600a6fd07000001be00be
:102300000800be0052f907000004be00570707008e
:10231000710707000001be000800be00eef80700cc
:102320000200200003f023004e0707000000e00039
:10233000050035000200200003f023000800be0065
:10234000e6f807000004be000800be0047070700cb
:102350000d01fb008201e800c219dd00840e21009e
:1023600083014200b30f5000a38f580007003900cb
:10237000d2cc2c00c3dc23000800be00edf907001e
:102380000004be000c06e8000b0037004211dd001f
:1023900002014200b20f5000a28f58000700310026
:1023a00002002000031224000800be00e1f907002b
:1023b0000004be000c06e900fca79f0001a020005d
:1023c0002fb197008100610000202000808f500015
:1023d00026003a008fb19700ea8f510002003400c6
:1023e000a400200084b79f000800be001f0707005c
:1023f000070037008fb297008502e90085b79f007c
:10240000a2002000030020000c00be0064070700ab
:102410000006be00e00f5000e08f580006003200ba
:10242000a2002000030020006d070700e00f50000d
:10243000e08f5800efff32002fc897008000fb00ac
:102440000fb19700810f510008003d00024050007d
:1024500050fd07000001be000800be00fcf80700a8
:102460000004be008fe19700a3cf9f001fb297002a
:10247000650052008fb297000500500090b79f0092
:102480000500e00003003a002fb0970000b8a30059
:10249000030032009fb097008100e90091b79f00d0
:1024a0002fb1970063006100030032009fb19700d5
:1024b0008301e90093b79f002fb297000428a3007f
:1024c000530032003e009000610162000418a30036
:1024d000180032000068a3000a003200b102200098
:1024e0000200e000010032008180e8004fb1970057
:1024f0000e00780082fd07000000e00009003a00ad
:102500003a003700b00220000200e0000100320073
:102510000080e8008e0078004e060700e10f4000c2
:1025200032003200cfb297008502e800050678003d
:102530002f0037000200e0002c0032000068a300ea
:10254000070032004fb19700010220000e00780012
:102550006bfd07000000e00006003a002300370092
:102560008e007800000220003a060700e10f4000cc
:102570001e0032004fb097000000e800000678000f
:102580001b0037003e0090000068a3000b003200e3
:102590000c017800010320000e007800f4b79f00c2
:1025a00085bf9f0056fd07007fb297008fba970046
:1025b0000000e0000a003a000a0037008e007800b0
:1025c00000032000f4b79f0085bf9f00210607008d
:1025d0007fb297008fba9700e10f400001003200f0
:1025e0000c06e8008904e900030037004fb69700a5
:1025f0000802be009fb497000900e000e1ff3c0024
:1026000099b79f00ccb79f000404be004f0037006d
:10261000afb097000138a3001c003a004fb69700f6
:10262000d8af9f00e9af9f009fb49700110037001b
:102630003e0090000068a300070032000c01780003
:10264000010220000e0078002dfd07000000e000d0
:1026500006003a00060037008e00780000022000d5
:10266000fc050700e10f4000010032000c06e80005
:102670008904e9000900e000edff3c0099b79f00e4
:10268000ccb79f005fac9700efac97003e00900086
:10269000afb19700618161000318a30018003200f8
:1026a0000068a3000a003200b10220000200e0002e
:1026b000010032008180e8004fb197000e007800e1
:1026c0000ffd07000000e00009003a001f0037007e
:1026d000b00220000200e000010032000080e800ab
:1026e0008e007800db050700e10f40001700320084
:1026f0004fb297000402e800c4b79f0013003700f0
:102700000200e000110032000068a3000700320060
:102710004fb19700010220000e007800f8fc07007e
:102720000000e00006003a00080037008e00780044
:1027300000022000c7050700e10f4000030032003f
:10274000cfb297008502e800c5b79f000800be0021
:10275000460607000006be003e019000800e2100e4
:10276000afc997008300fb000268a3000e0032008f
:10277000c208dd00010040001001780090019000c7
:102780000c00be0086060700010320008080400088
:102790004fb197000e007800d9fc07000000e00060
:1027a0000e003a0010003700c208dd0001004000b2
:1027b00010017800900190000c00be007806070020
:1027c00002032000000141008e0078000200780022
:1027d000a0050700e10f4000030032004fb2970050
:1027e0000402e800c4b79f00afca97000500fb00d1
:1027f0004200dd00810e21000080400010017800c1
:10280000900190000c00be00750607000006be0097
:102810000fb097000000e00003003a00afb097004f
:1028200001b8a300690032003e0090000068a300d8
:10283000070032004fb19700e10220000e0078003f
:10284000affc07000000e00006003a000800370077
:102850008e007800e00220007e050700e10f4000b6
:10286000030032004fb197000201e800c2b79f0099
:102870002fcc9700cfb4970036003700afb1970048
:102880000398a30008003200e00f5600e08f5e00be
:1028900005003a00c9b79f000042eb00a4cf9f009b
:1028a0000004eb00460037003e019000800e21003e
:1028b0008100fb000268a3000e003200c208dd00a8
:1028c0000100400010017800900190000c00be0053
:1028d00033060700010320008080400009017800d2
:1028e0000e00780086fc07000000e0000e003a00b1
:1028f0000e003700c208dd00010040001001780022
:10290000900190000c00be00250607000203200085
:10291000000141008e007800020078004d0507009c
:10292000e10f4000010032008904e800afca9700bf
:102930000500fb004200dd00810e21000080400008
:1029400010017800900190000c00be0024060700e2
:102950000006be002fc897008040e900a1cf9f006d
:102960000004e000c5ff3a00c9b79f000804fb005f
:102970000fb0970008045000110037003e0090008f
:102980000068a3000700320009017800010320005d
:102990000e0078005afc07000000e00006003a0034
:1029a000060037008e00780000032000290507008c
:1029b000e10f4000010032008904e8000804e9004a
:1029c0000800e000edff3a00c9b79f003e0090000c
:1029d000afb097000158a300120032000068a300b6
:1029e000070032004fb19700510420000e0078001c
:1029f00043fc07000000e00006003a001a00370020
:102a00008e0078005004200012050700e10f4000fe
:102a1000150032004fb197000201e800c2b79f00d5
:102a2000110037000068a300070032004fb1970083
:102a3000510620000e00780031fc07000000e00085
:102a400006003a00080037008e007800500620008b
:102a500000050700e10f400003003200cfb19700ee
:102a60008301e800c3b79f00ffa097003e009000dd
:102a70000100e00014003d008100ea00f1a79f0082
:102a80000068a300070032004fb19700d102200078
:102a90000e0078001afc07000000e00006003a0073
:102aa0001a0037008e007800d0022000e9040700e9
:102ab000e10f4000150032004fb297000402e80019
:102ac000c4b79f00110037000068a3000700320060
:102ad0004fb19700b10220000e00780008fc0700fb
:102ae0000000e00006003a00080037008e00780081
:102af000b0022000d7040700e10f400003003200bd
:102b0000cfb297008502e800c5b79f00be009000d5
:102b10007fa097000168a3000b003200a2002000f4
:102b2000110009000200d80001032000808040004d
:102b30004fb197000e007800f1fb07000000e000a5
:102b400009003a000b003700a20020001100090024
:102b50000200d8000003b0008e007800bd0407001a
:102b6000e10f4000030032004fb097000000e80082
:102b7000c0b79f00be0090007fa097000168a3002f
:102b80000a003200a2002000110009000200d80053
:102b90000103b0004fb197000e007800d8fb07008a
:102ba0000000e0000a003a000c003700a2002000fc
:102bb000110009000200d8000003200001004000bd
:102bc0008e007800a3040700e10f400003003200ec
:102bd000cfb097008100e800c1b79f002fb19700e8
:102be0000238a3008f0432009fb197000300e00079
:102bf0008c04340003047800cfb497003e009000aa
:102c00000068a300070032000901780001022000db
:102c10000e007800bafb07000000e00006003a0052
:102c2000060037008e0078000002200089040700ab
:102c3000e10f4000010032008904e8000804e900c7
:102c4000eeff3a00760437000c00e00004003d007f
:102c50000c86ea000fb297000c02420084b79f0076
:102c60000800be0001050700d0af9f00e1af9f0044
:102c7000410e21000040eb0007003700e4804000d7
:102c80005faa9700efaa9700b10f5200a18f5a00d8
:102c9000030039000040e800ea4f5000f7ff3a0017
:102ca0000000fb008fb297008082520085b79f0022
:102cb000ec8f520006003c0005407800edfa07005a
:102cc0000001be000800be0084f607000004be003c
:102cd0000fe097002ffb07000006be005fa89700db
:102ce000efa89700fc0407000001be000800be002a
:102cf00079f607000001be000c00be008df707004a
:102d0000da0407000006be0008003700a200200019
:102d1000030020000c00be00210507000006be00d5
:102d20000fb097000000e90080b79f008fb09700b8
:102d30000100e00011003200a2002000030020008a
:102d40000c00be0026050700e00f5000e08f580081
:102d5000eeff3200090037000fb19700ec0f510071
:102d600006003c0002407800c2fa07000001be00e5
:102d70000800be0059f607000004be007fa69700b9
:102d8000e90f56000c003c006011b8000800be00be
:102d9000d30407000000e0001b0032000800be0062
:102da000b2040700e00f5000e08f580016003a0010
:102db000e10f560014003400f205270093082400a8
:102dc0000a00be00a50407000000e00002003d006c
:102dd000690656000100370068065600fca79f00f0
:102de0006fc89700ebfa07000005be000001be00a7
:102df0000800be0096f607009c0407000006be000f
:102e00006044b8000a0037000800be0097040700bd
:102e10000006be00b00407000001be000800be00ae
:102e20002df607000004be000000eb00f0a79f0095
:102e3000810e210010c0b30005003700e48040007f
:102e4000b10f5600a18f5e00030039000040e8007a
:102e5000ea4f5000f9ff3a00a0cf9f00ffa0970073
:102e60009fb19700818051000fb29700848050007d
:102e70000000fb000080500090b79f000080200001
:102e8000afb2970000806200d0af9f0002003a000e
:102e90000400e000030032001fb097000000e900ca
:102ea00090b79f00afb097006380600003003200ce
:102eb0001fb197000201e90092b79f00afb19700e0
:102ec0000328a3005e003200618161000318a300a3
:102ed000190032003e0090000068a3000a00320092
:102ee000b10220000200e000010032008180e80011
:102ef0004fb197000e00780001fb07000000e000d2
:102f000009003a0043003700b00220000200e00050
:102f1000010032000080e8008e007800cd03070039
:102f2000e10f40003b0032004fb297000402e8007e
:102f3000c4b79f00370037000200e00035003200c0
:102f40003e0090000068a300070032004fb19700d8
:102f5000010220000e007800e9fa07000000e000fe
:102f600006003a002b0037008e0078000002200097
:102f7000b8030700e10f400026003200cfb29700ef
:102f80008502e800c5b79f00220037003e00900090
:102f90000068a3000f0032000d017800010320003b
:102fa0000e007800f4b79f0085bf9f00d6b79f0042
:102fb000e7b79f00d2fa07007fb297008fba970059
:102fc0005fb39700efb397000000e0000e003a00f7
:102fd0000e0037008e00780000032000f4b79f0039
:102fe00085bf9f00d6b79f00e7b79f0099030700f2
:102ff0007fb297008fba97005fb39700efb3970047
:10300000e10f4000010032008d06e8008904e9006c
:10301000040037000802be009fb497000c03be00f6
:10302000cfb697000900e000d8ff3c0099b79f0099
:10303000cdb79f000404be000606be007e00370028
:103040002fb097000038a30020003a00b8af9f00cf
:10305000c9af9f009fb497008caf9f009daf9f00aa
:10306000cfb69700110037003e0090000068a30023
:10307000070032000d017800010220000e007800e8
:103080009ffa07000000e00006003a000600370043
:103090008e007800000220006e030700e10f400060
:1030a000010032008d06e8008904e9000900e00013
:1030b000edff3c0099b79f00cdb79f003fac970054
:1030c000cfac97000fae97009fae9700afb29700be
:1030d000618162000518a300190032003e009000d3
:1030e0000068a3000a003200b10220000200e000e4
:1030f000010032008180e8004fb197000e00780097
:103100007ffa07000000e00009003a004a0037009b
:10311000b00220000200e000010032000080e80060
:103120008e0078004b030700e10f400042003200a0
:103130004fb097000000e800c0b79f003e00370086
:103140000200e0003c0032003e0090000068a30056
:10315000070032004fb19700010220000e007800f6
:1031600067fa07000000e00006003a00320037006e
:103170008e0078000002200036030700e10f4000b7
:103180002d003200cfb097008100e800c1b79f004a
:10319000290037003e019000810e21000000fb0055
:1031a0000268a300110032004200dd0000804000f0
:1031b00010017800900190000c00be00f803070099
:1031c000a2002000030020000504070001032000e6
:1031d000808040004fb197000e00780048fa070049
:1031e0000000e00011003a00130037004200dd004b
:1031f0000080400010017800900190000c00be009b
:10320000e7030700a200200003002000f4030700ea
:1032100002032000000141008e00780002007800c7
:103220000c030700e10f4000030032004fb197008c
:103230000201e800c2b79f00afc897000140e90053
:10324000a0cf9f000104e000d2ff3a000806be00b4
:10325000cfb49700130037003e0090000068a30031
:103260000700320009017800010320000e007800f9
:1032700023fa07000000e00006003a0006003700cd
:103280008e00780000032000f2020700e10f4000ea
:10329000010032008904e8007fa097000000e900e7
:1032a000f0a79f007fa097000000e000eaff3c002d
:1032b000c9b79f000c04be008fb19700e88f510082
:1032c0000300340080c0b300a0cf9f00020037008d
:1032d0000fe29700a4cf9f002fc897008000fb004b
:1032e0008fb297008180520081b79f000004e000f8
:1032f00003003a005fa897000000e00012003200cf
:103300003e0090000068a300070032004fb1970014
:10331000e10220000e007800f9f907000000e0004b
:1033200006003a00080037008e007800e002200016
:10333000c8020700e10f400003003200cfb0970041
:103340008100e800c1b79f002fc8970091f90700de
:103350000001be000800be00f6f5070043030700a9
:103360000006be004fb49700310037003e019000c8
:10337000800e21008100fb000268a30011003200d2
:10338000c208dd00010040001001780090019000ab
:103390000c00be0082030700a200200003002000f2
:1033a0008f0307000103200080804000080178009f
:1033b0000e007800d2f907000000e00011003a008a
:1033c00011003700c208dd00010040001001780044
:1033d000900190000c00be0071030700a2002000c5
:1033e000030020007e0307000203200000014100cb
:1033f0008e0078000200780096020700e10f40007e
:10340000010032000804e8002fc997000200fb0009
:103410004200dd00810e2100008040001001780094
:10342000900190000c00be006d0307000006be0076
:103430002fc897008040e900a1cf9f000004e00062
:10344000caff3a00c8b79f000fb49700cfb49700e7
:10345000110037003e0090000068a3000700320012
:1034600009017800010320000e007800a4f907008c
:103470000000e00006003a00060037008e007800e9
:103480000003200073020700e10f4000010032003a
:103490008904e8000804e9000800e000edff3a00b4
:1034a000c9b79f00afb197000338a3005d02320097
:1034b0001fb297000400e0005a02340004047800b0
:1034c0003e0090000068a300070032000901780068
:1034d000010220000e00780089f907000000e000da
:1034e00006003a00060037008e0078000002200037
:1034f00058020700e10f4000010032008904e80093
:103500000804e900eeff3a0045023700afb097002b
:10351000010cb20015003a000000e0000600320085
:10352000ffaa9700e48252001506780095069000e5
:10353000f5af9f00040037007fa897004006780091
:10354000f0af9f00cfe6de00e00f5600e08f5e0098
:1035500012003d00afb097003100b300a1b79f004b
:1035600060061600e0861e000c0037000000e00038
:10357000060032007fa9970064015100120678000e
:1035800092069000f2af9f0004003700ffa9970059
:1035900043067800f3af9f008006eb000fb2970060
:1035a0000400e00006003a000c80760000f0a7005e
:1035b0000000ea000000e9004f00de0080b79f0035
:1035c000afb29700050cb200b5af9f000004200019
:1035d000808f52002300320003003c000500e00011
:1035e000080032002d00370000082000bfa8970017
:1035f000808f50000d003200000c2000808f5000a2
:1036000026003a00810e210010c0b300e480400083
:10361000b10f5600a18f5e001f0039000040e80086
:10362000ea4f5000f9ff3a001b00370010c0b3000a
:103630000201200003002000820f5600838f5e00ed
:1036400015003900441add00cc11de008301720040
:103650004411dd000040e800e84f5000f6ff3a005a
:103660000d00370010c0b3008200200003002000ce
:10367000820f5600838f5e0007003900c31add00f9
:10368000cd11de00838172004311dd000040e800af
:10369000eb4f5000f6ff3a00a0cf9f00afc8970055
:1036a0000100fb000fb19700820f500002003d00a7
:1036b000a2cf9f00040037008fb19700808f510088
:1036c00001003d0080b79f001fb297000400e0009a
:1036d00005003200afb29700638062000200320042
:1036e0000402e90094b79f002fb0970000e8a30000
:1036f000090032009fb097000fb19700828f5000f1
:10370000030034008280500091b79f000200370010
:103710008001eb0093b79f00418c20002fb29700ef
:103720008100620000842000808f500006003a0073
:103730009fb297000500e000110032008502e90009
:1037400095b79f000e003700018c20002fb0970026
:103750008100600000882000808f500008003a003f
:103760009fb09700e28f5000030034008180e90091
:1037700091b79f00020037000001eb0092b79f0055
:10378000afc997000300fb000002eb00d4af9f001d
:103790009fb29700808f52000200340000805200d8
:1037a000d0af9f002fb097000028a3007d0032000b
:1037b000610160000018a300190032003e00900073
:1037c0000068a3000a003200b10220000200e000fd
:1037d000010032008180e8004fb197000e007800b0
:1037e000c7f807000000e00009003a005300370066
:1037f000b00220000200e000010032000080e8007a
:103800008e00780093010700e10f40004b0032006a
:10381000cfb097008100e800c1b79f004700370094
:103820000200e000130032003e0090000068a30098
:10383000070032004fb19700010220000e0078000f
:10384000aff807000000e00006003a003b00370038
:103850008e007800000220007e010700e10f40008a
:10386000360032004fb197000201e800c2b79f0056
:1038700032003700018c2000afb1970081806100d9
:1038800000882000808f50002c003a003e009000fd
:103890000068a300070032004fb197000103200029
:1038a0000e00780096f807000000e00006003a00dd
:1038b000080037008e007800000320006501070033
:1038c000e10f4000030032004fb297000402e8000d
:1038d000c4b79f003e0090002fb197000202b200d3
:1038e0000068a3000a003200810720000200e00007
:1038f00001003200810520004fb197000e007800d2
:103900007ff807000000e00009003a000b003700d4
:10391000800720000200e000010032008005200046
:103920008e0078004b010700e10f400003003200d9
:10393000cfb297008502e800c5b79f005fa8970047
:103940000000e000ac00320000047800cfb4970023
:103950003e0090000068a3000700320009017800d3
:10396000010320000e00780065f807000000e00069
:1039700006003a00060037008e00780000032000a1
:1039800034010700e10f4000010032008904e80023
:103990000804e900eeff3a00d8af9f00c9b79f00c6
:1039a00095003700dfa897000100e0001900320001
:1039b0002fb197000238a30016003a0001047800e6
:1039c000cfb497003e0090000068a30007003200cb
:1039d00009017800010220000e00780048f8070075
:1039e0000000e00006003a00060037008e00780074
:1039f0000002200017010700e10f40000100320023
:103a00008904e8000804e900eeff3a00d8af9f00ff
:103a1000c9b79f00afb19700618161000318a3008f
:103a2000190032003e0090000068a3000a00320036
:103a3000b10220000200e000010032008180e800b5
:103a40004fb197000e0078002df807000000e0004d
:103a500009003a0020003700b00220000200e00018
:103a6000010032000080e8008e007800f9000700b5
:103a7000e10f4000180032004fb297000402e80046
:103a8000c4b79f00140037000200e00012003200ab
:103a90003e0090000068a300070032004fb197007d
:103aa000010220000e00780015f807000000e00079
:103ab00006003a00080037008e007800000220005f
:103ac000e4000700e10f400003003200cfb297008e
:103ad0008502e800c5b79f00008c2000afb09700ba
:103ae0000080600001842000810f500013003a0024
:103af0003e0090000068a300070032004fb197001d
:103b0000010320000e007800fdf707000000e00030
:103b100006003a00380037008e00780000032000cd
:103b2000cc000700e10f4000330032004fb1970096
:103b30000201e800c2b79f002f0037000188200073
:103b4000810f50002c003a003e0090000068a30056
:103b5000070032004fb19700010320000e007800eb
:103b6000e7f707000000e00006003a000800370011
:103b70008e00780000032000b6000700e10f40002f
:103b800003003200cfb197008301e800c3b79f0064
:103b90003e0090002fb197000202b2000068a3001f
:103ba0000a003200810720000200e000010032001c
:103bb000810520004fb197000e007800d0f7070074
:103bc0000000e00009003a000b00370080072000e9
:103bd0000200e00001003200800520008e00780025
:103be0009c000700e10f4000030032004fb2970035
:103bf0000402e800c4b79f008fb297000502e900f5
:103c0000e320b90090b79f004222dd00800e210022
:103c1000000242008aaf9f009baf9f00040478001f
:103c2000bfac97005f0037008fb197008301e900b8
:103c300083b79f0000042000808f540038003200ba
:103c400003003c000900e000070032003e0037009e
:103c500000082000808f54001f003200000c20005c
:103c6000808f540038003a002fb297000400e00023
:103c700003003500afb297000548a3000d003200e5
:103c800018057800980590000a01be000c00be00df
:103c900043010700a0cf9f000000fb00cf80de00a3
:103ca0000a01be00510107000006560081865e0031
:103cb0000700370018017800110009000286d800bb
:103cc000a2002000110009000280d800a1cf9f00af
:103cd0002fc897001a003700f00c2100afb09700f2
:103ce0000158a30001003200e00b2100810e2100e9
:103cf000810054000c01be008100e9000300330084
:103d00008301d1000281d300fbff37006f01610006
:103d10000201400012417800a2cf9f000a00370044
:103d20000c00be001fb197000201e9000300330040
:103d30008100d1000080d300fbff370067406000a6
:103d40000043b000a0cf9f00be009000afc9970015
:103d50000300fb000168a300070032004fb1970089
:103d6000800078000e00780065f707000000e00092
:103d700005003a00070037008e0078003500070084
:103d8000e10f4000030032004fb297000402e80048
:103d9000c4b79f001fb097006300500090b79f000a
:103da000640454008fb097000100e0009eff3a00c9
:103db0000fad97009fad97002fb197000238a30079
:103dc00018003200dfa997000300e000150034005e
:103dd00003047800cfb497003e0090000068a30071
:103de0000700320009017800010220000e0078006f
:103df00043f707000000e00006003a000600370025
:103e00008e0078000002200012000700e10f400041
:103e1000010032008904e8000804e900eeff3a00de
:103e2000c9b79f002faa970014407800a0cf9f0029
:103e30000004e00047f73a004fb097004f077800c2
:103e40004f06be004f05be004f04be00af02b100da
:103e500000000600889fbe0001047800b8009000b2
:103e60008084eb000118a3003a0032001801900092
:103e70000198a30002003a000200e00035003a0079
:103e80000190a0003104980080047800f90fb2007e
:103e90000200e00002003a0028009000000c7800c8
:103ea000ea8f540005003a000178a30003003a00ad
:103eb00088007800d0002000e6ff0700180090007e
:103ec000d8009000810f50000b0032000000e80085
:103ed000100498001800780009487800000ce800e9
:103ee00011c0b3000018210001487800ea8f540087
:103ef00018003a0005003700880078000940780073
:103f00001700070080047800120037003800900086
:103f10000088a3000f00320018019000a800900054
:103f200048009000daf1070098009000810f5000df
:103f300004003200380090000003b3003004980001
:103f40008084eb000000eb00100498002800900033
:103f5000000c7800090078004f04be000000060045
:103f60000200fa00889fbe00a0ff9f0001047800b5
:103f7000380090000068a30033003a00e2006000bf
:103f800005003a000003b3003004980011049800c3
:103f90000080eb002e003700d80490000900e000fc
:103fa00006003a0012002000e6805700480090000a
:103fb000b7f107001904980023003700a80090000b
:103fc0000100e00008003a003118210021049800a7
:103fd000010c780021002000510498001104980081
:103fe0000030a0003004980018019000a800900054
:103ff00048009000a6f10700280090008080eb00a8
:1040000011049800aff8970001487800000ce80010
:104010002ff89700ea4f50000b003a00380090004c
:104020000088a3000800320018019000a80090004a
:104030004800900096f107000000eb001004980083
:10404000a8009000010c7800aff897000100fb0079
:104050004f04be000080fa0000000600140020009b
:10406000b5003700f4ff2f00b30037000001be0099
:1040700083f207000470a70003f0a10003f8a30077
:1040800013003a006509b100100032000900350044
:104090006928e10002003500010028000000050049
:1040a00000004000818048008502e900fcff3a00e2
:1040b00000000600f88f4200050035008100d100a5
:1040c0000080d3008502e800fcff3a0000000600f3
:1040d0008000eb00000005006011b800d9f2370045
:1040e000040020009400370046000700050978000e
:1040f000000006001400fa00889fbe008a9fbe00e0
:104100008c9fbe000005be000206be00680047008e
:104110000c90be000a90be00470007006400e1005a
:104120001a00320016003e006100e1001a00320061
:104130006e049000fe0490000e0b90009e0b900009
:104140006011b8009e0590000b38b100d501200029
:1041500082817100610164008703d1000683d3006e
:104160008984d3000884d3008502e900f8ff3a006f
:104170001df207000df0a70001f0a0006900370054
:10418000f1ff2700f0ff2f006600370001f827003d
:1041900000002000f7ff37006000b800f5ff37008f
:1041a0006022b800060220000000d0008180d2000a
:1041b0000482d2008582d2000000a00002025200d8
:1041c00083825a00030031000202420083824a00c7
:1041d0000000a1000603e900f3ff3a00000006001a
:1041e000efff07000400be0000000600020ab9004d
:1041f000001bb9000200b8008100420081004300aa
:10420000000006000003be001df207006220e1006e
:10421000020032000600be0005000500e507b100ff
:10422000f107b20004f023008480700007f0a700bb
:1042300001f0a000240005005002be00e400500080
:104240005003be004439de00f700b200f37f2000c7
:1042500003016100090032000218e10016003a0073
:1042600085017200830173008381730000082000c0
:1042700015003a004000200013003700850172004d
:10428000830173008381730005003a0004a8be0017
:1042900006a8be00100020000b0037000201e90054
:1042a0000402420085824a0006034b0087834b00cc
:1042b0000748a300f9ff32000740a00004a8be0091
:1042c00006a8be0020002000800098009200980000
:1042d00000000600680447000294be000094be007f
:1042e000fc0447008694be008494be000900780058
:1042f000d1ff070008007800cfff07009900780081
:10430000814f70000b003b000800be002500070035
:104310004f00b10003003700f3ff2700f2ff2f002a
:104320006110b9004f06be004f05be004f04be002d
:104330000080fa0000000600889fbe008a9fbe0031
:10434000841f7800e3f107004f007800110033006c
:10435000f0ff2f00838f6c0006003b000405650012
:104360000a00a7000800370009f0a600100020008e
:1043700008003700820f5400838f5c00030039006f
:104380001000200001003e000000200009f0a700fe
:104390000000ea004f05be004f04be000000e00030
:1043a00000000600e48240001078a30007003200fd
:1043b000640240001178a3003400be001401be0066
:1043c000050032000330a700000006003500780029
:1043d000350078001501be000330a0000000060083
:020000040000fa
:1043e0000000000000000000003e00005b4f0000e5
:1043f0005b3e00003e6b00004f6b00003e1c000067
:104400003e7c00003e1c0000183c00007e3c00008a
:10441000181c0000577d0000571c00001c5e0000a7
:104420007f5e00001c000000183c00001800000027
:10443000ffe70000c3e70000ff00000018240000b1
:1044400018000000ffe70000dbe70000ff3000007d
:10445000483a0000060e00002629000079290000d5
:10446000264000007f05000005070000407f000097
:10447000052500003f5a00003ce700003c5a0000c0
:104480007f3e00001c1c0000080800001c1c0000ef
:104490003e7f0000142200007f220000145f000015
:1044a0005f0000005f5f0000060900007f01000060
:1044b0007f00000066890000956a000060600000cf
:1044c0006060000060940000a2ff0000a294000061
:1044d000080400007e04000008100000207e000098
:1044e00020100000080800002a1c00000808000036
:1044f0001c2a0000080800001e1000001010000018
:10450000100c00001e0c00001e0c000030380000d3
:104510003e380000300600000e3e00000e0600008f
:10452000000000000000000000000000005f00002c
:104530000000000000070000000700000014000059
:104540007f1400007f140000242a00007f2a00004e
:1045500012230000130800006462000036490000c6
:104560005620000050000000080700000300000073
:10457000001c000022410000000000004122000059
:104580001c0000002a1c00007f1c00002a080000fc
:10459000083e0000080800000080000070300000a5
:1045a00000080000080800000808000000000000e3
:1045b00060600000002000001008000004020000fd
:1045c0003e510000494500003e000000427f0000cf
:1045d00040000000724900004949000046210000e7
:1045e000414900004d33000018140000127f000004
:1045f0001027000045450000453900003c4a0000f6
:104600004949000031410000211100000907000064
:10461000364900004949000036460000494900007b
:10462000291e00000000000014000000000000002f
:1046300040340000000000000008000014220000c8
:104640004114000014140000141400000041000084
:1046500022140000080200000159000009060000b1
:104660003e4100005d5900004e7c00001211000028
:10467000127c00007f49000049490000363e0000de
:1046800041410000412200007f4100004141000003
:104690003e7f000049490000494100007f090000b9
:1046a00009090000013e0000414100005173000073
:1046b0007f080000080800007f000000417f000024
:1046c0004100000020400000413f0000017f000049
:1046d00008140000224100007f400000404000001c
:1046e000407f0000021c0000027f00007f040000e9
:1046f000081000007f3e000041410000413e0000e4
:104700007f09000009090000063e00004151000039
:10471000215e00007f0900001929000046260000e4
:104720004949000049320000030100007f010000f8
:10473000033f000040400000403f00001f200000f9
:10474000402000001f3f000040380000403f0000b4
:1047500063140000081400006303000004780000e4
:104760000403000061590000494d000043000000af
:104770007f410000414100000204000008100000d9
:104780002000000041410000417f000004020000c1
:1047900001020000044000004040000040400000d2
:1047a000000300000708000000200000545400002f
:1047b000784000007f2800004444000038380000a2
:1047c000444400004428000038440000442800000d
:1047d0007f38000054540000541800000008000006
:1047e0007e09000002180000a4a400009c780000cc
:1047f0007f0800000404000078000000447d0000f1
:104800004000000020400000403d0000007f00000c
:104810001028000044000000004100007f4000001c
:10482000007c000004780000047800007c08000090
:1048300004040000783800004444000044380000bc
:10484000fc18000024240000181800002424000094
:1048500018fc00007c080000040400000848000068
:104860005454000054240000040400003f4400009d
:10487000243c000040400000207c00001c20000080
:10488000402000001c3c000040300000403c000084
:104890004428000010280000444c000090900000c4
:1048a000907c000044640000544c00004400000070
:1048b0000836000041000000000000007700000002
:1048c0000000000041360000080000000201000066
:1048d00002040000023c000026230000263c0000e9
:1048e0001ea10000a1610000123a0000404000003b
:1048f000207a00003854000054550000592100006f
:104900005555000079410000215400005478000002
:104910004121000055540000784000002054000060
:1049200055790000400c00001e5200007212000079
:104930003955000055550000593900005454000005
:10494000545900003955000054540000580000002c
:10495000004500007c41000000020000457d000091
:1049600042000000014500007c400000f0290000ea
:1049700024290000f0f000002825000028f00000a5
:104980007c540000554500000020000054540000f5
:104990007c5400007c0a0000097f000049320000be
:1049a00049490000493200003248000048480000f0
:1049b000323200004a480000483000003a4100000e
:1049c000412100007a3a00004240000020780000b7
:1049d000009d0000a0a000007d39000044440000bc
:1049e000443900003d400000404000003d3c0000d4
:1049f00024ff000024240000487e000049430000fa
:104a0000662b00002ffc00002f2b0000ff09000088
:104a100029f6000020c00000887e00000903000085
:104a200020540000547900004100000000440000c0
:104a30007d41000030480000484a00003238000044
:104a400040400000227a0000007a00000a0a0000bc
:104a5000727d00000d190000317d00002629000044
:104a6000292f0000282600002929000029260000ff
:104a7000304800004d4000002038000008080000c9
:104a8000080800000808000008080000382f00008f
:104a900010c80000acba00002f100000283400003d
:104aa000fa000000007b0000000000000814000075
:104ab0002a14000022220000142a0000140800001a
:104ac000aa00000055000000aaaa000055aa000094
:104ad00055aa00000000000000ff000000100000c8
:104ae00010100000ff0000001414000014ff00006c
:104af0000010000010ff000000ff00001010000078
:104b0000f0100000f014000014140000fc0000007d
:104b100014140000f7000000ff00000000ff000078
:104b200000ff000014140000f4040000fc14000056
:104b300014170000101f0000101000001f100000cc
:104b40001f140000141400001f00000010100000cb
:104b500010f0000000000000000000001f10000026
:104b600010100000101f00001010000010100000b6
:104b7000f01000000000000000ff00001010000016
:104b800010100000101000001010000010ff0000b6
:104b90001000000000000000ff14000000000000f2
:104ba000ff000000ff000000001f000010170000c1
:104bb00000000000fc040000f414000014170000c2
:104bc0001017000014140000f4040000f4000000aa
:104bd00000ff000000f7000014140000141400008f
:104be0001414000014f7000000f700001414000073
:104bf0001417000014100000101f0000101f000008
:104c00001414000014f400001410000010f0000050
:104c100010f00000000000001f1000001f00000046
:104c2000000000001f1400000000000000fc000055
:104c30001400000000f0000010f000001010000050
:104c4000ff100000ff14000014140000ff14000007
:104c500010100000101f0000000000000000000005
:104c6000f0100000ffff0000ffff0000fff0000059
:104c7000f0f00000f0f00000ffff0000ff00000077
:104c80000000000000000000ffff00000f0f000008
:104c90000f0f00000f3800004444000038440000ab
:104ca0007c2a00002a3e0000147e00000202000060
:104cb00006060000027e0000027e00000263000083
:104cc000554900004163000038440000443c0000a6
:104cd000044000007e2000001e20000006020000ac
:104ce0007e02000002990000a5e70000a5990000df
:104cf0001c2a0000492a00001c4c00007201000020
:104d0000724c0000304a00004d4d00003030000071
:104d10004878000048300000bc6200005a4600009d
:104d20003d3e000049490000490000007e010000ae
:104d3000010100007e2a00002a2a00002a2a000021
:104d4000444400005f44000044400000514a000019
:104d500044400000404400004a5100004000000070
:104d600000ff000001030000e0800000ff000000e1
:104d700000080000086b00006b08000036120000fd
:104d800036240000360600000f0900000f06000060
:104d900000000000181800000000000000100000d3
:104da0001000000030400000ff0100000100000082
:104db0001f010000011e0000001900001d17000067
:104dc000120000003c3c00003c3c000000000000e1
:104dd0000000000000000000737500006363000025
:104de00065730000732e00000a0000006661000079
:104df000696c00002e0a0000007300007973000047
:104e0000746500006d2000007265000061640000a0
:104e1000792e0000006900006e69000074690000ce
:104e2000616c0000697a0000696e00006720000074
:104e3000736400002063000061720000642e0000b3
:104e40002e2e000020000000696e00006974000032
:104e5000696100006c6900007a6900006e670000fb
:104e60002074000066740000206400006973000074
:104e7000706c0000617900002e2e00002e200000d2
:104e8000006400006f6e0000652e00000025000029
:104e90006c6400000a0a000000250000640900009c
:104ea00000000000547200006170000020650000e6
:104eb0006e6300006f7500006e7400006572000084
:104ec00065640000202d0000206500007272000063
:104ed0006f720000206300006f6400006520000016
:084ee000256400000000000041
:020000040000fa
:104ee80014aea80014cea9000704070014cea80029
:104ef8000000060014aea90014cea90002040700a1
:104f080014cea80000000600881f7800000478006e
:104f18004840de00f2ff070008407800f0ff070075
:104f28004f0478000000060010c0b300f1ff07002e
:104f380010d521006d040700f0ceb300edff070087
:104f480030c0b300e6ff070000c8b300e4ff070065
:104f580020c0b300e2ff0700f0ccb300e5ff070074
:104f68000040eb00deff070010ccb300dcff0700b9
:104f780000c3b300daff0700d0ceb300ddff07009f
:104f880040c6b300d6ff070030c0b300d4ff070007
:104f980020c1b300d2ff070010c8b300d0ff07003c
:104fa80080ceb300d3ff070050c8b300ccff070082
:104fb8000040eb00caff070080c7b300c8ff070026
:104fc800b0ccb300cbff070090c3b300c4ff070009
:104fd800c0c2b300c2ff07000040eb00c0ff0700db
:104fe80040c3b300beff070020c0b300bcff0700ea
:104ff80070cfb300bfff070000c2b300b8ff0700bf
:10500800a0ceb300bbff07000040eb00b4ff0700d1
:105018000040eb00b2ff070000ccb300b5ff07006b
:1050280030c2b300aeff070010ccb300b1ff0700d9
:1050380000c1b300aaff070050ccb300adff0700c2
:10504800e0c3b300a6ff070080c2b300a4ff0700b7
:1050580070ccb300a7ff070060c8b300a0ff07002b
:1050680060c3b300a3ff070080c0b3009cff070024
:10507800a0c3b3009fff070050c5b30098ff070007
:1050880010cbb3009bff07000040eb0094ff070024
:1050980080c1b30092ff070060cbb30095ff070003
:1050a80080c0b3008eff070020c8b3008cff070044
:1050b80070c2b3008aff070020cfb3008dff07003e
:1050c8000040eb0086ff070060c2b30089ff0700bd
:1050d80010c0b30082ff070000ceb30085ff0700b1
:1050e800f0c0b3007eff070010c3b3007cff0700c9
:1050f800b0c2b3007aff0700c0c0b30078ff070052
:10510800e0c0b30076ff070080c0b30074ff07005b
:10511800e0c4b30072ff070010cfb30070ff0700b0
:1051280070c3b3006eff070070c0b3006cff0700c8
:1051380000c1b3006aff070030c0b30068ff070072
:10514800e0c0b30066ff070090c0b30064ff07002b
:105158000040eb0062ff070010ceb30065ff0700b8
:105168000040eb005eff0700e0c0b3005cff0700f3
:1051780040c1b3005aff070030c0b30058ff070012
:1051880010c1b30056ff070070c0b30054ff0700fa
:1051980010c3b30052ff070010ccb30050ff070044
:1051a80080c4b3004eff070080c0b3004cff070067
:1051b800f0c0b3004aff0700c0c0b30048ff0700b3
:1051c80010c3b30046ff070060c3b30044ff0700e5
:1051d800f0c0b30042ff070010c1b30045ff07004d
:1051e80010d52100c103070090c2b30041ff07009a
:1051f80000000600889fbe008a9fbe000004780059
:10520800010578008204780083057800a0c2b30005
:1052180038ff07004840de0031ff070008407800eb
:105228002fff07004848de002dff070009407800df
:105238002bff0700b0c2b3002eff07004850de0066
:1052480027ff07000a40780025ff07004858de00be
:1052580023ff07000b40780021ff0700c0c2b300fe
:1052680024ff07004f05be004f04be0000000600e3
:10527800889fbe008a9fbe000004be008205780099
:10528800a0c2b3001bff07004840de0014ff070060
:10529800084578000840780011ff07000804e80076
:1052a8004840de000eff07000a40e8000cff070038
:1052b800b0c2b3000fff07004848de0008ff070030
:1052c800094478000940780005ff07008904e800d0
:1052d8004848de0002ff07000840e80000ff07001a
:1052e800c0c2b30003ff07000b00780006ff0700e9
:1052f8004f05be004f04be0000000600889fbe0098
:105308008a9fbe008c1f78000006780003142000d6
:10531800020f20006000b800b6ff07006055b80013
:1053280008c02200190020000c007800f6fe0700d3
:1053380061054500e0854d00880f5500898f5d00a7
:10534800f9ff3a000040eb00eafe07004f0678003c
:105358004f05be004f04be0000000600ea87470064
:10536800889fbe008a9fbe008c9fbe008e1f78005b
:10537800800478000105780002067800d3b79f0002
:10538800840678000900560000f0a7000000ea0033
:1053980080bf9f000080eb00f0b79f00890f560088
:1053a8000200360011002000f1b79f005fb097009f
:1053b8008a0550000bf0a7008b05ea008080eb00ff
:1053c800e1b79f008a0f500002003600100020004d
:1053d800e0b79f008fb897008b8f500005003c0006
:1053e8000b00ea00cf00de00008040000084d100fe
:1053f800070037000fb897004f04de000004440090
:105408000884d10002003700000478000200370049
:105418008fb897000107ea000d0178008a0078002c
:105428000900780092ff07008c8f540003003a00af
:105438005fb09700800f55000e0032008e0f5400a9
:10544800040034000b005400ffb09700818444002e
:1054580001003700080078008b0f5400eaff3d0078
:105468008fb89700010440006fb097000005450011
:10547800e9ff37004f0778004f06be004f05be0012
:105488004f04be00af00b10000000600889fbe00b8
:105498008a9fbe008c9fbe000244780067014000ce
:1054a800e581400053ff07000804fb00e546b9000a
:1054b8000804e800e544b900880578008b0f560019
:1054c800100035001500370008c8de000008a300ea
:1054d80003003200108080008bfe070002003700b6
:1054e8000a00780088fe07000804e800e80f540066
:1054f800f5ff3a000c06e8008b0f56000300350054
:10550800060037000005eb000d1f2a000a0478008a
:105518000d0046009084fb00ebff37004f06be00ed
:105528004f05be004f04be0000000600889fbe0065
:105538008a9fbe008c1f78000006780081047800de
:10554800820578000b0578000004eb0006003700a0
:105558003a417800890078000c007800cbff0700fa
:105568000804e800e58444000b00780008ee070012
:10557800880f5000f6ff3e004f0678004f05be002a
:105588004f04be0000000600889fbe008a9fbe0030
:105598008c1f780080057800810478000205780067
:1055a8000a00e0000a0034000004eb000046eb00ab
:1055b8000c417800890078000b007800b3ff0700e1
:1055c8000804e800e5844400880f5500f8ff3c0013
:1055d8004f0678004f05be004f04be0000000600cd
:1055e800889fbe008a9fbe008c9fbe008e1f7800d9
:1055f80004077800850678000002e90002014200ed
:1056080081814100fbfe07008004eb006055b80073
:105618000086eb000d00e00011003a00130037008f
:105628001980fb000880de000008a3000300320098
:105638000c00780034fe0700020037000a007800ea
:1056480031fe07000804e800e80f5400f4ff3a00b0
:105658008b05e8008b0478008b8f5600030036001a
:105668000a04780089044700edff37004f077800e7
:105678004f06be004f05be004f04be0000000600e6
:10568800889fbe008a1f780000057800150ea900c3
