:020000040000fa
:080000000002040000000000f2
:020000040000fa
:0400080006030000eb
:020000040000fa
:04000c0018030000d5
:020000040000fa
:0400100030030000b9
:020000040000fa
:040014000e030000d7
:020000040000fa
:0400180020030000c1
:020000040000fa
:04001c0028030000b5
:020000040000fa
:0400200038030000a1
:020000040000fa
:040024005003000085
:020000040000fa
:040028005003000081
:020000040000fa
:04002c00500300007d
:020000040000fa
:040030005003000079
:020000040000fa
:040034005003000075
:020000040000fa
:040038005003000071
:020000040000fa
:04003c00500300006d
:020000040000fa
:040040005003000069
:020000040000fa
:040044005003000065
:020000040000fa
:040048005003000061
:020000040000fa
:04004c00500300005d
:020000040000fa
:040050005003000059
:020000040000fa
:040054005003000055
:020000040000fa
:040058005003000051
:020000040000fa
:04005c00500300004d
:020000040000fa
:040060005003000049
:020000040000fa
:040064005003000045
:020000040000fa
:040068005003000041
:020000040000fa
:04006c00500300003d
:020000040000fa
:040070005003000039
:020000040000fa
:040074005003000035
:020000040000fa
:040078005003000031
:020000040000fa
:04007c00500300002d
:020000040000fa
:040080005003000029
:020000040000fa
:040084005003000025
:020000040000fa
:040088005003000021
:020000040000fa
:04008c00500300001d
:020000040000fa
:040090005003000019
:020000040000fa
:040094005003000015
:020000040000fa
:040098005003000011
:020000040000fa
:04009c00500300000d
:020000040000fa
:0400a0005003000009
:020000040000fa
:0400a4005003000005
:020000040000fa
:0400a8005003000001
:020000040000fa
:0400ac0050030000fd
:020000040000fa
:0400b00050030000f9
:020000040000fa
:0400b40050030000f5
:020000040000fa
:0400b80050030000f1
:020000040000fa
:0400bc0050030000ed
:020000040000fa
:0400c00050030000e9
:020000040000fa
:0400c40050030000e5
:020000040000fa
:0400c80050030000e1
:020000040000fa
:0400cc0050030000dd
:020000040000fa
:0400d00050030000d9
:020000040000fa
:0400d40050030000d5
:020000040000fa
:0400d80050030000d1
:020000040000fa
:0400dc0050030000cd
:020000040000fa
:0400e00050030000c9
:020000040000fa
:0400e40050030000c5
:020000040000fa
:0400e80050030000c1
:020000040000fa
:0400ec0050030000bd
:020000040000fa
:0400f00050030000b9
:020000040000fa
:0400f40050030000b5
:020000040000fa
:0400f80050030000b1
:020000040000fa
:0400fc0050030000ad
:020000040000fa
:0401000050030000a8
:020000040000fa
:0401040050030000a4
:020000040000fa
:0401080050030000a0
:020000040000fa
:04010c00500300009c
:020000040000fa
:040110005003000098
:020000040000fa
:040114005003000094
:020000040000fa
:040118005003000090
:020000040000fa
:04011c00500300008c
:020000040000fa
:040120005003000088
:020000040000fa
:040124005003000084
:020000040000fa
:040128005003000080
:020000040000fa
:04012c00500300007c
:020000040000fa
:040130005003000078
:020000040000fa
:040134005003000074
:020000040000fa
:040138005003000070
:020000040000fa
:04013c00500300006c
:020000040000fa
:040140005003000068
:020000040000fa
:040144005003000064
:020000040000fa
:040148005003000060
:020000040000fa
:04014c00500300005c
:020000040000fa
:040150005003000058
:020000040000fa
:040154005003000054
:020000040000fa
:040158005003000050
:020000040000fa
:04015c00500300004c
:020000040000fa
:040160005003000048
:020000040000fa
:040164005003000044
:020000040000fa
:040168005003000040
:020000040000fa
:04016c00500300003c
:020000040000fa
:040170005003000038
:020000040000fa
:040174005003000034
:020000040000fa
:040178005003000030
:020000040000fa
:04017c00500300002c
:020000040000fa
:040180005003000028
:020000040000fa
:040184005003000024
:020000040000fa
:040188005003000020
:020000040000fa
:04018c00500300001c
:020000040000fa
:040190005003000018
:020000040000fa
:040194005003000014
:020000040000fa
:040198005003000010
:020000040000fa
:04019c00500300000c
:020000040000fa
:0401a0005003000008
:020000040000fa
:0401a4005003000004
:020000040000fa
:0401a8005003000000
:020000040000fa
:0401ac0050030000fc
:020000040000fa
:0401b00050030000f8
:020000040000fa
:0401b40050030000f4
:020000040000fa
:0401b80050030000f0
:020000040000fa
:0401bc0050030000ec
:020000040000fa
:0401c00050030000e8
:020000040000fa
:0401c40050030000e4
:020000040000fa
:0401c80050030000e0
:020000040000fa
:0401cc0050030000dc
:020000040000fa
:0401d00050030000d8
:020000040000fa
:0401d40050030000d4
:020000040000fa
:0401d80050030000d0
:020000040000fa
:0401dc0050030000cc
:020000040000fa
:0401e00050030000c8
:020000040000fa
:0401e40050030000c4
:020000040000fa
:0401e80050030000c0
:020000040000fa
:0401ec0050030000bc
:020000040000fa
:0401f00050030000b8
:020000040000fa
:0401f40050030000b4
:020000040000fa
:0401f80050030000b0
:020000040000fa
:0401fc0050030000ac
:020000040000fa
:0402000050030000a7
:020000040000fa
:0402040050030000a3
:020000040000fa
:04020800500300009f
:020000040000fa
:04020c00500300009b
:020000040000fa
:040210005003000097
:020000040000fa
:040214005003000093
:020000040000fa
:04021800500300008f
:020000040000fa
:04021c00500300008b
:020000040000fa
:040220005003000087
:020000040000fa
:040224005003000083
:020000040000fa
:04022800500300007f
:020000040000fa
:04022c00500300007b
:020000040000fa
:040230005003000077
:020000040000fa
:040234005003000073
:020000040000fa
:04023800500300006f
:020000040000fa
:04023c00500300006b
:020000040000fa
:040240005003000067
:020000040000fa
:040244005003000063
:020000040000fa
:04024800500300005f
:020000040000fa
:04024c00500300005b
:020000040000fa
:040250005003000057
:020000040000fa
:040254005003000053
:020000040000fa
:04025800500300004f
:020000040000fa
:04025c00500300004b
:020000040000fa
:040260005003000047
:020000040000fa
:040264005003000043
:020000040000fa
:04026800500300003f
:020000040000fa
:04026c00500300003b
:020000040000fa
:040270005003000037
:020000040000fa
:040274005003000033
:020000040000fa
:04027800500300002f
:020000040000fa
:04027c00500300002b
:020000040000fa
:040280005003000027
:020000040000fa
:100400006f1925000eff27000e0188000000000074
:10041000000020000000e000020032000001200087
:100420002002880014000700f80007000000e00028
:1004300003003a00e04422000100200002003700df
:100440000000200001002000810f70000100320038
:100450000f000700000020000000e0000200320052
:10046000000002000000000014290200000000004b
:100470000040da000000fe00200d20000000e00037
:1004800002003200002020009001880000000600d9
:10049000a1028800800478000000eb001f003700f4
:1004a000e284440054a0b4009905ba00e2844400f8
:1004b00054a0b4009906ba00e284440054a0b400e9
:1004c0000006eb00476fde00fd07b200ae018800ba
:1004d000636ce10003003a000ad801000000eb0061
:1004e0000e003700606ce10008003a00004deb00a0
:1004f0000a05e800020039003420ec000af0a000f0
:100500008b05e900f9ff3e00040037006168e10057
:10051000010032000086eb000b00070019c7ba008b
:100520000e04e0001905ba0003003a000a00e000da
:10053000dbff3a0000000600fe07b200ae028800b2
:100540008a047800f5ff37000cd0a300e20f4d00bd
:100550001c00390089027800354dba000a05e80010
:10056000020039003420ec000af0a0008b05e900fd
:100570000f003200254dba000a05e80002003900dc
:100580003420ec000af0a0008b05e90008003200de
:100590000c00e0000600320015cdba000a05e800a4
:1005a000020039003420ec000af0a0008b05e900bd
:1005b0008984e80054a0b4000b00e000e2ff3a0098
:1005c000000006009902ba00055d78008b05e9007d
:1005d000f7ff3200c82ade00055d78008b05e900d0
:1005e000f3ff32000c00e000f1ff320019ddba0029
:1005f000eeff3700fc28040000000000fc2504008a
:100600000000000010260400000000003600f80082
:10061000c028a9000000eb00341307003600f800e2
:100620002d130700c048a900100020002f13070059
:100630003600f800c068a900200020002b13070036
:100640003600f800c088a9003000200027130700fa
:100650003600f800c0a8a9004000200023130700be
:100660003600f800c608a900700020001f1307001c
:100670003600f800c4a8ab0003003200c4a8a900eb
:100680009000200019130700c488ab00030032005b
:10069000c488a900a000200014130700ffff370042
:1006a0000040da000000fe000100e00001003a0016
:1006b00011002000010878007c004000300778001d
:1006c000b0077800b01f7800a01f780064005000c9
:1006d000c006780040067800c00578004005780024
:1006e000c004780040047800c0037800400378001c
:1006f000c002780040027800c00178004001780014
:10070000c000780040007800000006000098be009d
:100710000298be000498be000698be000898be006d
:100720000a98be000c98be000e1878006498570016
:10073000efb8970001187800ffb89700011878000b
:1007400000000500889fbe0080047800a08c800017
:100750000000e00004003a000e0007000084eb00f7
:100760000000e00008003500a88c80000900e000cf
:100770000500320009004400060007000000e00008
:1007800001003d000084eb00080078004f04be002b
:1007900000000600800078000100e00003003a003d
:1007a00060192100a08c8800000005000080eb008b
:1007b00062192500828f500002003e00a18c880043
:1007c0000000eb0000000600041020001011800063
:1007d00080016200fdff3200020078000000e000ae
:1007e00009003200800278000410200012118000fd
:1007f00082016200fdff3200b101fb00231188007d
:100800008502e900f9ff3a0000000600000005003b
:1008100003f0a200889fbe008a9fbe008c1f780054
:10082000d6000700dd0033006450e1004f003200c5
:100830006420e1005200320003826c0007003b009c
:100840000905d0000306d000820f54000c065d009d
:1008500002003900020032008901780003067800a6
:100860008582550004003d000003fd008103fd006a
:100870008502ea008b854200840f720002003b0073
:1008800060001000e08018006011b8000005eb0067
:100890007a28e1000a00390006007800c75ddd0013
:1008a000f707b200878075002d0037008281710044
:1008b0000a017800610560008180d1000080d300ca
:1008c0008502e900f9ff3b000604400087844800e8
:1008d00002003b0060041400e0841c000988a300af
:1008e000070032008a817100828171006101640019
:1008f0008904d1000884d3008b05e8001700370075
:100900000978a30013003a000b00e0001300340044
:100910008b05e9000804440089844c000a447400f3
:100920000978a3000d003a000b00e0000700340036
:100930008b05e9000804440089844c0001003a005a
:100940000b0020000978a300f7ff32000001eb0044
:1009500002003700828171000a0178004c00070014
:100960000cf0a70001f0a000950037006420e10022
:1009700002003a00838f6c00950033000801be002e
:100980000200be008e003700889fbe008a9fbe0016
:100990008c1f7800790007008000330003866c000c
:1009a0006450e1002e0032006420e1003300320088
:1009b0006150e1002f0032006120e100310032007f
:1009c00085855500eb07b0000900200008042000d1
:1009d000050037000804440089844c000a003100f7
:1009e0000603430087834b000001530081815b00b5
:1009f000f8ff33000203be000800a0000804440012
:100a000089844c00f6ff3900c639dd00830173008c
:100a100001003200130020008904d1000884d300b3
:100a20000998a300050032000800a7000300a000f9
:100a30008904d1000884d3008b05e8008904d10023
:100a40000884d3000001eb000281d20010000700ef
:100a500001f0a1000cf0a70001f0a0005800370041
:100a60006420e1005a0032000801be000200be000e
:100a7000f7ff37006120e100550032006000b80048
:100a8000f3ff37000000200001f82700f0ff3700d7
:100a900081002000618055000b003d000b0020000c
:100aa00061fe2f000100e1001d0034008281710011
:100ab000610164008904d1000884d3000000e800cb
:100ac000faff3a007100200061006400030070002a
:100ad000020060000900320061044400e0844c0020
:100ae0000988a500050032008b05e8006808e100d0
:100af00002003a008904d1000884d300f20f2000dc
:100b00000258e10005003d00c75ddd00f907b200b5
:100b10008980750008007800000006000bf82700a7
:100b20008b00780000000500c70ade00f107b20064
:100b3000f50fb20008003200e1cf4200020032009f
:100b40000170a00024000500810f70000100320038
:100b50000408050044000500810f700002003a00ff
:100b6000140005008502e9000000400081c0480033
:100b7000fcff3b000170a000240005000004be0043
:100b8000e9ff07000003be000405be000200be002e
:100b9000e5ff0700844f7500000006000200be005c
:100ba0006450e100050036006420e10002003600d8
:100bb0000968a30001003a000800be000160a0001f
:100bc0004f0678004f05be004f04be00000006002f
:100bd000f0ff2f00f1ff2700f9ff3700889fbe00cc
:100be0008a9fbe008c1f7800e4ff0700ebff3300f4
:100bf00003866c006450e100240032006420e100b0
:100c0000270032006150e100220032006120e10043
:100c1000210032008b854200eb07b1000134b8009f
:100c2000003ab8000804420089844a00013ab8003a
:100c30000030b8008880400009014a0004003300f9
:100c40000000400081804800020149008b05e90056
:100c5000c909dd008301700001003200130020008b
:100c6000c814de004814dd004709de001200b2009f
:100c7000c808de000884700085ff070001f0a100ad
:100c80000cf0a70001f0a000cdff37006120e100cb
:100c9000cfff32000801be000200be00f7ff3700a0
:100ca0006150e100fcff3a00c9ff3700889fbe0099
:100cb0008a9fbe00008270000402710004827100ed
:100cc000260032000004be000200be006011b80021
:100cd0006b092000950220000182cf000a00390034
:100ce0000541b1000082cf00070039000541b10085
:100cf0000982cf00040039000541b1000882cf000d
:100d0000010039000541b1000542520012003200d5
:100d10000a003b0082817100610164008100d10002
:100d20000080d3008984d3000884d3008b05e800b9
:100d30000442e800f7ff3a000700370008044400c7
:100d400089844c0000004800818048008b05e90040
:100d50000442e900f9ff3a004dff07004f05be00cd
:100d60004f04be00000006000000fa006881570032
:100d7000cfb8970000122100b70b07000080fa00df
:100d8000000006000000fa0068815700cfb8970005
:100d900000122100b00b07000080fa0000000600de
:100da000889fbe008a9fbe008c9fbe00e117210075
:100db000f28b80000200e0000b003a0064814000ea
:100dc000f28b8800428c8800a1009800318c88004a
:100dd000214190000204a000a240980061419000cf
:100de0000204a000e2409800670440004244de0094
:100df0004244dd00348c800061192100691925000e
:100e0000818454002d002000110009008d04d800b9
:100e1000800678000886e8000c0646008001eb009a
:100e200002003700130020000b027800a44090005d
:100e30000108a300020032000a003700120a7800fd
:100e400014017800a24090000108a300fbff3200cb
:100e500088004200810f5100020039000800e000c4
:100e600041003d00940578000b00a100848f5500df
:100e7000edff3e00e18f5100eaff3a008d0f540074
:100e800002003600890f5400130039006141b80098
:100e90006148b900b4ff2f00050020000000520097
:100ea00081805a00800f5100818f59000200350067
:100eb0006405440009003700601921009a192500d3
:100ec0000005550008054500110009000985d800f6
:100ed0008985b900010037000c0578000a00780008
:100ee00018fe0700e10f400005003a0064054400c9
:100ef0000a00780013fe0700e10f40002c003200ca
:100f0000418c800080087800418c8000e4814000a2
:100f100021419000830f5000020032000204a00023
:100f2000010037000204a100a240980064055500aa
:100f30000a0540000a0878004a8c8800e117210061
:100f4000010d7800428c8000a24090000104a000b6
:100f500021419800a04090000104a1002140980088
:100f60008001eb00b0ff3700318c8800810f510009
:100f7000080036001101780091019000528c880021
:100f8000638c8800940878000041eb00318c80006d
:100f9000a2409800338c8000030a7800a44090009f
:100fa0000104a000214298006400420001003700c3
:100fb0000000eb004f06be004f05be004f04be0010
:100fc000000006000000e00008003200640050004d
:100fd000318c8000810f500001003100308c88007e
:100fe000a04090000104a1002140980000000600ec
:100ff000881f78000102b8006123b8000001eb00ef
:10100000860f5200878f5a000d003a00808cb9007d
:101010000800780062ff07000001eb000000e0001c
:101020000700320080007800020037008058eb0093
:101030000804e9000800e000fcff3a000001780025
:10104000020078004f047800000006000000fa005b
:1010500068815700cfb8970000122100c600070032
:101060000080fa0000000600889fbe000004be0059
:10107000050037000000fb00890078008a0907009e
:10108000e10f400004003200384078000004e00026
:10109000f8ff3a000000eb004f04be00000006001d
:1010a000881f780001122100efff0700000478007c
:1010b00001122100a00020007b0907000800780031
:1010c0004f04780000000600889fbe008a9fbe0083
:1010d0000084fb00d1c6b300814f500023003600ce
:1010e0004b062000110009000b84d8008105780010
:1010f000720040004200dd00ca03210000004500ec
:101100000200200003f023009000900010007800ff
:10111000b2fe07000002be00a90020001100090075
:101120008985d80080057800e9854500c25ddd002d
:101130008b0545001b0178009b0190000400be0058
:10114000a6fe07000002be00110009000984d800b5
:10115000010478004244dd00080545001a017800ca
:101160009a0190000400be001b003700ea4f5000b7
:1011700012003600aa002000110009000a84d800dd
:1011800001057800690440004244dd00c9032100e4
:10119000088444000200200003f0230018007800b7
:1011a000980090008dfe07004255dd008a844400bf
:1011b0001901780099019000070037004244dd00d2
:1011c000c0032100080440000200200003f02300b7
:1011d000180078009800900080fe07004f05be00c0
:1011e0004f04be0000000600889fbe008a1f7800e2
:1011f000d1c6b3000004e00028003d000040ea0032
:101200000004fb00814f50000f0034004206200014
:10121000110009000204d800a900200011000900f3
:101220008900d800e9004000c208dd00ca0321009f
:1012300081004500110178009101900040848000f8
:101240005184800026003700ea4f5000100034001f
:10125000a2002000110009000204d800010178005a
:10126000690040004200dd00c10321000080400011
:101270004211dd0082804000110178009101900050
:10128000900090001000780054fe07002e003700f8
:101290004244dd00c0032100280037000004fb00a9
:1012a000814f50001900340042062000110009004f
:1012b0000204d800a9002000110009008900d8000c
:1012c000e9004000c208dd008a00210081004500dd
:1012d0001101780091019000a0828000b18280000d
:1012e0003efe07000002be00110009000904d800fc
:1012f000010478004244dd00080545001a01780029
:101300009a0190000400be00dfff3700ea4f500052
:1013100008003400a2002000110009000204d800d7
:1013200001017800690040004200dd0081002100d9
:10133000ceff37004244dd00800021000804400059
:1013400018007800980090004f0578004f04be0008
:1013500000000600d0019000028151004240a90027
:101360000300340010017800014978000208e80009
:101370000100780000000600af02b000889fbe00a8
:101380008a9fbe008c9fbe008e1f780000077800e9
:10139000a1af9f00f2af9f006055b8000000eb00c6
:1013a000c0b79f00b4083700afa897008100e800dd
:1013b000a1af9f0051c2b300814f500003003a001b
:1013c000afa997000000eb0013003700be009000ab
:1013d0000000fb000168a300070032004fb1970036
:1013e000800078000e007800daff07000000e000bf
:1013f00005003a00a00837008e007800aa08070010
:10140000e10f40009c0832004fb197000201e80054
:10141000c2b79f00980837008300780033417800f6
:10142000b4c2b300844f51001300320007003c00e7
:101430006b425200844f51000d0032006342420063
:10144000844f510012003a000d003700d4c2b3009f
:10145000844f51000400320063424200844f510027
:101460000b003a00080037000030a000eaff370008
:101470000000a000e8ff37000010a000e6ff3700e2
:1014800000b0a000e4ff37000020a000e2ff37001a
:101490000018a300010032000000a1000038a300e2
:1014a000010032000020a1008201fb000303b10013
:1014b000e98f51000e003e00010178008001eb0031
:1014c00093b79f00ea1ab900b201fb000303b10011
:1014d00084814100820078001202fb000403b10005
:1014e000e90f5200f7ff360093b79f000a0037005c
:1014f0000002eb0094b79f00a3c2b300834f5100da
:1015000005003a00ffaa970045017800f5af9f005b
:1015100092b79f008100e800e2c2b300914f110032
:1015200019003a0000e0a000a0b79f00a0c2b300dd
:10153000d14f100004003200010078008001eb0060
:1015400083b79f00090037007faa9700c402780084
:10155000f4af9f0085b79f008100e800afb197000e
:101560000e003700ea1ab9008401410080007800bb
:101570003001fb000203b100e90f5100f9ff360012
:1015800083b79f00f5ff370000c0a000a0b79f0001
:101590000000eb0080b79f00f0ff3700314078007b
:1015a000a1af9f0072c6b300824f500035003200d9
:1015b00018003c00a3b79f0031c6b300814f500014
:1015c000d00032000e003c00fcc05000814f5000a3
:1015d0004200320006003c000004e0002b0832000c
:1015e00081c0e900814f5000e0003a00330037002d
:1015f00081c5b300814f5000dc003a004400370041
:1016000051c6b300814f50002100320026003c003b
:101610002100370002c7b300824f50003b00320068
:101620000b003c0064415100824f50001c0032000e
:10163000a3b79f00f1c6b300814f50002e003200c7
:10164000e6c05000814f5000c8003a001200370039
:10165000a3b79f0051c7b300814f5000c8003200ac
:10166000e3c04000814f500004003200e5c050004c
:10167000814f5000bd003a002d003700a0cf9f00e1
:1016800027003700a3b79f00a0cf9f0017003700a7
:10169000a0cf9f000d003700a0cf9f00bc003700f7
:1016a0000340a000bdff3700a0cf9f00afb197005f
:1016b00003a0a000a3b79f00b5003700a0cf9f00f4
:1016c0002fb297000450a000a4b79f00afb29700bc
:1016d0000580a000a5b79f00ad003700a0cf9f00f8
:1016e0002fb097000050a000a0b79f00afb09700a8
:1016f0000190a000a5003700a0cf9f002fb1970058
:101700000260a000a2b79f00a1003700a3b79f000e
:10171000a0cf9f00afb197000350a000a3b79f00d8
:101720002fb297000470a000a4b79f009800370064
:10173000a0cf9f00ffaa970045007800f5af9f005b
:10174000000678000000e00001003a002c092100aa
:101750008c0078000000eb00010037000000e8007a
:10176000008140001204e000fcff3a00800678008f
:101770000fb097000000e000030032008d0f500012
:1017800001003100800678000004eb009fb0970054
:101790008d8f5000010036000d8450002fb197004e
:1017a000e804610035003a00acb79f00bdb79f0068
:1017b0000a06be00cfb59700110037003e0090002a
:1017c0000068a300070032000b017800010220002e
:1017d0000e007800dffe07000000e00006003a007f
:1017e000060037008e00780000022000ae070700d8
:1017f000e10f4000010032008b05e8000804e90019
:101800000800e000edff3a00cbb79f000c05be00da
:101810002fb69700bfb697000084eb00aab79f00d1
:10182000bbb79f00170037003e0090000068a30080
:10183000090032000c007800b000fb0000067800c0
:101840000b0178000e007800c2fe07000000e000e7
:1018500008003a000c0037008c0078003100fb00d3
:10186000010678008e0078008f070700e10f400026
:10187000050032008b05e80003003700aab79f007f
:10188000bbb79f00cfb597000d0078008006e90038
:101890000000e000e4ff3a00cbb79f002fb59700af
:1018a000bfb597000900e00073073200cfb497007e
:1018b000110037003e0090000068a30007003200ce
:1018c00009017800010220000e007800a1fe070047
:1018d0000000e00006003a00060037008e007800a5
:1018e0000002200070070700e10f400001003200f5
:1018f0008904e8000804e9000800e000edff3a0070
:101900005c073700ffa9970043007800f3af9f0002
:10191000cf80de00c809de00480add004801de0095
:1019200002017200a2cf9f00afb297000548a3004a
:10193000080032000204e00006003200e14f4100de
:1019400004003200b2cf9f00c0cf9f002d002000c6
:1019500002003700b0cf9f001d002000a0fc2f0028
:101960000f0040000006e80081ff3700a0cf9f0075
:10197000acfc2f000f0646001d0020007cff370046
:10198000a0cf9f00afb09700010cb300a1b79f009c
:10199000017020002fb1970081006100700061008c
:1019a0000100e000ee04320002c8a3000200320091
:1019b0006300200083b79f000000e0000a003200af
:1019c0007faa9700680252001400780094009000eb
:1019d00024019000b4019000f4af9f00da070700e3
:1019e0000004be0005003700ffaa9700e482520001
:1019f0001504780095049000f5af9f006011b800c1
:101a00000800be00aa0707000000e00004003d0037
:101a100009f0a2002fb097003000b300a0b79f00dc
:101a20000000eb00f0a79f006011b8000800be00a6
:101a3000c00707000000e00024003200e2fc2f0095
:101a40000f0141000800be00bc0707007fa09700ff
:101a50000000e900e300b900a20020001100090025
:101a60000200d800f0a79f000000e00002003d0047
:101a70000000e900f0a79f007fa697000c40ea0055
:101a8000d9fd07000801be0054fc07000005be0098
:101a90000200200003f82300850707000000e00093
:101aa00002003d000c06e90007003700020020009c
:101ab000031224000a00be007f0707000000e000b8
:101ac000020035000c06e800fca79f007fa69700e7
:101ad000afb097000188a30007003a000198a30067
:101ae000b2023200e40f4600030035000fb1970048
:101af000820f5600690235008fb197000300e000a5
:101b0000050032002fb297000498a30002003200b3
:101b10008301e90083b79f008fb2970080c0b300b4
:101b2000e88f520001003e000fe09700a0cf9f0019
:101b30006011b8000800be007e0707000000e0004a
:101b400033003200afce97000d405600a6fd0700cf
:101b50000001be000800be008bfb07000004be00b1
:101b600057070700710707000001be000800be000c
:101b700027fb07000200200003f023004e070700a8
:101b80000000e000050035000200200003f0230003
:101b90000800be001ffb07000004be000800be00d6
:101ba000470707000d01fb008201e800c219dd00b4
:101bb000a409210083014200b30f5000a38f5800f5
:101bc00007003900d2cc2c00c3dc23000800be0083
:101bd00002fc07000004be000c06e8000b00370002
:101be0004211dd0002014200b20f5000a28f5800e6
:101bf0000700310002002000031224000800be008c
:101c0000f6fb07000004be000c06e900fca79f00dd
:101c100001a020002fb1970081006100002020006a
:101c2000808f500026003a008fb19700ea8f510054
:101c300002003400a400200084b79f000800be000a
:101c40001f070700070037008fb297008502e900e1
:101c500085b79f00a2002000030020000c00be00fa
:101c6000640707000006be00e00f5000e08f580038
:101c700006003200a2002000030020006d070700cc
:101c8000e00f5000e08f5800efff32002fc89700a0
:101c90008000fb000fb19700810f510008003d004c
:101ca0000240500050fd07000001be000800be00c9
:101cb00035fb07000004be008fe19700a3cf9f0013
:101cc0001fb29700650052008fb2970005005000c8
:101cd00090b79f000500e00003003a002fb0970086
:101ce00000b8a300030032009fb097008100e90014
:101cf00091b79f002fb1970063006100030032008d
:101d00009fb197008301e90093b79f002fb297001e
:101d10000428a300530032003e00900061016200dd
:101d20000418a300180032000068a3000a00320063
:101d3000b10220000200e000010032008180e800d2
:101d40004fb197000e00780082fd07000000e00010
:101d500009003a003a003700b00220000200e0001b
:101d6000010032000080e8008e0078004e06070077
:101d7000e10f400032003200cfb297008502e80048
:101d8000050678002f0037000200e0002c0032002a
:101d90000068a300070032004fb197000102200045
:101da0000e0078006bfd07000000e00006003a001e
:101db000230037008e007800000220003a0607005a
:101dc000e10f40001e0032004fb097000000e80015
:101dd000000678001b0037003e0090000068a3005a
:101de0000b0032000c017800010320000e00780087
:101df000f4b79f0085bf9f0056fd07007fb2970094
:101e00008fba97000000e0000a003a000a0037008d
:101e10008e00780000032000f4b79f0085bf9f006c
:101e2000210607007fb297008fba9700e10f4000ac
:101e3000010032000c06e8008904e90003003700c5
:101e40004fb697000802be009fb497000900e0005b
:101e5000e1ff3c0099b79f00ccb79f000404be008f
:101e60004f003700afb097000138a3001c003a00c4
:101e70004fb69700d8af9f00e9af9f009fb497007f
:101e8000110037003e0090000068a30007003200f8
:101e90000c017800010220000e0078002dfd0700e3
:101ea0000000e00006003a00060037008e007800cf
:101eb00000022000fc050700e10f40000100320095
:101ec0000c06e8008904e9000900e000edff3c0091
:101ed00099b79f00ccb79f005fac9700efac97001d
:101ee0003e009000afb19700618161000318a3002c
:101ef000180032000068a3000a003200b10220007e
:101f00000200e000010032008180e8004fb197003c
:101f10000e0078000ffd07000000e00009003a0005
:101f20001f003700b00220000200e0000100320074
:101f30000080e8008e007800db050700e10f40001c
:101f4000170032004fb297000402e800c4b79f00a8
:101f5000130037000200e000110032000068a30007
:101f6000070032004fb19700010220000e007800f8
:101f7000f8fc07000000e00006003a000800370007
:101f80008e00780000022000c7050700e10f400026
:101f900003003200cfb297008502e800c5b79f006a
:101fa0000800be00460607000006be003e01900085
:101fb000a0092100afc997008300fb000268a300bd
:101fc0000e003200c208dd00010040001001780060
:101fd000900190000c00be0086060700010320005f
:101fe000808040004fb197000e007800d9fc0700b8
:101ff0000000e0000e003a0010003700c208dd00cb
:102000000100400010017800900190000c00be001b
:102010007806070002032000000141008e007800ce
:1020200002007800a0050700e10f40000300320025
:102030004fb297000402e800c4b79f00afca9700f0
:102040000500fb004200dd00a109210000804000e6
:1020500010017800900190000c00be00750607008a
:102060000006be000fb097000000e00003003a0039
:10207000afb0970001b8a300690032003e009000a5
:102080000068a300070032004fb19700e102200072
:102090000e007800affc07000000e00006003a00e8
:1020a000080037008e007800e00220007e0507005f
:1020b000e10f4000030032004fb197000201e80039
:1020c000c2b79f002fcc9700cfb4970036003700df
:1020d000afb197000398a30008003200e00f56004c
:1020e000e08f5e0005003a00c9b79f000042eb0098
:1020f000a4cf9f000004eb00460037003e01900093
:10210000a00921008100fb000268a3000e0032003c
:10211000c208dd000100400010017800900190002d
:102120000c00be0033060700010320008080400041
:10213000090178000e00780086fc07000000e0002e
:102140000e003a000e003700c208dd00010040001a
:1021500010017800900190000c00be0025060700d9
:1021600002032000000141008e0078000200780088
:102170004d050700e10f4000010032008904e8002e
:10218000afca97000500fb004200dd00a109210055
:102190000080400010017800900190000c00be000b
:1021a000240607000006be002fc897008040e90003
:1021b000a1cf9f000004e000c5ff3a00c9b79f000f
:1021c0000804fb000fb0970008045000110037000e
:1021d0003e0090000068a30007003200090178006b
:1021e000010320000e0078005afc07000000e00008
:1021f00006003a00060037008e0078000003200039
:1022000029050700e10f4000010032008904e800c1
:102210000804e9000800e000edff3a00c9b79f009c
:102220003e009000afb097000158a30012003200aa
:102230000068a300070032004fb19700510420004e
:102240000e00780043fc07000000e00006003a00a2
:102250001a0037008e007800500420001205070095
:10226000e10f4000150032004fb197000201e80075
:10227000c2b79f00110037000068a30007003200ba
:102280004fb19700510620000e00780031fc070086
:102290000000e00006003a00080037008e007800d9
:1022a0005006200000050700e10f40000300320047
:1022b000cfb197008301e800c3b79f00ffa097004c
:1022c0003e0090000100e00014003d008100ea00a3
:1022d000f1a79f000068a300070032004fb19700ec
:1022e000d10220000e0078001afc07000000e00078
:1022f00006003a001a0037008e007800d002200055
:10230000e9040700e10f4000150032004fb29700ca
:102310000402e800c4b79f00110037000068a30062
:10232000070032004fb19700b10220000e00780084
:1023300008fc07000000e00006003a000800370033
:102340008e007800b0022000d7040700e10f4000a3
:1023500003003200cfb297008502e800c5b79f00a6
:10236000be0090007fa097000168a3000b00320020
:10237000a2002000110009000200d8000103200083
:10238000808040004fb197000e007800f1fb0700fd
:102390000000e00009003a000b003700a200200016
:1023a000110009000200d8000003b0008e00780080
:1023b000bd040700e10f4000030032004fb097005a
:1023c0000000e800c0b79f00be0090007fa097000b
:1023d0000168a3000a003200a200200011000900d9
:1023e0000200d8000103b0004fb197000e00780042
:1023f000d8fb07000000e0000a003a000c0037009c
:10240000a2002000110009000200d80000032000f3
:10241000010040008e007800a3040700e10f400097
:1024200003003200cfb097008100e800c1b79f00e1
:102430002fb197000238a3008f0432009fb197009c
:102440000300e0008c04340003047800cfb497004c
:102450003e0090000068a3000700320009017800e8
:10246000010220000e007800bafb07000000e00027
:1024700006003a00060037008e00780000022000b7
:1024800089040700e10f4000010032008904e800e0
:102490000804e900eeff3a00760437000c00e00083
:1024a00004003d000c86ea000fb297000c024200c7
:1024b00084b79f000800be0001050700d0af9f0051
:1024c000e1af9f00610921000040eb0007003700e9
:1024d000e48040005faa9700efaa9700b10f520076
:1024e000a18f5a00030039000040e800ea4f500075
:1024f000f7ff3a000000fb008fb297008082520085
:1025000085b79f00ec8f520006003c000540780024
:10251000edfa07000001be000800be00bdf807008c
:102520000004be000fe097002ffb07000006be006e
:102530005fa89700efa89700fc0407000001be0009
:102540000800be00b2f807000001be000c00be008b
:10255000a2f90700da0407000006be0008003700f1
:10256000a2002000030020000c00be00210507008f
:102570000006be000fb097000000e90080b79f0082
:102580008fb097000100e00011003200a20020008f
:10259000030020000c00be0026050700e00f5000dd
:1025a000e08f5800eeff3200090037000fb19700ae
:1025b000ec0f510006003c0002407800c2fa070010
:1025c0000001be000800be0092f807000004be0033
:1025d0007fa69700e90f56000c003c006011b80080
:1025e0000800be00d30407000000e0001b0032001a
:1025f0000800be00b2040700e00f5000e08f580052
:1026000016003a00e10f560014003400f2052700ce
:10261000930824000a00be00a50407000000e000a3
:1026200002003d00690656000100370068065600aa
:10263000fca79f006fc89700ebfa07000005be00db
:102640000001be000800be00cff807009c04070090
:102650000006be006044b8000a0037000800be0053
:10266000970407000006be00b00407000001be008a
:102670000800be0066f807000004be000000eb0082
:10268000f0a79f00a109210010c0b300050037008a
:10269000e4804000b10f5600a18f5e0003003900b6
:1026a0000040e800ea4f5000f9ff3a00a0cf9f0039
:1026b000ffa097009fb19700818051000fb2970053
:1026c000848050000000fb000080500090b79f0005
:1026d00000802000afb2970000806200d0af9f0062
:1026e00002003a000400e000030032001fb097002f
:1026f0000000e90090b79f00afb0970063806000d2
:10270000030032001fb197000201e90092b79f0059
:10271000afb197000328a3005e0032006181610021
:102720000318a300190032003e0090000068a300c7
:102730000a003200b10220000200e0000100320075
:102740008180e8004fb197000e00780001fb070080
:102750000000e00009003a0043003700b00220000a
:102760000200e000010032000080e8008e007800e6
:10277000cd030700e10f40003b0032004fb297004d
:102780000402e800c4b79f00370037000200e000f1
:10279000350032003e0090000068a30007003200c0
:1027a0004fb19700010220000e007800e9fa0700ff
:1027b0000000e00006003a002b0037008e00780091
:1027c00000022000b8030700e10f4000260032009d
:1027d000cfb297008502e800c5b79f0022003700fe
:1027e0003e0090000068a3000f0032000d01780049
:1027f000010320000e007800f4b79f0085bf9f0002
:10280000d6b79f00e7b79f00d2fa07007fb29700c4
:102810008fba97005fb39700efb397000000e00016
:102820000e003a000e0037008e00780000032000f2
:10283000f4b79f0085bf9f00d6b79f00e7b79f0002
:10284000990307007fb297008fba97005fb3970094
:10285000efb39700e10f4000010032008d06e80061
:102860008904e900040037000802be009fb4970005
:102870000c03be00cfb697000900e000d8ff3c0073
:1028800099b79f00cdb79f000404be000606be00a6
:102890007e0037002fb097000038a30020003a00d8
:1028a000b8af9f00c9af9f009fb497008caf9f0047
:1028b0009daf9f00cfb69700110037003e009000fb
:1028c0000068a300070032000d017800010220001b
:1028d0000e0078009ffa07000000e00006003a00b2
:1028e000060037008e007800000220006e0307000b
:1028f000e10f4000010032008d06e8008904e90084
:102900000900e000edff3c0099b79f00cdb79f00a4
:102910003fac9700cfac97000fae97009fae9700eb
:10292000afb29700618162000518a3001900320060
:102930003e0090000068a3000a003200b1022000af
:102940000200e000010032008180e8004fb19700f2
:102950000e0078007ffa07000000e00009003a004e
:102960004a003700b00220000200e00001003200ff
:102970000080e8008e0078004b030700e10f400064
:10298000420032004fb097000000e800c0b79f003f
:102990003e0037000200e0003c0032003e009000a4
:1029a0000068a300070032004fb197000102200029
:1029b0000e00780067fa07000000e00006003a0009
:1029c000320037008e007800000220003603070036
:1029d000e10f40002d003200cfb097008100e800e9
:1029e000c1b79f00290037003e019000a1092100d6
:1029f0000000fb000268a300110032004200dd006d
:102a00000080400010017800900190000c00be0092
:102a1000f8030700a20020000300200005040700bf
:102a200001032000808040004fb197000e00780025
:102a300048fa07000000e00011003a0013003700d8
:102a40004200dd00008040001001780090019000fd
:102a50000c00be00e7030700a200200003002000d6
:102a6000f403070002032000000141008e007800fb
:102a7000020078000c030700e10f40000300320061
:102a80004fb197000201e800c2b79f00afc897009e
:102a90000140e900a0cf9f000104e000d2ff3a000e
:102aa0000806be00cfb49700130037003e00900028
:102ab0000068a3000700320009017800010320002c
:102ac0000e00780023fa07000000e00006003a003c
:102ad000060037008e00780000032000f202070095
:102ae000e10f4000010032008904e8007fa0970058
:102af0000000e900f0a79f007fa097000000e00021
:102b0000eaff3c00c9b79f000c04be008fb19700dc
:102b1000e88f51000300340080c0b300a0cf9f00b5
:102b2000020037000fe29700a4cf9f002fc8970044
:102b30008000fb008fb297008180520081b79f0018
:102b40000004e00003003a005fa897000000e000e6
:102b5000120032003e0090000068a300070032001f
:102b60004fb19700e10220000e007800f9f907004c
:102b70000000e00006003a00080037008e007800f0
:102b8000e0022000c8020700e10f4000030032000d
:102b9000cfb097008100e800c1b79f002fc8970011
:102ba00091f907000001be000800be000bf8070005
:102bb000430307000006be004fb497003100370002
:102bc0003e019000a00921008100fb000268a300e3
:102bd00011003200c208dd00010040001001780041
:102be000900190000c00be0082030700a2002000ac
:102bf000030020008f0307000103200080804000b5
:102c0000080178000e007800d2f907000000e0000b
:102c100011003a0011003700c208dd000100400039
:102c200010017800900190000c00be0071030700b5
:102c3000a2002000030020007e0307000203200002
:102c4000000141008e007800020078009602070023
:102c5000e10f4000010032000804e8002fc997008e
:102c60000200fb004200dd00a109210000804000bd
:102c700010017800900190000c00be006d03070069
:102c80000006be002fc897008040e900a1cf9f003a
:102c90000004e000caff3a00c8b79f000fb49700d5
:102ca000cfb49700110037003e0090000068a300e9
:102cb0000700320009017800010320000e007800af
:102cc000a4f907000000e00006003a000600370003
:102cd0008e0078000003200073020700e10f40001f
:102ce000010032008904e8000804e9000800e0005f
:102cf000edff3a00c9b79f00afb197000338a300ba
:102d00005d0232001fb297000400e0005a02340056
:102d1000040478003e0090000068a3000700320021
:102d200009017800010220000e00780089f90700ef
:102d30000000e00006003a00060037008e00780030
:102d40000002200058020700e10f4000010032009d
:102d50008904e8000804e900eeff3a004502370064
:102d6000afb09700010cb20015003a000000e0007f
:102d700006003200ffaa9700e48252001506780090
:102d800095069000f5af9f00040037007fa89700dc
:102d900040067800f0af9f00cfe6de00e00f56005f
:102da000e08f5e0012003d00afb097003100b3002d
:102db000a1b79f0060061600e0861e000c003700d9
:102dc0000000e000060032007fa997006401510076
:102dd0001206780092069000f2af9f0004003700c0
:102de000ffa9970043067800f3af9f008006eb0031
:102df0000fb297000400e00006003a000c80760055
:102e000000f0a7000000ea000000e9004f00de002b
:102e100080b79f00afb29700050cb200b5af9f001e
:102e200000042000808f52002300320003003c0089
:102e30000500e000080032002d00370000082000e7
:102e4000bfa89700808f50000d003200000c2000ba
:102e5000808f500026003a00a109210010c0b30065
:102e6000e4804000b10f5600a18f5e001f003900c2
:102e70000040e800ea4f5000f9ff3a001b0037001d
:102e800010c0b3000201200003002000820f560092
:102e9000838f5e0015003900441add00cc11de007e
:102ea000830172004411dd000040e800e84f50004b
:102eb000f6ff3a000d00370010c0b300820020007a
:102ec00003002000820f5600838f5e000700390048
:102ed000c31add00cd11de00838172004311dd00d5
:102ee0000040e800eb4f5000f6ff3a00a0cf9f00f3
:102ef000afc897000100fb000fb19700820f500090
:102f000002003d00a2cf9f00040037008fb1970060
:102f1000808f510001003d0080b79f001fb29700d5
:102f20000400e00005003200afb297006380620049
:102f3000020032000402e90094b79f002fb097000e
:102f400000e8a300090032009fb097000fb197007e
:102f5000828f5000030034008280500091b79f00a0
:102f6000020037008001eb0093b79f00418c2000e6
:102f70002fb297008100620000842000808f5000f3
:102f800006003a009fb297000500e00011003200f1
:102f90008502e90095b79f000e003700018c2000e4
:102fa0002fb097008100600000882000808f5000c3
:102fb00008003a009fb09700e28f500003003400f1
:102fc0008180e90091b79f00020037000001eb000b
:102fd00092b79f00afc997000300fb000002eb000f
:102fe000d4af9f009fb29700808f52000200340040
:102ff00000805200d0af9f002fb097000028a300a0
:103000007d003200610160000018a3001900320049
:103010003e0090000068a3000a003200b1022000c8
:103020000200e000010032008180e8004fb197000b
:103030000e007800c7f807000000e00009003a0021
:1030400053003700b00220000200e000010032000f
:103050000080e8008e00780093010700e10f400037
:103060004b003200cfb097008100e800c1b79f004d
:10307000470037000200e000130032003e009000dd
:103080000068a300070032004fb197000102200042
:103090000e007800aff807000000e00006003a00dc
:1030a0003b0037008e007800000220007e01070000
:1030b000e10f4000360032004fb197000201e800f6
:1030c000c2b79f0032003700018c2000afb19700db
:1030d0008180610000882000808f50002c003a0021
:1030e0003e0090000068a300070032004fb1970037
:1030f000010320000e00780096f807000000e000b1
:1031000006003a00080037008e0078000003200017
:1031100065010700e10f4000030032004fb2970045
:103120000402e800c4b79f003e0090002fb1970052
:103130000202b2000068a3000a00320081072000ea
:103140000200e00001003200810520004fb197002d
:103150000e0078007ff807000000e00009003a0048
:103160000b003700800720000200e0000100320061
:10317000800520008e0078004b010700e10f400021
:1031800003003200cfb297008502e800c5b79f0068
:103190005fa897000000e000ac0032000004780057
:1031a000cfb497003e0090000068a30007003200f3
:1031b00009017800010320000e00780065f807007f
:1031c0000000e00006003a00060037008e0078009c
:1031d0000003200034010700e10f4000010032002d
:1031e0008904e8000804e900eeff3a00d8af9f0028
:1031f000c9b79f0095003700dfa897000100e000e5
:10320000190032002fb197000238a30016003a00cf
:1032100001047800cfb497003e0090000068a3003e
:103220000700320009017800010220000e0078003a
:1032300048f807000000e00006003a0006003700ea
:103240008e0078000002200017010700e10f400007
:10325000010032008904e8000804e900eeff3a00aa
:10326000d8af9f00c9b79f00afb1970061816100df
:103270000318a300190032003e0090000068a3006c
:103280000a003200b10220000200e000010032001a
:103290008180e8004fb197000e0078002df80700fc
:1032a0000000e00009003a0020003700b0022000d2
:1032b0000200e000010032000080e8008e0078008b
:1032c000f9000700e10f4000180032004fb29700ec
:1032d0000402e800c4b79f00140037000200e000b9
:1032e000120032003e0090000068a3000700320088
:1032f0004fb19700010220000e00780015f807007a
:103300000000e00006003a00080037008e00780058
:1033100000022000e4000700e10f4000030032003b
:10332000cfb297008502e800c5b79f00008c20004f
:10333000afb097000080600001842000810f500032
:1033400013003a003e0090000068a300070032001e
:103350004fb19700010320000e007800fdf7070031
:103360000000e00006003a00380037008e007800c8
:1033700000032000cc000700e10f400033003200c2
:103380004fb197000201e800c2b79f002f0037003d
:1033900001882000810f50002c003a003e00900070
:1033a0000068a300070032004fb19700010320001e
:1033b0000e007800e7f707000000e00006003a0082
:1033c000080037008e00780000032000b6000700d8
:1033d000e10f400003003200cfb197008301e80005
:1033e000c3b79f003e0090002fb197000202b200c9
:1033f0000068a3000a003200810720000200e000fc
:1034000001003200810520004fb197000e007800c6
:10341000d0f707000000e00009003a000b00370079
:10342000800720000200e00001003200800520003b
:103430008e0078009c000700e10f4000030032007e
:103440004fb297000402e800c4b79f008fb2970004
:103450000502e900e320b90090b79f004222dd0099
:10346000a0092100000242008aaf9f009baf9f008d
:1034700004047800bfac97005f0037008fb197005d
:103480008301e90083b79f0000042000808f54006f
:103490003800320003003c000900e0000700320061
:1034a0003e00370000082000808f54001f003200cb
:1034b000000c2000808f540038003a002fb2970093
:1034c0000400e00003003500afb297000548a300f8
:1034d0000d00320018057800980590000a01be0022
:1034e0000c00be0043010700a0cf9f000000fb00be
:1034f000cf80de000a01be00510107000006560021
:1035000081865e000700370018017800110009006d
:103510000286d800a2002000110009000280d80015
:10352000a1cf9f002fc897001a0037001008210074
:10353000afb097000158a30001003200000721003e
:10354000a1092100810054000c01be008100e900a6
:10355000030033008301d1000281d300fbff370059
:103560006f0161000201400012417800a2cf9f006c
:103570000a0037000c00be001fb197000201e900ed
:10358000030033008100d1000080d300fbff37002f
:10359000674060000043b000a0cf9f00be009000d5
:1035a000afc997000300fb000168a30007003200c9
:1035b0004fb19700800078000e00780065f7070093
:1035c0000000e00005003a00070037008e00780098
:1035d00035000700e10f4000030032004fb29700b2
:1035e0000402e800c4b79f001fb0970063005000ba
:1035f00090b79f00640454008fb097000100e00072
:103600009eff3a000fad97009fad97002fb1970036
:103610000238a30018003200dfa997000300e00081
:103620001500340003047800cfb497003e009000ea
:103630000068a300070032000901780001022000a1
:103640000e00780043f707000000e00006003a0093
:10365000060037008e0078000002200012000700ec
:10366000e10f4000010032008904e8000804e9008d
:10367000eeff3a00c9b79f002faa970014407800c8
:10368000a0cf9f000004e00047f73a004fb097003a
:103690004f0778004f06be004f05be004f04be0026
:1036a000af02b10000000600889fbe000104780050
:1036b000b80090008084eb000118a3003a003200ab
:1036c000180190000198a30002003a000200e000f7
:1036d00035003a000190a000310498008004780081
:1036e000f90fb2000200e00002003a00280090004a
:1036f000000c7800ea8f540005003a000178a3001e
:1037000003003a0088007800d0002000e6ff0700a0
:1037100018009000d8009000810f50000b0032007c
:103720000000e800100498001800780009487800ac
:10373000000ce80011c0b300e01821000148780037
:10374000ea8f540018003a0005003700880078001e
:103750000940780017000700800478001200370045
:10376000380090000088a3000f003200180190007c
:10377000a80090004800900013f407009800900003
:10378000810f500004003200380090000003b300a5
:10379000300498008084eb000000eb0010049800d7
:1037a00028009000000c7800090078004f04be004b
:1037b000000006000200fa00889fbe00a0ff9f00e4
:1037c00001047800380090000068a30033003a003c
:1037d000e200600005003a000003b30030049800e6
:1037e000110498000080eb002e003700d8049000f0
:1037f0000900e00006003a0012002000e6805700b1
:1038000048009000f0f307001904980023003700e7
:10381000a80090000100e00008003a001119210002
:1038200021049800010c7800210020005104980028
:10383000110498000030a000300498001801900096
:10384000a800900048009000dff3070028009000d7
:103850008080eb0011049800aff8970001487800d1
:10386000000ce8002ff89700ea4f50000b003a00d8
:10387000380090000088a300080032001801900072
:10388000a800900048009000cff307000000eb0074
:1038900010049800a8009000010c7800aff8970081
:1038a0000100fb004f04be000080fa00000006008b
:1038b00014002000b5003700f4ff2f00b3003700dc
:1038c0000001be0098f407000470a70003f0a100f7
:1038d00003f8a30013003a006509b100100032009c
:1038e000090035006928e1000200350001002800c8
:1038f0000000050000004000818048008502e900ca
:10390000fcff3a0000000600f88f42000500350079
:103910008100d1000080d3008502e800fcff3a005e
:10392000000006008000eb00000005006011b800f8
:10393000def4370004002000940037004600070042
:1039400005097800000006001400fa00889fbe00f8
:103950008a9fbe008c9fbe000005be000206be000e
:10396000680047000c90be000a90be0047000700a8
:103970006400e1001a00320016003e006100e10020
:103980001a0032006e049000fe0490000e0b9000ae
:103990009e0b90006011b8009e0590000b38b1009e
:1039a000d501200082817100610164008703d1008c
:1039b0000683d3008984d3000884d3008502e900fc
:1039c000f8ff3a0032f407000df0a70001f0a00064
:1039d00069003700f1ff2700f0ff2f006600370075
:1039e00001f8270000002000f7ff37006000b80052
:1039f000f5ff37006022b800060220000000d0006a
:103a00008180d2000482d2008582d2000000a00012
:103a10000202520083825a00030031000202420077
:103a200083824a000000a1000603e900f3ff3a0088
:103a300000000600efff07000400be0000000600c3
:103a4000020ab900001bb9000200b8008100420060
:103a500081004300000006000003be0032f40700ae
:103a60006220e100020032000600be0005000500f1
:103a7000e507b100f107b20004f023008480700074
:103a800007f0a70001f0a000240005005002be00ce
:103a9000e40050005003be004439de00f700b200dd
:103aa000f37f200003016100090032000218e100e9
:103ab00016003a0085017200830173008381730050
:103ac0000008200015003a004000200013003700d5
:103ad00085017200830173008381730005003a0041
:103ae00004a8be0006a8be00100020000b0037008e
:103af0000201e9000402420085824a0006034b00ed
:103b000087834b000748a300f9ff32000740a0005d
:103b100004a8be0006a8be00200020008000980077
:103b20009200980000000600680447000294be005e
:103b30000094be00fc0447008694be008494be003e
:103b400009007800d1ff070008007800cfff0700c8
:103b500099007800814f70000b003b000800be0008
:103b6000250007004f00b10003003700f3ff2700d6
:103b7000f2ff2f006110b9004f06be004f05be00d6
:103b80004f04be000080fa0000000600889fbe00bf
:103b90008a9fbe00841f7800f8f307004f0078006a
:103ba00011003300f0ff2f00838f6c0006003b00f4
:103bb000040565000a00a7000800370009f0a60008
:103bc0001000200008003700820f5400838f5c0033
:103bd000030039001000200001003e00000020001a
:103be00009f0a7000000ea004f05be004f04be0028
:103bf0000000e00000000600e48240001078a3000e
:103c000007003200640240001178a3003400be00b7
:103c10001401be00050032000330a70000000600ba
:103c200035007800350078001501be000330a00093
:103c300000000600d0019000028151004240a9001e
:103c40000300340010017800014978000208e80000
:103c50000100780000000600f6874700889fbe003c
:103c60008a9fbe008c9fbe008e1f780000057800e2
:103c7000a1b79f00020778008004eb009202370092
:103c8000afb097008100e800a1b79f0051c2b30018
:103c9000814f500003003a00afb097000004eb00e2
:103ca00011003700ba0090000000fb000168a3007b
:103cb0000700320009017800800078000a007800cf
:103cc000dcff07000000e00005003a007e0237003c
:103cd0008a00780074fe0700e10f40007a0232008b
:103ce0008904e8007802370001007800314178004b
:103cf000d3c2b300834f51000c00320007003c00d8
:103d0000edc15100834f51000a003200ebc1410068
:103d1000834f51000d003a000800370003c3b30081
:103d2000834f510009003a00060037000830a00018
:103d3000edff37000800a000ebff37000810a000df
:103d4000e9ff37000820a000e7ff37000818a300ac
:103d5000010032000800a1000838a3000100320071
:103d60000820a1008200fb000103b100e98f500090
:103d70000c003e00000178008000eb00ea08b9006a
:103d8000b200fb000103b100808040000200780017
:103d90009201fb000303b100e98f5100f7ff3600e9
:103da000060037008000eb00a3c2b300834f510030
:103db00002003a00ce0078000000e8008005eb0029
:103dc000e2c2b300904f110008003a0008e0a000e2
:103dd00064415100d04f1100020032000001780010
:103de00006003700ce0578000000e80000017800ea
:103df00008003700ea58b9008085410002007800c9
:103e0000b201fb000303b100e98f5100f9ff360056
:103e1000f6ff370032407800a2b79f00c3c6b30058
:103e2000834f5000250032000f003c0032c6b30023
:103e3000824f50008800320004003c000004e00083
:103e4000260232006b4151000f00370042c6b3001a
:103e5000824f50001700320065414100824f5000f0
:103e600094003a001300370032c7b300824f50006d
:103e70001b00320007003c0064415100824f50009b
:103e8000100032000241e800824f500089003a00e1
:103e90000f00370052c7b300824f50008a00320033
:103ea00063414100824f500082003a00e0df9f00f2
:103eb00009003700e0df9f00850037000840a000c0
:103ec000d4ff3700e0df9f000860a00080003700cb
:103ed000e0df9f000850a0000870a0007c003700c1
:103ee000e0df9f004e007800000678000000e00050
:103ef00001003a004c0e21000c0178000000eb009c
:103f0000010037000000e800800141001304e000d8
:103f1000fcff3a00800678000b00e000030032004e
:103f20008d8f5500010031008b0678008005eb0075
:103f30008d8f5000010036008d85500068046400ac
:103f40002a003a00110037003a0090000068a300f0
:103f50000700320009017800010220000a00780001
:103f600034ff07000000e00006003a0006003700ba
:103f70008a00780000022000cbfd0700e10f40001e
:103f8000010032008904e8008b05e9000b00e00025
:103f9000edff3a008085eb00140037003a009000f6
:103fa0000068a300090032000c007800b000fb009c
:103fb00000067800090178000a0078001dff07005c
:103fc0000000e00008003a00080037008c0078008c
:103fd0003100fb00010678008a007800b2fd07007e
:103fe000e10f4000010032008904e8000d00780074
:103ff0008006e9000000e000e8ff3a000800e00069
:10400000b1013200110037003a0090000068a300af
:104010000700320009017800010220000a00780040
:1040200004ff07000000e00006003a000600370029
:104030008a007800000220009bfd0700e10f40008d
:10404000010032008904e8008b05e9000b00e00064
:10405000edff3a009c0137004e017800cf91de0061
:10406000c81ade004818dd004812de0004027000a5
:10407000e4df9f000848a300080032000404e000c9
:1040800006003200e14f420004003200f4df9f00de
:1040900082e79f002d00200002003700f2df9f0022
:1040a0001d002000e2fd2f000f0141000206e80084
:1040b00099ff3700e0df9f00ecfd2f000f06460060
:1040c0001d00200094ff3700e0df9f00080cb300c4
:1040d00008017800020cb200700064000200e000e9
:1040e0000f003a000000e0000400320064075700af
:1040f0001e0678009e069000020037004e067800eb
:10410000cfe6de00e00f5600e08f5e000c003d00c1
:104110003800b30060061600e0861e000800370075
:104120000000e00004003200640757001e0678001b
:104130009e069000020037004e0678008006eb00d5
:104140000b00e00005003a008c8576000bf0a7001c
:104150008b05ea008b05e900cf5dde008801780061
:10416000030cb200e3b79f0000042000808f5100d1
:104170002300320003003c000300e000080032008e
:104180002d003700000820006fb29700800f52000a
:104190000d003200000c2000800f520026003a0073
:1041a000c20e210010c0b30064014100b20f5600de
:1041b000a28f5e001f0039000040e800ea4f500067
:1041c000f9ff3a001b00370010c0b30002012000c5
:1041d00003002000820f5600838f5e001500390017
:1041e000441add00cc11de00830172004411dd00b1
:1041f0000040e800e84f5000f6ff3a000d0037009d
:1042000010c0b3008200200003002000820f56007f
:10421000838f5e0007003900431add00cd11de00f8
:10422000830172004311dd000040e800eb4f5000b5
:10423000f6ff3a00e0df9f006fd997000200fb0015
:104240008b0f500002003d00ebdf9f0003003700a2
:10425000808f550001003d00800578000100e000de
:104260000300320063006400010032008100e900b5
:1042700008e8a300050032008b8f500002003400d4
:104280008b805000010037008000eb00efd99700d1
:104290000300fb000002eb00d4b79f00808f5000aa
:1042a0000200340000805000d0b79f000828a3000f
:1042b00040003200610164000818a3000f003200c2
:1042c0003a0090000068a30006003200b10220000e
:1042d0000200e000010032008180e800090178005e
:1042e0000d003700b00220000200e00001003200a3
:1042f0000080e8008a0078000e0037000200e0002d
:10430000100032003a0090000068a300070032005d
:1043100009017800010220000a00780045fe07002c
:104320000000e00006003a00060037008a0078002e
:1043300000022000dcfc0700e10f40000100320019
:104340008904e8005fb097000000e0005a003200e6
:10435000bcb79f00cdb79f00800678003a00900060
:104360000068a30007003200090178000103200063
:104370000a0078002ffe07000000e00006003a0067
:10438000060037008a00780000032000c6fc070002
:10439000e10f4000010032008904e8008d06e900c9
:1043a000eeff3a00ddb79f003fb69700cfb697000b
:1043b00041003700dfb197000300e0001a0032002f
:1043c0000838a30018003a00bcb79f00cdb79f0083
:1043d000830678003a0090000068a30007003200ce
:1043e00009017800010220000a00780011fe070090
:1043f0000000e00006003a00060037008a0078005e
:1044000000022000a8fc0700e10f4000010032007c
:104410008904e8008d06e900eeff3a00ddb79f0051
:104420003fb69700cfb69700610164000818a3005b
:104430000f0032003a0090000068a300060032002e
:10444000b10220000200e000010032008180e8009b
:10445000090178000d003700b00220000200e000e2
:10446000010032000080e8008a0078000e0037006a
:104470000200e000100032003a0090000068a30043
:104480000700320009017800010220000a007800cc
:10449000e8fd07000000e00006003a0006003700d3
:1044a0008a007800000220007ffc0700e10f400036
:1044b000010032008904e8000b03e900e331b90090
:1044c000b2b79f004233dd00c00e2100000343005d
:1044d0008e01780093b79f000807780006047800e3
:1044e0005d0037008b05e900000420006fb29700e3
:1044f000800f52003900320003003c000400e0004d
:10450000080032003f00370000082000efb097009d
:10451000808f500021003200000c2000808f50005e
:1045200038003a000e48a30011003200180278004b
:10453000980290000401be000c00be00f4b79f007a
:1045400085bf9f002bfd0700e0df9f000000fb0000
:10455000cf80de007fb297008fba97000401be00c3
:1045600037fd07000006560081865e000700370011
:1045700018017800110009000286d800a20020006e
:10458000110009000280d800e1df9f006fd9970079
:104590000243b000e2df9f001a003700300d210017
:1045a0000e58a30001003200200c2100c10e210092
:1045b000810054000c01be008100e90003003300bb
:1045c0008301d1000281d300fbff3700ef006100bf
:1045d0000100400010407800090037000c00be00c8
:1045e0003fb297000402e900030033008100d100cc
:1045f0000080d300fbff3700674060000043b0003d
:10460000e0df9f00ba0090006fd997000200fb0026
:104610000168a300070032000901780080007800db
:104620000a00780083fd07000000e00005003a0062
:10463000050037008a0078001bfc0700e10f4000ee
:10464000010032008904e8003fb297006302520083
:10465000b4b79f00640454000b00e000a1ff3a00cf
:104660000e0478001fb797000838a3001600320028
:104670005fb097000000e0001300340000047800f1
:104680003a0090000068a30007003200090178009a
:10469000010220000a00780066fd07000000e0002b
:1046a00006003a00060037008a0078000002200069
:1046b000fdfb0700e10f4000010032008904e80023
:1046c0000804e900eeff3a00afb09700114078000f
:1046d000e0df9f000004e00069fd3a000900780077
:1046e0004f0778004f06be004f05be004f04be00c6
:0846f0006f01b100000006009b
:020000040000fa
:1046f800696e0000207500007365000072200000dc
:1047080074610000736b0000203000002e2e000042
:104718002e00000020740000696300006b20000078
:104728006973000020250000640a0000007300007f
:104738007563000063650000737300002e0a0000b3
:1047480000660000616900006c2e00000a0000008d
:10475800696e000069740000696100006c690000fe
:104768007a6900006e670000207400006173000021
:104778006b2000007379000073740000656d000001
:104788002e2e00002e2000000a0000007379000081
:1047980073740000656d0000207200006561000000
:1047a800647900002e00000045520000524f0000be
:1047b800523a000020740000696d00006572000024
:1047c800206e00006f740000206600006f75000006
:1047d8006e6400002100000045520000524f0000a6
:1047e800523a000020680000656100007020000057
:1047f8006e6f000074200000636f00006e6600009a
:104808006967000075720000656400002e000000f2
:1048180045520000524f0000523a00002063000049
:10482800616e00006e6f000074200000637200006b
:104838006561000074650000206e0000756c000062
:104848006c20000074610000736b00002100000000
:104858005472000061700000206500006e63000063
:104868006f7500006e7400006572000065640000da
:10487800202d000020650000727200006f72000099
:10488800206300006f6400006520000025640000bc
:04489800000000001c
:020000040000fa
:10489c005e110000200000008000000006100000e7
:1048ac000200000082000000ffff00003a1100002f
:1048bc002400000080000000001000000600000032
:1048cc00800000007e11000010000000800000003d
:1048dc001411000026000000820000008f1100005f
:1048ec00008f11000900000000020000911100006f
:1048fc00009111000e0201000000000000000000f9
:10490c00000000000602020000000000141100006c
:10491c008e110000060000008000000070100000e6
:10492c005200000082000000303132003334350078
:10493c0036373800394142004344450046003000c8
:10494c003132330034353600373839006162630058
:10495c006465660000286e00756c6c002900000010
:10496c0001000000000a00000000640000000000cc
:10497c00e8030000001027000000a00086010000e2
:10498c0040420f000080960098000000e1f5050001
:10499c0000ca9a003b0000000810000068000000ec
:1049ac0082000000000080003f0000002041000059
:1049bc0000c8420000007a00440040001c46000081
:1049cc0050c347000024740049809600184b200007
:1049dc00bcbe4c00286b6e004ef902001550ec006a
:1049ec0078ad6000caf2490071000000803fcd0034
:1049fc00cccc3d000ad723003c6f1200833a170041
:104a0c00b7d13800acc5270037bd370086359500c7
:104a1c00bfd6330077cc2b00325f70008930ff009b
:104a2c00e6db2e0008e53c001e604200a20d0000f3
:104a3c00941100000200000080000000c210000071
:104a4c005200000082000000303132003334350057
:104a5c0036373800394142004344450046003000a7
:104a6c003132330034353600373839006162630037
:104a7c006465660000286e00756c6c0029000000ef
:104a8c0001000000000a00000000640000000000ab
:104a9c00e8030000001027000000a00086010000c1
:104aac0040420f000080960098000000e1f50500e0
:0c4abc0000ca9a003b000000000000004f
:020000040000fa
:104ac80010808000300090001080880000000600f0
:104ad80000017800108080009001900004003700e9
:104ae8003000900090009000838f50000400320046
:104af80090009000828f5000f9ff3a0001003700c3
:104b08000000eb000000060010002000f0ff070086
:104b18000000e00004003a00803d2a005ef1070032
:104b28000080eb0002003700400090001000780081
:104b380000000600889fbe008a1f78000004be009f
:104b480002057800a000200093f007000000e000b4
:104b58000c003200080878000180800031009800bd
:104b680011808000b0009800290098002180800002
:104b780011017800120098008208e8004a009800a5
:104b8800108088004f0578004f04be000000060022
:104b9800210020001000200013f107000001780018
:104ba8008000eb00c05f2200e2ff07000000060063
:104bb800e10f500001003a00f5ff07000000eb008c
:104bc800000006000101780011002000d9ff07004d
:104bd8000000060030019000b2009800f7f00700ce
:104be8000000060080007800a0132100acee07004a
:104bf8009000780002f02f00828f500002003600eb
:104c08000008eb00010037000108e8000000eb0095
:104c1800f4ff0700000006000000eb00f1ff0700aa
:104c280000000600881f780000047800210020009a
:104c380010002000ecf00700208088000000e00051
:104c480004003a00003f2a0013f107000080eb003f
:104c580019003700a00020004ff007000000e00016
:104c680006003a00c0402a00801f780043f0070081
:104c78008f87e900e0ff2f000f0037000161220055
:104c880001087800300098000001eb00220098002d
:104c9800218080009101780013009800420098005c
:104ca8009108e800108088000080880008007800db
:104cb800bfff07000000eb004f047800000006006b
:104cc800a01321008fee07007dff070011808000f0
:104cd80041009000910078000100010000000600ea
:104ce800b013200010138800100020002013880043
:104cf800c000280000138800000006006022ab00f6
:104d0800feff3a006342ab00030032001000780057
:104d180040138800020037001080fb004013880011
:104d2800020220000313800003006100fdff3a0027
:104d38006342ab0003003200401380008008780013
:104d48000200370040138000804878000000060009
:104d58000400fa00889fbe008a1f78008001eb00db
:104d6800b3bf9f00c3bf9f000640200013138000fd
:104d7800030363000603ea004f33de001800200037
:104d8800880f530002003a008100d100280020005b
:104d98000000e00003003a00e88257008004eb00be
:104da8000200370088047800800278000200e000e2
:104db80002003a006a8157000004eb006022ab0051
:104dc800feff3a000000eb008001eb000100e0006c
:104dd8002900320007022000e78f51000a003e0038
:104de800e10f530003003a001502780044138800cd
:104df800020037001582fb004413880089824200b4
:104e08000000e8008301e8000a1380000a826300ba
:104e180009003a00e10f530003003a0044138000f0
:104e28000409780002003700441380000449780020
:104e3800080141008301e900808f5000e6ff3e0031
:104e48000d0037000513800085006200fdff3a0061
:104e5800e10f530003003a004a1380000a09780062
:104e68000200370041138000014978000801410021
:104e78008301e90001003700040220000300e0007c
:104e8800040032000513800085006200edff3a003f
:104e9800efff37004f0578004f04be000080fa008e
:104ea800000006000400fa00e0ff9f00e4805700bd
:104eb8000f80e90091ff07004ff897000080fa0083
:104ec80000000600a2ff0700000006000013800093
:104ed80000000600210f200022028000828060006e
:104ee8008080700021028800000006007105200003
:104ef8000001eb0060042000237420008049780042
:104f08008149780082497800200c2300203a8800e3
:104f18004827ef004e27ef0090082000303a88001d
:104f28004420a90044c0a90044e0a9004480a90085
:104f3800000006004d000700ecff0700fc0007001a
:104f480067ff0700ca000700ed00070080000700a0
:104f580000022000dfff070000000600003a800082
:104f6800000006004f00de000000060001002400db
:104f7800010060000000ea004f00de0000000600ab
:104f88004900de0061006000000006004700de0006
:104f980061006000000006004600de00610060005d
:104fa800000006004400de0061006000000006000a
:104fb8000080ea004007b600003a880000000600ba
:104fc800881f7800e5ff07000004780008007800d3
:104fd800e4ff07000004e00002003200000028009f
:104fe800f3ff070008007800e0ff07000004e00076
:104ff8000200320000002400edff070008007800de
:10500800dfff07000004e00002003200002020005b
:10501800e7ff070008007800dcff07000004e00055
:105028000200320000082000e1ff070008007800b5
:10503800d9ff07000004e00002003200000420004d
:10504800dbff070008007800d6ff07000004e00037
:105058000200320000012000d5ff07004f0478004d
:10506800000006004027ef0000000600042eef00b5
:10507800004e2300a0708800f00020000070880017
:10508800f0212f00807088000c2eef001c2eef00fe
:105098000a2eef001a2eef00062eef00162eef0054
:1050a8003000200070708800c0002000f070880078
:1050b800f20b2000103a800000016100600420001b
:1050c8007105200023742000804978008149780008
:1050d8008249780002f82f0064368000840161005c
:1050e800c302b3006336880003fc2f000534800038
:1050f800858161000300a00003348800f30f2c00b1
:10510800253480000582610004b0a00024348800a2
:1051180044348000848161000490200003027200fe
:105128004434880025368000050161004202b3003e
:1051380022368800123a80000260a0002374200002
:10514800804978008149780082497800000006008b
:105158000a21ef000e21ef000621ef0000a2270030
:105168006008880080032800800888000000060086
:105178000108ab00010032000108a9000000060088
:105188006008880071088800000006007008800028
:10519800620880008000eb00c000dd0000002000f5
:1051a8008001eb00020070008380700000000600a0
:1051b8004108880030088800000006003208800096
:1051c800400880008000eb00c000dd0000002000e7
:1051d8008001eb0002007000838070000000060070
:1051e80011e1a8000000060011e1a9000000060076
:1051f800c0372a00801f7800d9ee070042fe07005a
:10520800801f7800e0382a00801f7800d4ee07005d
:105218000000eb0073fe0700e68757000000060059
:1052280044ff0700c03a2a009bef07001000200047
:105238007cfe0700513a2a000000e00001003a0015
:10524800b1392a00811f78007eef07008000eb004b
:10525800c08f22005bfe0700a03c2a008eef0700eb
:1052680097fe07008f87e9000080eb00000006002a
:1052780080002000001188002222ef007a00400000
:105288004011880021e2a8002342a800000006007f
:105298002202ab00feff32002222ab0001003200e6
:1052a8002222a90030118000000006000220200000
:1052b8001311800083006100fdff3a000080fb00ad
:1052c8002011880000000600101180000000060070
:1052d800e015210080077800780040000001880070
:1052e8000000060030808800801f7800c0422a0035
:1052f800801f78009aee0700e4875700ffff370009
:1053080000002800001988002223ef001000200068
:10531800201988002823ef002e23ef003023ef0008
:105328002623ef000000060001a8a90000000600df
:04533800000006006b
:020000040000fa
:02000004000af0
:04afe000cdff0000a1
:020000040000fa
:02000004000af0
:04afe400cfff00009b
:020000040000fa
:02000004000af0
:04afe8007fff0000e7
:020000040000fa
:02000004000af0
:04afec009bff0000c7
:020000040000fa
:02000004000af0
:04aff000f9ff000065
:020000040000fa
:02000004000af0
:04aff400ffff00005b
:00000001FF
