:040000000128FE2FA6
:100D1C001630210097000800F1007108A126080088
:100D2C0068302100990098010800BD2696268E2671
:100D3C00A926B2260800F0002000111EA22E700871
:100D4C0023009A000800013021009D00C0309E0055
:100D5C009F019B019C010800083023009F008030FC
:100D6C009D0024309E0067309B009C0108000430DD
:100D7C0022008C003F3021008C00073023008C00B7
:100D8C003F3024008C002100951325008C01843009
:100D9C0022009D000800F3007308F200F20DF20D22
:100DAC0021001D087206833972069D001D14003245
:100DBC000032000021009D149D18E22E1C08F10049
:100DCC001B08F00008009B26C8300032890BEB2E64
:100DDC001F30F8008730F9006427C8300032890BC7
:100DEC00F42E0230D1267108FD007008FC002B3067
:100DFC00F8008730F9007D08FB007C08FA00F22E21
:100E0C000134003410340034003401340034103414
:100E1C00303431343234333434343534363437348A
:100E2C003834393461346234633464346534663450
:100E3C0000344134753478342034523465346134A0
:100E4C00643479342E340A34003441342534783403
:100E5C000A340034F501F6017008710403195F2F90
:100E6C00F701F70AF11B442F0130F035F10D890B16
:100E7C003B2F0130F4007408F707382F0130F5359B
:100E8C00F60D890B452F71087302031D4F2F700847
:100E9C007202031C562F7008F2027108F33B751492
:100EAC000130F136F00C890B572F0130F702031D7E
:100EBC00442F7608F1007508F00008007A30200005
:100ECC00A0002008A60079082000A1007808A00046
:100EDC00F80A0319F90A2008840021088500000883
:100EEC00A2002208AA002A080319080025302A06A5
:100EFC000319832F2A089226692F2000A401790850
:100F0C00A1007808A000F80A0319F90A2008840047
:100F1C00210885000008AA00003A0319FD2F783A31
:100F2C000319992F692F260886008701403FA700D7
:100F3C00413FA8000230A0002008A607AA01AA0A77
:100F4C0004302A060319C92F2A08A000A101A035D4
:100F5C00A10D0630200784008730213D8500003F1D
:100F6C00A200013FA30023082802031DBF2F220863
:100F7C002702031CC92F0130A0002008AA07043047
:100F8C002A06031DAA2F2A08A0002008A900FF305A
:100F9C002000A0002008A907290A0319692F290895
:100FAC00A000A101A035A10D0630200784008730D8
:100FBC00213D8500003FF000013FF1002808F300BF
:100FCC002708F200302770080F392000A2002208F1
:100FDC00A50025080E3E840087300318013E8500CD
:100FEC000008A0002008AA002A089226CD2F08008D
:040FFC002000E92EBA
:020000040001F9
:04000E00E4FFFFFE0E
:00000001FF
